8=FIX.4.2|9=84|35=A|34=1|49=OMPInitiator|52=20171203-17:40:58.223|56=FIXIMULATOR|98=0|108=30|141=Y|10=032|8=FIX.4.2|9=121|35=D|34=2|49=OMPInitiator|52=20171203-17:40:59.228|56=FIXIMULATOR|11=123|21= |40=2|54= |55=AMZN|60=20171203-18:40:59.227|10=085|8=FIX.4.2|9=129|35=D|34=3|49=OMPInitiator|52=20171203-17:41:13.312|56=FIXIMULATOR|11=asf1235axaf|21=1|40=1|54=1|55=EBAY|60=20171203-18:41:13.312|10=092|8=FIX.4.2|9=66|35=0|34=4|49=OMPInitiator|52=20171203-17:41:44.206|56=FIXIMULATOR|10=201|8=FIX.4.2|9=66|35=0|34=5|49=OMPInitiator|52=20171203-17:42:14.206|56=FIXIMULATOR|10=200|8=FIX.4.2|9=66|35=0|34=6|49=OMPInitiator|52=20171203-17:42:44.204|56=FIXIMULATOR|10=202|8=FIX.4.2|9=66|35=0|34=7|49=OMPInitiator|52=20171203-17:43:14.204|56=FIXIMULATOR|10=201|8=FIX.4.2|9=66|35=0|34=8|49=OMPInitiator|52=20171203-17:43:44.204|56=FIXIMULATOR|10=205|8=FIX.4.2|9=66|35=0|34=9|49=OMPInitiator|52=20171203-17:44:14.201|56=FIXIMULATOR|10=201|8=FIX.4.2|9=67|35=0|34=10|49=OMPInitiator|52=20171203-17:44:44.198|56=FIXIMULATOR|10=004|8=FIX.4.2|9=67|35=0|34=11|49=OMPInitiator|52=20171203-17:45:14.197|56=FIXIMULATOR|10=002|8=FIX.4.2|9=130|35=D|34=12|49=OMPInitiator|52=20171203-17:45:22.578|56=FIXIMULATOR|11=asf1235axaf|21=1|40=1|54=1|55=EBAY|60=20171203-18:45:22.578|10=168|8=FIX.4.2|9=67|35=0|34=13|49=OMPInitiator|52=20171203-17:45:53.195|56=FIXIMULATOR|10=005|8=FIX.4.2|9=67|35=0|34=14|49=OMPInitiator|52=20171203-17:46:23.198|56=FIXIMULATOR|10=007|8=FIX.4.2|9=67|35=0|34=15|49=OMPInitiator|52=20171203-17:46:53.198|56=FIXIMULATOR|10=011|8=FIX.4.2|9=67|35=0|34=16|49=OMPInitiator|52=20171203-17:47:23.192|56=FIXIMULATOR|10=004|8=FIX.4.2|9=67|35=0|34=17|49=OMPInitiator|52=20171203-17:47:53.195|56=FIXIMULATOR|10=011|8=FIX.4.2|9=67|35=0|34=18|49=OMPInitiator|52=20171203-17:48:23.195|56=FIXIMULATOR|10=010|8=FIX.4.2|9=67|35=0|34=19|49=OMPInitiator|52=20171203-17:48:53.192|56=FIXIMULATOR|10=011|8=FIX.4.2|9=67|35=0|34=20|49=OMPInitiator|52=20171203-17:49:23.198|56=FIXIMULATOR|10=007|8=FIX.4.2|9=79|35=A|34=21|49=OMPInitiator|52=20171203-18:07:07.276|56=FIXIMULATOR|98=0|108=30|10=047|8=FIX.4.2|9=67|35=0|34=22|49=OMPInitiator|52=20171203-18:07:37.274|56=FIXIMULATOR|10=004|8=FIX.4.2|9=67|35=0|34=23|49=OMPInitiator|52=20171203-18:08:07.274|56=FIXIMULATOR|10=003|8=FIX.4.2|9=67|35=0|34=24|49=OMPInitiator|52=20171203-18:08:37.272|56=FIXIMULATOR|10=005|8=FIX.4.2|9=67|35=0|34=25|49=OMPInitiator|52=20171203-18:09:07.272|56=FIXIMULATOR|10=004|8=FIX.4.2|9=67|35=0|34=26|49=OMPInitiator|52=20171203-18:09:37.270|56=FIXIMULATOR|10=006|8=FIX.4.2|9=67|35=0|34=27|49=OMPInitiator|52=20171203-18:10:07.268|56=FIXIMULATOR|10=003|8=FIX.4.2|9=67|35=0|34=28|49=OMPInitiator|52=20171203-18:10:37.269|56=FIXIMULATOR|10=008|8=FIX.4.2|9=67|35=0|34=29|49=OMPInitiator|52=20171203-18:11:07.268|56=FIXIMULATOR|10=006|8=FIX.4.2|9=67|35=0|34=30|49=OMPInitiator|52=20171203-18:11:37.267|56=FIXIMULATOR|10=000|8=FIX.4.2|9=67|35=0|34=31|49=OMPInitiator|52=20171203-18:12:07.267|56=FIXIMULATOR|10=255|8=FIX.4.2|9=67|35=0|34=32|49=OMPInitiator|52=20171203-18:12:37.265|56=FIXIMULATOR|10=001|8=FIX.4.2|9=67|35=0|34=33|49=OMPInitiator|52=20171203-18:13:07.264|56=FIXIMULATOR|10=255|8=FIX.4.2|9=67|35=0|34=34|49=OMPInitiator|52=20171203-18:13:37.263|56=FIXIMULATOR|10=002|8=FIX.4.2|9=67|35=0|34=35|49=OMPInitiator|52=20171203-18:14:07.261|56=FIXIMULATOR|10=255|8=FIX.4.2|9=67|35=0|34=36|49=OMPInitiator|52=20171203-18:14:37.263|56=FIXIMULATOR|10=005|8=FIX.4.2|9=67|35=0|34=37|49=OMPInitiator|52=20171203-18:15:07.259|56=FIXIMULATOR|10=009|8=FIX.4.2|9=67|35=0|34=38|49=OMPInitiator|52=20171203-18:15:37.261|56=FIXIMULATOR|10=006|8=FIX.4.2|9=67|35=0|34=39|49=OMPInitiator|52=20171203-18:16:07.258|56=FIXIMULATOR|10=011|8=FIX.4.2|9=67|35=0|34=40|49=OMPInitiator|52=20171203-18:16:37.260|56=FIXIMULATOR|10=255|8=FIX.4.2|9=67|35=0|34=41|49=OMPInitiator|52=20171203-18:17:07.254|56=FIXIMULATOR|10=001|8=FIX.4.2|9=67|35=0|34=42|49=OMPInitiator|52=20171203-18:17:37.258|56=FIXIMULATOR|10=009|8=FIX.4.2|9=67|35=0|34=43|49=OMPInitiator|52=20171203-18:18:07.254|56=FIXIMULATOR|10=004|8=FIX.4.2|9=67|35=0|34=44|49=OMPInitiator|52=20171203-18:18:37.256|56=FIXIMULATOR|10=010|8=FIX.4.2|9=67|35=0|34=45|49=OMPInitiator|52=20171203-18:19:07.251|56=FIXIMULATOR|10=004|8=FIX.4.2|9=67|35=0|34=46|49=OMPInitiator|52=20171203-18:19:37.251|56=FIXIMULATOR|10=008|8=FIX.4.2|9=67|35=0|34=47|49=OMPInitiator|52=20171203-18:20:07.253|56=FIXIMULATOR|10=000|8=FIX.4.2|9=67|35=0|34=48|49=OMPInitiator|52=20171203-18:20:37.248|56=FIXIMULATOR|10=008|8=FIX.4.2|9=67|35=0|34=49|49=OMPInitiator|52=20171203-18:21:07.246|56=FIXIMULATOR|10=005|8=FIX.4.2|9=67|35=0|34=50|49=OMPInitiator|52=20171203-18:21:37.247|56=FIXIMULATOR|10=001|8=FIX.4.2|9=67|35=0|34=51|49=OMPInitiator|52=20171203-18:22:07.249|56=FIXIMULATOR|10=002|8=FIX.4.2|9=67|35=0|34=52|49=OMPInitiator|52=20171203-18:22:37.247|56=FIXIMULATOR|10=004|8=FIX.4.2|9=67|35=0|34=53|49=OMPInitiator|52=20171203-18:23:07.247|56=FIXIMULATOR|10=003|8=FIX.4.2|9=67|35=0|34=54|49=OMPInitiator|52=20171203-18:23:37.242|56=FIXIMULATOR|10=002|8=FIX.4.2|9=67|35=0|34=55|49=OMPInitiator|52=20171203-18:24:07.240|56=FIXIMULATOR|10=255|8=FIX.4.2|9=67|35=0|34=56|49=OMPInitiator|52=20171203-18:24:37.243|56=FIXIMULATOR|10=006|8=FIX.4.2|9=67|35=0|34=57|49=OMPInitiator|52=20171203-18:25:07.243|56=FIXIMULATOR|10=005|8=FIX.4.2|9=67|35=0|34=58|49=OMPInitiator|52=20171203-18:25:37.239|56=FIXIMULATOR|10=014|8=FIX.4.2|9=67|35=0|34=59|49=OMPInitiator|52=20171203-18:26:07.240|56=FIXIMULATOR|10=005|8=FIX.4.2|9=67|35=0|34=60|49=OMPInitiator|52=20171203-18:26:37.240|56=FIXIMULATOR|10=000|8=FIX.4.2|9=67|35=0|34=61|49=OMPInitiator|52=20171203-18:27:07.236|56=FIXIMULATOR|10=004|8=FIX.4.2|9=130|35=D|34=62|49=OMPInitiator|52=20171203-18:27:15.928|56=FIXIMULATOR|11=asf1235axaf|21=1|40=1|54=1|55=EBAY|60=20171203-19:27:15.928|10=177|8=FIX.4.2|9=67|35=0|34=63|49=OMPInitiator|52=20171203-18:27:46.237|56=FIXIMULATOR|10=010|8=FIX.4.2|9=67|35=0|34=64|49=OMPInitiator|52=20171203-18:28:16.232|56=FIXIMULATOR|10=004|8=FIX.4.2|9=67|35=0|34=65|49=OMPInitiator|52=20171203-18:28:46.231|56=FIXIMULATOR|10=007|8=FIX.4.2|9=67|35=0|34=66|49=OMPInitiator|52=20171203-18:29:16.233|56=FIXIMULATOR|10=008|8=FIX.4.2|9=67|35=0|34=67|49=OMPInitiator|52=20171203-18:29:46.229|56=FIXIMULATOR|10=017|8=FIX.4.2|9=67|35=0|34=68|49=OMPInitiator|52=20171203-18:30:16.229|56=FIXIMULATOR|10=007|8=FIX.4.2|9=130|35=D|34=69|49=OMPInitiator|52=20171203-18:30:32.404|56=FIXIMULATOR|11=asf1235axaf|21=1|40=1|54=1|55=EBAY|60=20171203-19:30:32.404|10=148|8=FIX.4.2|9=67|35=0|34=70|49=OMPInitiator|52=20171203-18:31:03.230|56=FIXIMULATOR|10=245|8=FIX.4.2|9=67|35=0|34=71|49=OMPInitiator|52=20171203-18:31:33.226|56=FIXIMULATOR|10=254|8=FIX.4.2|9=130|35=D|34=72|49=OMPInitiator|52=20171203-18:32:01.830|56=FIXIMULATOR|11=asf1235axaf|21=1|40=1|54=1|55=EBAY|60=20171203-19:32:01.830|10=144|8=FIX.4.2|9=130|35=D|34=73|49=OMPInitiator|52=20171203-18:32:07.764|56=FIXIMULATOR|11=asf1235axaf|21=1|40=1|54=1|55=EBAY|60=20171203-19:32:07.764|10=169|8=FIX.4.2|9=130|35=D|34=74|49=OMPInitiator|52=20171203-18:32:13.096|56=FIXIMULATOR|11=asf1235axaf|21=1|40=1|54=1|55=EBAY|60=20171203-19:32:13.096|10=160|8=FIX.4.2|9=67|35=0|34=75|49=OMPInitiator|52=20171203-18:32:43.225|56=FIXIMULATOR|10=003|8=FIX.4.2|9=67|35=0|34=76|49=OMPInitiator|52=20171203-18:33:13.226|56=FIXIMULATOR|10=003|8=FIX.4.2|9=130|35=D|34=77|49=OMPInitiator|52=20171203-18:33:41.212|56=FIXIMULATOR|11=asf1235axaf|21=1|40=1|54=1|55=EBAY|60=20171203-19:33:41.212|10=147|8=FIX.4.2|9=67|35=0|34=78|49=OMPInitiator|52=20171203-18:34:11.222|56=FIXIMULATOR|10=000|8=FIX.4.2|9=67|35=0|34=79|49=OMPInitiator|52=20171203-18:34:41.222|56=FIXIMULATOR|10=004|8=FIX.4.2|9=67|35=0|34=80|49=OMPInitiator|52=20171203-18:35:11.219|56=FIXIMULATOR|10=000|8=FIX.4.2|9=130|35=D|34=81|49=OMPInitiator|52=20171203-18:35:20.771|56=FIXIMULATOR|11=asf1235axaf|21=1|40=1|54=1|55=EBAY|60=20171203-19:35:20.771|10=160|8=FIX.4.2|9=67|35=0|34=82|49=OMPInitiator|52=20171203-18:35:51.218|56=FIXIMULATOR|10=005|8=FIX.4.2|9=67|35=0|34=83|49=OMPInitiator|52=20171203-18:36:21.217|56=FIXIMULATOR|10=003|8=FIX.4.2|9=130|35=D|34=84|49=OMPInitiator|52=20171203-18:36:23.481|56=FIXIMULATOR|11=asf1235axaf|21=1|40=1|54=1|55=EBAY|60=20171203-19:36:23.481|10=167|8=FIX.4.2|9=67|35=0|34=85|49=OMPInitiator|52=20171203-18:36:54.217|56=FIXIMULATOR|10=011|8=FIX.4.2|9=67|35=0|34=86|49=OMPInitiator|52=20171203-18:37:24.218|56=FIXIMULATOR|10=011|8=FIX.4.2|9=130|35=D|34=87|49=OMPInitiator|52=20171203-18:37:38.532|56=FIXIMULATOR|11=asf1235axaf|21=1|40=1|54=1|55=EBAY|60=20171203-19:37:38.532|10=178|8=FIX.4.2|9=130|35=D|34=88|49=OMPInitiator|52=20171203-18:37:52.658|56=FIXIMULATOR|11=asf1235axaf|21=1|40=1|54=1|55=EBAY|60=20171203-19:37:52.657|10=188|8=FIX.4.2|9=130|35=D|34=89|49=OMPInitiator|52=20171203-18:38:21.034|56=FIXIMULATOR|11=asf1235axaf|21=1|40=1|54=1|55=EBAY|60=20171203-19:38:21.034|10=160|8=FIX.4.2|9=67|35=0|34=90|49=OMPInitiator|52=20171203-18:38:51.212|56=FIXIMULATOR|10=001|8=FIX.4.2|9=130|35=D|34=91|49=OMPInitiator|52=20171203-18:39:11.467|56=FIXIMULATOR|11=asf1235axaf|21=1|40=1|54=1|55=EBAY|60=20171203-19:39:11.467|10=173|8=FIX.4.2|9=67|35=0|34=92|49=OMPInitiator|52=20171203-18:39:42.211|56=FIXIMULATOR|10=003|8=FIX.4.2|9=67|35=0|34=93|49=OMPInitiator|52=20171203-18:40:12.213|56=FIXIMULATOR|10=251|8=FIX.4.2|9=67|35=0|34=94|49=OMPInitiator|52=20171203-18:40:42.209|56=FIXIMULATOR|10=004|8=FIX.4.2|9=67|35=0|34=95|49=OMPInitiator|52=20171203-18:41:12.211|56=FIXIMULATOR|10=252|8=FIX.4.2|9=67|35=0|34=96|49=OMPInitiator|52=20171203-18:41:42.210|56=FIXIMULATOR|10=255|8=FIX.4.2|9=67|35=0|34=97|49=OMPInitiator|52=20171203-18:42:12.205|56=FIXIMULATOR|10=002|8=FIX.4.2|9=67|35=0|34=98|49=OMPInitiator|52=20171203-18:42:42.208|56=FIXIMULATOR|10=009|8=FIX.4.2|9=67|35=0|34=99|49=OMPInitiator|52=20171203-18:43:12.204|56=FIXIMULATOR|10=004|8=FIX.4.2|9=68|35=0|34=100|49=OMPInitiator|52=20171203-18:43:42.203|56=FIXIMULATOR|10=038|8=FIX.4.2|9=68|35=0|34=101|49=OMPInitiator|52=20171203-18:44:12.201|56=FIXIMULATOR|10=035|8=FIX.4.2|9=68|35=0|34=102|49=OMPInitiator|52=20171203-18:44:42.204|56=FIXIMULATOR|10=042|8=FIX.4.2|9=68|35=0|34=103|49=OMPInitiator|52=20171203-18:45:12.202|56=FIXIMULATOR|10=039|8=FIX.4.2|9=68|35=0|34=104|49=OMPInitiator|52=20171203-18:45:42.198|56=FIXIMULATOR|10=057|8=FIX.4.2|9=68|35=0|34=105|49=OMPInitiator|52=20171203-18:46:12.197|56=FIXIMULATOR|10=055|8=FIX.4.2|9=68|35=0|34=106|49=OMPInitiator|52=20171203-18:46:42.199|56=FIXIMULATOR|10=061|8=FIX.4.2|9=68|35=0|34=107|49=OMPInitiator|52=20171203-18:47:12.194|56=FIXIMULATOR|10=055|8=FIX.4.2|9=68|35=0|34=108|49=OMPInitiator|52=20171203-18:47:42.198|56=FIXIMULATOR|10=063|8=FIX.4.2|9=80|35=A|34=109|49=OMPInitiator|52=20171203-18:48:13.652|56=FIXIMULATOR|98=0|108=30|10=094|8=FIX.4.2|9=123|35=D|34=110|49=OMPInitiator|52=20171203-18:48:14.659|56=FIXIMULATOR|11=123|21= |40=2|54= |55=AMZN|60=20171203-19:48:14.658|10=199|8=FIX.4.2|9=131|35=D|34=111|49=OMPInitiator|52=20171203-18:48:16.649|56=FIXIMULATOR|11=asf1235axaf|21=1|40=1|54=1|55=EBAY|60=20171203-19:48:16.649|10=229|8=FIX.4.2|9=68|35=0|34=112|49=OMPInitiator|52=20171203-18:48:47.636|56=FIXIMULATOR|10=061|8=FIX.4.2|9=68|35=0|34=113|49=OMPInitiator|52=20171203-18:49:17.638|56=FIXIMULATOR|10=062|8=FIX.4.2|9=68|35=0|34=114|49=OMPInitiator|52=20171203-18:49:47.635|56=FIXIMULATOR|10=063|8=FIX.4.2|9=131|35=D|34=115|49=OMPInitiator|52=20171203-18:50:09.207|56=FIXIMULATOR|11=asf1235axaf|21=1|40=1|54=1|55=EBAY|60=20171203-19:50:09.206|10=202|8=FIX.4.2|9=131|35=D|34=116|49=OMPInitiator|52=20171203-18:50:29.493|56=FIXIMULATOR|11=asf1235axaf|21=1|40=1|54=1|55=EBAY|60=20171203-19:50:29.493|10=222|8=FIX.4.2|9=68|35=0|34=117|49=OMPInitiator|52=20171203-18:50:59.633|56=FIXIMULATOR|10=059|8=FIX.4.2|9=68|35=0|34=118|49=OMPInitiator|52=20171203-18:51:29.633|56=FIXIMULATOR|10=058|8=FIX.4.2|9=68|35=0|34=119|49=OMPInitiator|52=20171203-18:51:59.631|56=FIXIMULATOR|10=060|8=FIX.4.2|9=68|35=0|34=120|49=OMPInitiator|52=20171203-18:52:29.627|56=FIXIMULATOR|10=055|8=FIX.4.2|9=68|35=0|34=121|49=OMPInitiator|52=20171203-18:52:59.630|56=FIXIMULATOR|10=053|8=FIX.4.2|9=68|35=0|34=122|49=OMPInitiator|52=20171203-18:53:29.624|56=FIXIMULATOR|10=055|8=FIX.4.2|9=68|35=0|34=123|49=OMPInitiator|52=20171203-18:53:59.626|56=FIXIMULATOR|10=061|8=FIX.4.2|9=131|35=D|34=124|49=OMPInitiator|52=20171203-18:54:00.864|56=FIXIMULATOR|11=asf1235axaf|21=1|40=1|54=1|55=EBAY|60=20171203-19:54:00.864|10=211|8=FIX.4.2|9=131|35=D|34=125|49=OMPInitiator|52=20171203-18:54:20.853|56=FIXIMULATOR|11=asf1235axaf|21=1|40=1|54=1|55=EBAY|60=20171203-19:54:20.853|10=212|8=FIX.4.2|9=131|35=D|34=126|49=OMPInitiator|52=20171203-18:54:48.181|56=FIXIMULATOR|11=asf1235axaf|21=1|40=1|54=1|55=EBAY|60=20171203-19:54:48.181|10=221|8=FIX.4.2|9=131|35=D|34=127|49=OMPInitiator|52=20171203-18:55:06.117|56=FIXIMULATOR|11=asf1235axaf|21=1|40=1|54=1|55=EBAY|60=20171203-19:55:06.117|10=210|8=FIX.4.2|9=68|35=0|34=128|49=OMPInitiator|52=20171203-18:55:36.625|56=FIXIMULATOR|10=062|8=FIX.4.2|9=68|35=0|34=129|49=OMPInitiator|52=20171203-18:56:06.624|56=FIXIMULATOR|10=060|8=FIX.4.2|9=131|35=D|34=130|49=OMPInitiator|52=20171203-18:56:13.667|56=FIXIMULATOR|11=asf1235axaf|21=1|40=1|54=1|55=EBAY|60=20171203-19:56:13.667|10=222|8=FIX.4.2|9=131|35=D|34=131|49=OMPInitiator|52=20171203-18:56:37.496|56=FIXIMULATOR|11=asf1235axaf|21=1|40=1|54=1|55=EBAY|60=20171203-19:56:37.496|10=235|8=FIX.4.2|9=131|35=D|34=132|49=OMPInitiator|52=20171203-18:56:48.826|56=FIXIMULATOR|11=asf1235axaf|21=1|40=1|54=1|55=EBAY|60=20171203-19:56:48.826|10=234|8=FIX.4.2|9=68|35=0|34=133|49=OMPInitiator|52=20171203-18:57:19.617|56=FIXIMULATOR|10=062|8=FIX.4.2|9=68|35=0|34=134|49=OMPInitiator|52=20171203-18:57:49.616|56=FIXIMULATOR|10=065|8=FIX.4.2|9=68|35=0|34=135|49=OMPInitiator|52=20171203-18:58:19.616|56=FIXIMULATOR|10=064|8=FIX.4.2|9=68|35=0|34=136|49=OMPInitiator|52=20171203-18:58:49.614|56=FIXIMULATOR|10=066|8=FIX.4.2|9=68|35=0|34=137|49=OMPInitiator|52=20171203-18:59:19.615|56=FIXIMULATOR|10=066|8=FIX.4.2|9=131|35=D|34=138|49=OMPInitiator|52=20171203-18:59:40.121|56=FIXIMULATOR|11=asf1235axaf|21=1|40=1|54=1|55=EBAY|60=20171203-19:59:40.121|10=206|8=FIX.4.2|9=68|35=0|34=139|49=OMPInitiator|52=20171203-19:00:10.612|56=FIXIMULATOR|10=043|8=FIX.4.2|9=131|35=D|34=140|49=OMPInitiator|52=20171203-19:00:22.902|56=FIXIMULATOR|11=asf1235axaf|21=1|40=1|54=1|55=EBAY|60=20171203-20:00:22.902|10=178|8=FIX.4.2|9=131|35=D|34=141|49=OMPInitiator|52=20171203-19:00:41.630|56=FIXIMULATOR|11=asf1235axaf|21=1|40=1|54=1|55=EBAY|60=20171203-20:00:41.629|10=185|8=FIX.4.2|9=68|35=0|34=142|49=OMPInitiator|52=20171203-19:01:12.609|56=FIXIMULATOR|10=046|8=FIX.4.2|9=68|35=0|34=143|49=OMPInitiator|52=20171203-19:01:42.612|56=FIXIMULATOR|10=044|8=FIX.4.2|9=131|35=D|34=144|49=OMPInitiator|52=20171203-19:02:05.797|56=FIXIMULATOR|11=asf1235axaf|21=1|40=1|54=1|55=EBAY|60=20171203-20:02:05.796|10=211|8=FIX.4.2|9=68|35=0|34=145|49=OMPInitiator|52=20171203-19:02:36.608|56=FIXIMULATOR|10=055|8=FIX.4.2|9=68|35=0|34=146|49=OMPInitiator|52=20171203-19:03:06.609|56=FIXIMULATOR|10=055|8=FIX.4.2|9=68|35=0|34=147|49=OMPInitiator|52=20171203-19:03:36.604|56=FIXIMULATOR|10=054|8=FIX.4.2|9=68|35=0|34=148|49=OMPInitiator|52=20171203-19:04:06.606|56=FIXIMULATOR|10=055|8=FIX.4.2|9=68|35=0|34=149|49=OMPInitiator|52=20171203-19:04:36.605|56=FIXIMULATOR|10=058|8=FIX.4.2|9=68|35=0|34=150|49=OMPInitiator|52=20171203-19:05:06.601|56=FIXIMULATOR|10=044|8=FIX.4.2|9=68|35=0|34=151|49=OMPInitiator|52=20171203-19:05:36.600|56=FIXIMULATOR|10=047|8=FIX.4.2|9=68|35=0|34=152|49=OMPInitiator|52=20171203-19:06:06.600|56=FIXIMULATOR|10=046|8=FIX.4.2|9=68|35=0|34=153|49=OMPInitiator|52=20171203-19:06:36.600|56=FIXIMULATOR|10=050|8=FIX.4.2|9=68|35=0|34=154|49=OMPInitiator|52=20171203-19:07:06.600|56=FIXIMULATOR|10=049|8=FIX.4.2|9=68|35=0|34=155|49=OMPInitiator|52=20171203-19:07:36.599|56=FIXIMULATOR|10=070|8=FIX.4.2|9=68|35=0|34=156|49=OMPInitiator|52=20171203-19:08:06.600|56=FIXIMULATOR|10=052|8=FIX.4.2|9=68|35=0|34=157|49=OMPInitiator|52=20171203-19:08:36.596|56=FIXIMULATOR|10=070|8=FIX.4.2|9=68|35=0|34=158|49=OMPInitiator|52=20171203-19:09:06.594|56=FIXIMULATOR|10=067|8=FIX.4.2|9=68|35=0|34=159|49=OMPInitiator|52=20171203-19:09:36.593|56=FIXIMULATOR|10=070|8=FIX.4.2|9=68|35=0|34=160|49=OMPInitiator|52=20171203-19:10:06.595|56=FIXIMULATOR|10=053|8=FIX.4.2|9=68|35=0|34=161|49=OMPInitiator|52=20171203-19:10:36.591|56=FIXIMULATOR|10=053|8=FIX.4.2|9=68|35=0|34=162|49=OMPInitiator|52=20171203-19:11:06.591|56=FIXIMULATOR|10=052|8=FIX.4.2|9=68|35=0|34=163|49=OMPInitiator|52=20171203-19:11:36.588|56=FIXIMULATOR|10=062|8=FIX.4.2|9=68|35=0|34=164|49=OMPInitiator|52=20171203-19:12:06.590|56=FIXIMULATOR|10=054|8=FIX.4.2|9=68|35=0|34=165|49=OMPInitiator|52=20171203-19:12:36.588|56=FIXIMULATOR|10=065|8=FIX.4.2|9=68|35=0|34=166|49=OMPInitiator|52=20171203-19:13:06.590|56=FIXIMULATOR|10=057|8=FIX.4.2|9=68|35=0|34=167|49=OMPInitiator|52=20171203-19:13:36.590|56=FIXIMULATOR|10=061|8=FIX.4.2|9=68|35=0|34=168|49=OMPInitiator|52=20171203-19:14:06.589|56=FIXIMULATOR|10=068|8=FIX.4.2|9=68|35=0|34=169|49=OMPInitiator|52=20171203-19:14:36.588|56=FIXIMULATOR|10=071|8=FIX.4.2|9=68|35=0|34=170|49=OMPInitiator|52=20171203-19:15:06.582|56=FIXIMULATOR|10=055|8=FIX.4.2|9=68|35=0|34=171|49=OMPInitiator|52=20171203-19:15:36.586|56=FIXIMULATOR|10=063|8=FIX.4.2|9=68|35=0|34=172|49=OMPInitiator|52=20171203-19:16:06.584|56=FIXIMULATOR|10=060|8=FIX.4.2|9=68|35=0|34=173|49=OMPInitiator|52=20171203-19:16:36.582|56=FIXIMULATOR|10=062|8=FIX.4.2|9=68|35=0|34=174|49=OMPInitiator|52=20171203-19:17:06.581|56=FIXIMULATOR|10=060|8=FIX.4.2|9=68|35=0|34=175|49=OMPInitiator|52=20171203-19:17:36.581|56=FIXIMULATOR|10=064|8=FIX.4.2|9=68|35=0|34=176|49=OMPInitiator|52=20171203-19:18:06.578|56=FIXIMULATOR|10=069|8=FIX.4.2|9=68|35=0|34=177|49=OMPInitiator|52=20171203-19:18:36.576|56=FIXIMULATOR|10=071|8=FIX.4.2|9=68|35=0|34=178|49=OMPInitiator|52=20171203-19:19:06.579|56=FIXIMULATOR|10=073|8=FIX.4.2|9=68|35=0|34=179|49=OMPInitiator|52=20171203-19:19:36.578|56=FIXIMULATOR|10=076|8=FIX.4.2|9=68|35=0|34=180|49=OMPInitiator|52=20171203-19:20:06.577|56=FIXIMULATOR|10=056|8=FIX.4.2|9=68|35=0|34=181|49=OMPInitiator|52=20171203-19:20:36.576|56=FIXIMULATOR|10=059|8=FIX.4.2|9=68|35=0|34=182|49=OMPInitiator|52=20171203-19:21:06.575|56=FIXIMULATOR|10=057|8=FIX.4.2|9=68|35=0|34=183|49=OMPInitiator|52=20171203-19:21:36.574|56=FIXIMULATOR|10=060|8=FIX.4.2|9=68|35=0|34=184|49=OMPInitiator|52=20171203-19:22:06.576|56=FIXIMULATOR|10=061|8=FIX.4.2|9=68|35=0|34=185|49=OMPInitiator|52=20171203-19:22:36.942|56=FIXIMULATOR|10=062|8=FIX.4.2|9=68|35=0|34=186|49=OMPInitiator|52=20171203-19:23:06.936|56=FIXIMULATOR|10=064|8=FIX.4.2|9=68|35=0|34=187|49=OMPInitiator|52=20171203-19:23:36.940|56=FIXIMULATOR|10=063|8=FIX.4.2|9=68|35=0|34=188|49=OMPInitiator|52=20171203-19:24:06.934|56=FIXIMULATOR|10=065|8=FIX.4.2|9=68|35=0|34=189|49=OMPInitiator|52=20171203-19:24:36.937|56=FIXIMULATOR|10=072|8=FIX.4.2|9=68|35=0|34=190|49=OMPInitiator|52=20171203-19:25:06.937|56=FIXIMULATOR|10=062|8=FIX.4.2|9=68|35=0|34=191|49=OMPInitiator|52=20171203-19:25:36.931|56=FIXIMULATOR|10=060|8=FIX.4.2|9=68|35=0|34=192|49=OMPInitiator|52=20171203-19:26:06.935|56=FIXIMULATOR|10=063|8=FIX.4.2|9=68|35=0|34=193|49=OMPInitiator|52=20171203-19:26:36.933|56=FIXIMULATOR|10=065|8=FIX.4.2|9=68|35=0|34=194|49=OMPInitiator|52=20171203-19:27:06.933|56=FIXIMULATOR|10=064|8=FIX.4.2|9=68|35=0|34=195|49=OMPInitiator|52=20171203-19:27:36.932|56=FIXIMULATOR|10=067|8=FIX.4.2|9=68|35=0|34=196|49=OMPInitiator|52=20171203-19:28:06.929|56=FIXIMULATOR|10=072|8=FIX.4.2|9=68|35=0|34=197|49=OMPInitiator|52=20171203-19:28:36.927|56=FIXIMULATOR|10=074|8=FIX.4.2|9=68|35=0|34=198|49=OMPInitiator|52=20171203-19:29:06.926|56=FIXIMULATOR|10=072|8=FIX.4.2|9=68|35=0|34=199|49=OMPInitiator|52=20171203-19:29:36.924|56=FIXIMULATOR|10=074|8=FIX.4.2|9=68|35=0|34=200|49=OMPInitiator|52=20171203-19:30:06.922|56=FIXIMULATOR|10=044|8=FIX.4.2|9=68|35=0|34=201|49=OMPInitiator|52=20171203-19:30:36.922|56=FIXIMULATOR|10=048|8=FIX.4.2|9=68|35=0|34=202|49=OMPInitiator|52=20171203-19:31:06.921|56=FIXIMULATOR|10=046|8=FIX.4.2|9=68|35=0|34=203|49=OMPInitiator|52=20171203-19:31:36.924|56=FIXIMULATOR|10=053|8=FIX.4.2|9=68|35=0|34=204|49=OMPInitiator|52=20171203-19:32:06.920|56=FIXIMULATOR|10=048|8=FIX.4.2|9=68|35=0|34=205|49=OMPInitiator|52=20171203-19:32:36.919|56=FIXIMULATOR|10=060|8=FIX.4.2|9=68|35=0|34=206|49=OMPInitiator|52=20171203-19:33:06.918|56=FIXIMULATOR|10=058|8=FIX.4.2|9=68|35=0|34=207|49=OMPInitiator|52=20171203-19:33:36.920|56=FIXIMULATOR|10=055|8=FIX.4.2|9=68|35=0|34=208|49=OMPInitiator|52=20171203-19:34:06.919|56=FIXIMULATOR|10=062|8=FIX.4.2|9=68|35=0|34=209|49=OMPInitiator|52=20171203-19:34:36.914|56=FIXIMULATOR|10=061|8=FIX.4.2|9=68|35=0|34=210|49=OMPInitiator|52=20171203-19:35:06.916|56=FIXIMULATOR|10=053|8=FIX.4.2|9=68|35=0|34=211|49=OMPInitiator|52=20171203-19:35:36.916|56=FIXIMULATOR|10=057|8=FIX.4.2|9=68|35=0|34=212|49=OMPInitiator|52=20171203-19:36:06.912|56=FIXIMULATOR|10=052|8=FIX.4.2|9=68|35=0|34=213|49=OMPInitiator|52=20171203-19:36:36.911|56=FIXIMULATOR|10=055|8=FIX.4.2|9=68|35=0|34=214|49=OMPInitiator|52=20171203-19:37:06.908|56=FIXIMULATOR|10=060|8=FIX.4.2|9=68|35=0|34=215|49=OMPInitiator|52=20171203-19:37:36.911|56=FIXIMULATOR|10=058|8=FIX.4.2|9=68|35=0|34=216|49=OMPInitiator|52=20171203-19:38:06.911|56=FIXIMULATOR|10=057|8=FIX.4.2|9=68|35=0|34=217|49=OMPInitiator|52=20171203-19:38:36.905|56=FIXIMULATOR|10=064|8=FIX.4.2|9=68|35=0|34=218|49=OMPInitiator|52=20171203-19:39:06.908|56=FIXIMULATOR|10=066|8=FIX.4.2|9=68|35=0|34=219|49=OMPInitiator|52=20171203-19:39:36.905|56=FIXIMULATOR|10=067|8=FIX.4.2|9=68|35=0|34=220|49=OMPInitiator|52=20171203-19:40:06.907|56=FIXIMULATOR|10=050|8=FIX.4.2|9=80|35=A|34=221|49=OMPInitiator|52=20171203-19:40:16.413|56=FIXIMULATOR|98=0|108=30|10=080|8=FIX.4.2|9=123|35=D|34=222|49=OMPInitiator|52=20171203-19:40:17.426|56=FIXIMULATOR|11=123|21= |40=2|54= |55=AMZN|60=20171203-20:40:17.425|10=170|8=FIX.4.2|9=131|35=D|34=223|49=OMPInitiator|52=20171203-19:40:19.508|56=FIXIMULATOR|11=asf1235axaf|21=1|40=1|54=1|55=EBAY|60=20171203-20:40:19.508|10=204|8=FIX.4.2|9=68|35=0|34=224|49=OMPInitiator|52=20171203-19:40:50.407|56=FIXIMULATOR|10=048|8=FIX.4.2|9=68|35=0|34=225|49=OMPInitiator|52=20171203-19:41:20.400|56=FIXIMULATOR|10=040|8=FIX.4.2|9=68|35=0|34=226|49=OMPInitiator|52=20171203-19:41:50.400|56=FIXIMULATOR|10=044|8=FIX.4.2|9=68|35=0|34=227|49=OMPInitiator|52=20171203-19:42:20.399|56=FIXIMULATOR|10=060|8=FIX.4.2|9=68|35=0|34=228|49=OMPInitiator|52=20171203-19:42:50.400|56=FIXIMULATOR|10=047|8=FIX.4.2|9=68|35=0|34=229|49=OMPInitiator|52=20171203-19:43:20.397|56=FIXIMULATOR|10=061|8=FIX.4.2|9=68|35=0|34=230|49=OMPInitiator|52=20171203-19:43:50.398|56=FIXIMULATOR|10=057|8=FIX.4.2|9=68|35=0|34=231|49=OMPInitiator|52=20171203-19:44:20.397|56=FIXIMULATOR|10=055|8=FIX.4.2|9=68|35=0|34=232|49=OMPInitiator|52=20171203-19:44:50.399|56=FIXIMULATOR|10=061|8=FIX.4.2|9=68|35=0|34=233|49=OMPInitiator|52=20171203-19:45:20.395|56=FIXIMULATOR|10=056|