8=FIX.4.2|9=78|35=A|34=1|49=BANZAI|52=20171202-10:45:33.645|56=FIXIMULATOR|98=0|108=30|141=Y|10=055|8=FIX.4.2|9=60|35=0|34=2|49=BANZAI|52=20171202-10:46:04.633|56=FIXIMULATOR|10=212|8=FIX.4.2|9=60|35=0|34=3|49=BANZAI|52=20171202-10:46:34.627|56=FIXIMULATOR|10=219|8=FIX.4.2|9=60|35=0|34=4|49=BANZAI|52=20171202-10:47:04.628|56=FIXIMULATOR|10=219|8=FIX.4.2|9=60|35=0|34=5|49=BANZAI|52=20171202-10:47:34.625|56=FIXIMULATOR|10=220|8=FIX.4.2|9=60|35=0|34=6|49=BANZAI|52=20171202-10:48:04.626|56=FIXIMULATOR|10=220|8=FIX.4.2|9=60|35=0|34=7|49=BANZAI|52=20171202-10:48:34.623|56=FIXIMULATOR|10=221|8=FIX.4.2|9=60|35=0|34=8|49=BANZAI|52=20171202-10:49:04.621|56=FIXIMULATOR|10=218|8=FIX.4.2|9=60|35=0|34=9|49=BANZAI|52=20171202-10:49:34.617|56=FIXIMULATOR|10=227|8=FIX.4.2|9=61|35=0|34=10|49=BANZAI|52=20171202-10:50:04.615|56=FIXIMULATOR|10=255|8=FIX.4.2|9=61|35=0|34=11|49=BANZAI|52=20171202-10:50:34.615|56=FIXIMULATOR|10=003|8=FIX.4.2|9=61|35=0|34=12|49=BANZAI|52=20171202-10:51:04.613|56=FIXIMULATOR|10=000|8=FIX.4.2|9=61|35=0|34=13|49=BANZAI|52=20171202-10:51:34.610|56=FIXIMULATOR|10=001|8=FIX.4.2|9=61|35=0|34=14|49=BANZAI|52=20171202-10:52:04.611|56=FIXIMULATOR|10=001|8=FIX.4.2|9=61|35=0|34=15|49=BANZAI|52=20171202-10:52:34.609|56=FIXIMULATOR|10=012|8=FIX.4.2|9=61|35=0|34=16|49=BANZAI|52=20171202-10:53:04.607|56=FIXIMULATOR|10=009|8=FIX.4.2|9=61|35=0|34=17|49=BANZAI|52=20171202-10:53:34.604|56=FIXIMULATOR|10=010|8=FIX.4.2|9=61|35=0|34=18|49=BANZAI|52=20171202-10:54:04.604|56=FIXIMULATOR|10=009|8=FIX.4.2|9=61|35=0|34=19|49=BANZAI|52=20171202-10:54:34.600|56=FIXIMULATOR|10=009|8=FIX.4.2|9=61|35=0|34=20|49=BANZAI|52=20171202-10:55:04.600|56=FIXIMULATOR|10=255|8=FIX.4.2|9=61|35=0|34=21|49=BANZAI|52=20171202-10:55:34.597|56=FIXIMULATOR|10=018|8=FIX.4.2|9=61|35=0|34=22|49=BANZAI|52=20171202-10:56:04.593|56=FIXIMULATOR|10=013|8=FIX.4.2|9=61|35=0|34=23|49=BANZAI|52=20171202-10:56:34.592|56=FIXIMULATOR|10=016|8=FIX.4.2|9=61|35=0|34=24|49=BANZAI|52=20171202-10:57:04.592|56=FIXIMULATOR|10=015|8=FIX.4.2|9=61|35=0|34=25|49=BANZAI|52=20171202-10:57:34.591|56=FIXIMULATOR|10=018|8=FIX.4.2|9=61|35=0|34=26|49=BANZAI|52=20171202-10:58:04.587|56=FIXIMULATOR|10=022|8=FIX.4.2|9=61|35=0|34=27|49=BANZAI|52=20171202-10:58:34.585|56=FIXIMULATOR|10=024|8=FIX.4.2|9=61|35=0|34=28|49=BANZAI|52=20171202-10:59:04.587|56=FIXIMULATOR|10=025|8=FIX.4.2|9=61|35=0|34=29|49=BANZAI|52=20171202-10:59:34.582|56=FIXIMULATOR|10=024|8=FIX.4.2|9=61|35=0|34=30|49=BANZAI|52=20171202-11:00:04.581|56=FIXIMULATOR|10=255|8=FIX.4.2|9=61|35=0|34=31|49=BANZAI|52=20171202-11:00:34.580|56=FIXIMULATOR|10=002|8=FIX.4.2|9=61|35=0|34=32|49=BANZAI|52=20171202-11:01:04.575|56=FIXIMULATOR|10=005|8=FIX.4.2|9=61|35=0|34=33|49=BANZAI|52=20171202-11:01:34.575|56=FIXIMULATOR|10=009|8=FIX.4.2|9=61|35=0|34=34|49=BANZAI|52=20171202-11:02:04.574|56=FIXIMULATOR|10=007|8=FIX.4.2|9=61|35=0|34=35|49=BANZAI|52=20171202-11:02:34.572|56=FIXIMULATOR|10=009|8=FIX.4.2|9=61|35=0|34=36|49=BANZAI|52=20171202-11:03:04.571|56=FIXIMULATOR|10=007|8=FIX.4.2|9=61|35=0|34=37|49=BANZAI|52=20171202-11:03:34.568|56=FIXIMULATOR|10=017|8=FIX.4.2|9=61|35=0|34=38|49=BANZAI|52=20171202-11:04:04.567|56=FIXIMULATOR|10=015|8=FIX.4.2|9=61|35=0|34=39|49=BANZAI|52=20171202-11:04:34.566|56=FIXIMULATOR|10=018|8=FIX.4.2|9=61|35=0|34=40|49=BANZAI|52=20171202-11:05:04.564|56=FIXIMULATOR|10=006|8=FIX.4.2|9=61|35=0|34=41|49=BANZAI|52=20171202-11:05:34.562|56=FIXIMULATOR|10=008|8=FIX.4.2|9=61|35=0|34=42|49=BANZAI|52=20171202-11:06:04.560|56=FIXIMULATOR|10=005|8=FIX.4.2|9=61|35=0|34=43|49=BANZAI|52=20171202-11:06:34.559|56=FIXIMULATOR|10=017|8=FIX.4.2|9=61|35=0|34=44|49=BANZAI|52=20171202-11:07:04.554|56=FIXIMULATOR|10=011|8=FIX.4.2|9=61|35=0|34=45|49=BANZAI|52=20171202-11:07:34.557|56=FIXIMULATOR|10=018|8=FIX.4.2|9=61|35=0|34=46|49=BANZAI|52=20171202-11:08:04.557|56=FIXIMULATOR|10=017|8=FIX.4.2|9=61|35=0|34=47|49=BANZAI|52=20171202-11:08:34.551|56=FIXIMULATOR|10=015|8=FIX.4.2|9=61|35=0|34=48|49=BANZAI|52=20171202-11:09:04.554|56=FIXIMULATOR|10=017|8=FIX.4.2|9=61|35=0|34=49|49=BANZAI|52=20171202-11:09:34.547|56=FIXIMULATOR|10=023|8=FIX.4.2|9=61|35=0|34=50|49=BANZAI|52=20171202-11:10:04.548|56=FIXIMULATOR|10=005|8=FIX.4.2|9=61|35=0|34=51|49=BANZAI|52=20171202-11:10:34.550|56=FIXIMULATOR|10=002|8=FIX.4.2|9=61|35=0|34=52|49=BANZAI|52=20171202-11:11:04.544|56=FIXIMULATOR|10=004|8=FIX.4.2|9=61|35=0|34=53|49=BANZAI|52=20171202-11:11:34.545|56=FIXIMULATOR|10=009|8=FIX.4.2|9=61|35=0|34=54|49=BANZAI|52=20171202-11:12:04.544|56=FIXIMULATOR|10=007|8=FIX.4.2|9=61|35=0|34=55|49=BANZAI|52=20171202-11:12:34.538|56=FIXIMULATOR|10=014|8=FIX.4.2|9=61|35=0|34=56|49=BANZAI|52=20171202-11:13:04.540|56=FIXIMULATOR|10=006|8=FIX.4.2|9=61|35=0|34=57|49=BANZAI|52=20171202-11:13:34.533|56=FIXIMULATOR|10=012|8=FIX.4.2|9=61|35=0|34=58|49=BANZAI|52=20171202-11:14:04.538|56=FIXIMULATOR|10=016|8=FIX.4.2|9=61|35=0|34=59|49=BANZAI|52=20171202-11:14:34.535|56=FIXIMULATOR|10=017|8=FIX.4.2|9=61|35=0|34=60|49=BANZAI|52=20171202-11:15:04.535|56=FIXIMULATOR|10=007|8=FIX.4.2|9=61|35=0|34=61|49=BANZAI|52=20171202-11:15:34.531|56=FIXIMULATOR|10=007|8=FIX.4.2|9=61|35=0|34=62|49=BANZAI|52=20171202-11:16:04.533|56=FIXIMULATOR|10=008|8=FIX.4.2|9=61|35=0|34=63|49=BANZAI|52=20171202-11:16:34.529|56=FIXIMULATOR|10=017|8=FIX.4.2|9=61|35=0|34=64|49=BANZAI|52=20171202-11:17:04.529|56=FIXIMULATOR|10=016|8=FIX.4.2|9=61|35=0|34=65|49=BANZAI|52=20171202-11:17:34.528|56=FIXIMULATOR|10=019|8=FIX.4.2|9=61|35=0|34=66|49=BANZAI|52=20171202-11:18:04.525|56=FIXIMULATOR|10=015|8=FIX.4.2|9=61|35=0|34=67|49=BANZAI|52=20171202-11:18:34.518|56=FIXIMULATOR|10=021|8=FIX.4.2|9=61|35=0|34=68|49=BANZAI|52=20171202-11:19:04.521|56=FIXIMULATOR|10=014|8=FIX.4.2|9=61|35=0|34=69|49=BANZAI|52=20171202-11:19:34.520|56=FIXIMULATOR|10=017|8=FIX.4.2|9=61|35=0|34=70|49=BANZAI|52=20171202-11:20:04.515|56=FIXIMULATOR|10=002|8=FIX.4.2|9=61|35=0|34=71|49=BANZAI|52=20171202-11:20:34.513|56=FIXIMULATOR|10=004|8=FIX.4.2|9=61|35=0|34=72|49=BANZAI|52=20171202-11:21:04.514|56=FIXIMULATOR|10=004|8=FIX.4.2|9=61|35=0|34=73|49=BANZAI|52=20171202-11:21:34.514|56=FIXIMULATOR|10=008|8=FIX.4.2|9=61|35=0|34=74|49=BANZAI|52=20171202-11:22:04.511|56=FIXIMULATOR|10=004|8=FIX.4.2|9=61|35=0|34=75|49=BANZAI|52=20171202-11:22:34.512|56=FIXIMULATOR|10=009|8=FIX.4.2|9=61|35=0|34=76|49=BANZAI|52=20171202-11:23:04.505|56=FIXIMULATOR|10=010|8=FIX.4.2|9=61|35=0|34=77|49=BANZAI|52=20171202-11:23:34.503|56=FIXIMULATOR|10=012|8=FIX.4.2|9=61|35=0|34=78|49=BANZAI|52=20171202-11:24:04.506|56=FIXIMULATOR|10=014|8=FIX.4.2|9=61|35=0|34=79|49=BANZAI|52=20171202-11:24:34.504|56=FIXIMULATOR|10=016|8=FIX.4.2|9=61|35=0|34=80|49=BANZAI|52=20171202-11:25:04.502|56=FIXIMULATOR|10=004|8=FIX.4.2|9=61|35=0|34=81|49=BANZAI|52=20171202-11:25:34.501|56=FIXIMULATOR|10=007|8=FIX.4.2|9=61|35=0|34=82|49=BANZAI|52=20171202-11:26:04.497|56=FIXIMULATOR|10=020|8=FIX.4.2|9=61|35=0|34=83|49=BANZAI|52=20171202-11:26:34.499|56=FIXIMULATOR|10=026|8=FIX.4.2|9=61|35=0|34=84|49=BANZAI|52=20171202-11:27:04.495|56=FIXIMULATOR|10=021|8=FIX.4.2|9=61|35=0|34=85|49=BANZAI|52=20171202-11:27:34.494|56=FIXIMULATOR|10=024|8=FIX.4.2|9=61|35=0|34=86|49=BANZAI|52=20171202-11:28:04.491|56=FIXIMULATOR|10=020|8=FIX.4.2|9=61|35=0|34=87|49=BANZAI|52=20171202-11:28:34.487|56=FIXIMULATOR|10=029|8=FIX.4.2|9=61|35=0|34=88|49=BANZAI|52=20171202-11:29:04.491|56=FIXIMULATOR|10=023|8=FIX.4.2|9=61|35=0|34=89|49=BANZAI|52=20171202-11:29:34.488|56=FIXIMULATOR|10=033|8=FIX.4.2|9=61|35=0|34=90|49=BANZAI|52=20171202-11:30:04.487|56=FIXIMULATOR|10=013|8=FIX.4.2|9=61|35=0|34=91|49=BANZAI|52=20171202-11:30:34.485|56=FIXIMULATOR|10=015|8=FIX.4.2|9=61|35=0|34=92|49=BANZAI|52=20171202-11:31:04.480|56=FIXIMULATOR|10=009|8=FIX.4.2|9=61|35=0|34=93|49=BANZAI|52=20171202-11:31:34.476|56=FIXIMULATOR|10=018|8=FIX.4.2|9=61|35=0|34=94|49=BANZAI|52=20171202-11:32:04.476|56=FIXIMULATOR|10=017|8=FIX.4.2|9=61|35=0|34=95|49=BANZAI|52=20171202-11:32:34.475|56=FIXIMULATOR|10=020|8=FIX.4.2|9=61|35=0|34=96|49=BANZAI|52=20171202-11:33:04.472|56=FIXIMULATOR|10=016|8=FIX.4.2|9=61|35=0|34=97|49=BANZAI|52=20171202-11:33:34.475|56=FIXIMULATOR|10=023|8=FIX.4.2|9=61|35=0|34=98|49=BANZAI|52=20171202-11:34:04.473|56=FIXIMULATOR|10=020|8=FIX.4.2|9=61|35=0|34=99|49=BANZAI|52=20171202-11:34:34.473|56=FIXIMULATOR|10=024|8=FIX.4.2|9=62|35=0|34=100|49=BANZAI|52=20171202-11:35:04.470|56=FIXIMULATOR|10=051|8=FIX.4.2|9=62|35=0|34=101|49=BANZAI|52=20171202-11:35:34.466|56=FIXIMULATOR|10=060|8=FIX.4.2|9=62|35=0|34=102|49=BANZAI|52=20171202-11:36:04.461|56=FIXIMULATOR|10=054|8=FIX.4.2|9=62|35=0|34=103|49=BANZAI|52=20171202-11:36:34.459|56=FIXIMULATOR|10=065|8=FIX.4.2|9=62|35=0|34=104|49=BANZAI|52=20171202-11:37:04.455|56=FIXIMULATOR|10=060|8=FIX.4.2|9=62|35=0|34=105|49=BANZAI|52=20171202-11:37:34.458|56=FIXIMULATOR|10=067|8=FIX.4.2|9=62|35=0|34=106|49=BANZAI|52=20171202-11:38:04.452|56=FIXIMULATOR|10=060|