8=FIX.4.2|9=84|35=A|34=1|49=FIXIMULATOR|52=20171208-07:56:24.567|56=OMPInitiator|98=0|108=30|141=Y|10=047|8=FIX.4.2|9=66|35=0|34=2|49=FIXIMULATOR|52=20171208-07:56:55.220|56=OMPInitiator|10=207|8=FIX.4.2|9=66|35=0|34=3|49=FIXIMULATOR|52=20171208-07:57:25.222|56=OMPInitiator|10=208|8=FIX.4.2|9=178|35=8|34=4|49=FIXIMULATOR|52=20171208-07:57:48.569|56=OMPInitiator|6=0|11=asf1235axaf|14=0|17=E1512719868531|20=0|31=0|32=0|37=O1512719841662|38=10|39=0|54=1|55=EBAY|150=0|151=10|10=064|8=FIX.4.2|9=66|35=0|34=5|49=FIXIMULATOR|52=20171208-07:58:19.229|56=OMPInitiator|10=221|8=FIX.4.2|9=66|35=0|34=6|49=FIXIMULATOR|52=20171208-07:58:49.230|56=OMPInitiator|10=217|8=FIX.4.2|9=66|35=0|34=7|49=FIXIMULATOR|52=20171208-07:59:19.232|56=OMPInitiator|10=218|8=FIX.4.2|9=66|35=0|34=8|49=FIXIMULATOR|52=20171208-07:59:50.230|56=OMPInitiator|10=212|8=FIX.4.2|9=66|35=0|34=9|49=FIXIMULATOR|52=20171208-08:00:20.231|56=OMPInitiator|10=198|8=FIX.4.2|9=67|35=0|34=10|49=FIXIMULATOR|52=20171208-08:00:50.232|56=OMPInitiator|10=243|8=FIX.4.2|9=67|35=0|34=11|49=FIXIMULATOR|52=20171208-08:01:20.237|56=OMPInitiator|10=247|8=FIX.4.2|9=67|35=0|34=12|49=FIXIMULATOR|52=20171208-08:01:51.235|56=OMPInitiator|10=250|8=FIX.4.2|9=67|35=0|34=13|49=FIXIMULATOR|52=20171208-08:02:21.240|56=OMPInitiator|10=245|8=FIX.4.2|9=67|35=0|34=14|49=FIXIMULATOR|52=20171208-08:02:52.242|56=OMPInitiator|10=252|8=FIX.4.2|9=67|35=0|34=15|49=FIXIMULATOR|52=20171208-08:03:22.243|56=OMPInitiator|10=252|8=FIX.4.2|9=67|35=0|34=16|49=FIXIMULATOR|52=20171208-08:03:52.245|56=OMPInitiator|10=002|8=FIX.4.2|9=67|35=0|34=17|49=FIXIMULATOR|52=20171208-08:04:22.253|56=OMPInitiator|10=000|8=FIX.4.2|9=67|35=0|34=18|49=FIXIMULATOR|52=20171208-08:04:53.245|56=OMPInitiator|10=006|8=FIX.4.2|9=67|35=0|34=19|49=FIXIMULATOR|52=20171208-08:05:24.244|56=OMPInitiator|10=005|8=FIX.4.2|9=67|35=0|34=20|49=FIXIMULATOR|52=20171208-08:05:54.250|56=OMPInitiator|10=253|8=FIX.4.2|9=67|35=0|34=21|49=FIXIMULATOR|52=20171208-08:06:25.252|56=OMPInitiator|10=255|8=FIX.4.2|9=67|35=0|34=22|49=FIXIMULATOR|52=20171208-08:06:55.253|56=OMPInitiator|10=004|8=FIX.4.2|9=67|35=0|34=23|49=FIXIMULATOR|52=20171208-08:07:26.254|56=OMPInitiator|10=005|8=FIX.4.2|9=67|35=0|34=24|49=FIXIMULATOR|52=20171208-08:07:57.254|56=OMPInitiator|10=010|8=FIX.4.2|9=67|35=0|34=25|49=FIXIMULATOR|52=20171208-08:08:27.258|56=OMPInitiator|10=013|8=FIX.4.2|9=67|35=0|34=26|49=FIXIMULATOR|52=20171208-08:08:58.259|56=OMPInitiator|10=019|8=FIX.4.2|9=67|35=0|34=27|49=FIXIMULATOR|52=20171208-08:09:28.260|56=OMPInitiator|10=010|8=FIX.4.2|9=67|35=0|34=28|49=FIXIMULATOR|52=20171208-08:09:58.262|56=OMPInitiator|10=016|8=FIX.4.2|9=67|35=0|34=29|49=FIXIMULATOR|52=20171208-08:10:28.263|56=OMPInitiator|10=007|8=FIX.4.2|9=67|35=0|34=30|49=FIXIMULATOR|52=20171208-08:10:59.263|56=OMPInitiator|10=003|8=FIX.4.2|9=67|35=0|34=31|49=FIXIMULATOR|52=20171208-08:11:29.266|56=OMPInitiator|10=005|8=FIX.4.2|9=67|35=0|34=32|49=FIXIMULATOR|52=20171208-08:12:00.264|56=OMPInitiator|10=250|8=FIX.4.2|9=67|35=0|34=33|49=FIXIMULATOR|52=20171208-08:12:30.268|56=OMPInitiator|10=002|8=FIX.4.2|9=67|35=0|34=34|49=FIXIMULATOR|52=20171208-08:13:00.268|56=OMPInitiator|10=001|8=FIX.4.2|9=67|35=0|34=35|49=FIXIMULATOR|52=20171208-08:13:30.270|56=OMPInitiator|10=254|8=FIX.4.2|9=67|35=0|34=36|49=FIXIMULATOR|52=20171208-08:14:00.272|56=OMPInitiator|10=255|8=FIX.4.2|9=67|35=0|34=37|49=FIXIMULATOR|52=20171208-08:14:30.272|56=OMPInitiator|10=003|8=FIX.4.2|9=67|35=0|34=38|49=FIXIMULATOR|52=20171208-08:15:00.276|56=OMPInitiator|10=006|8=FIX.4.2|9=67|35=0|34=39|49=FIXIMULATOR|52=20171208-08:15:30.277|56=OMPInitiator|10=011|8=FIX.4.2|9=67|35=0|34=40|49=FIXIMULATOR|52=20171208-08:16:01.276|56=OMPInitiator|10=001|8=FIX.4.2|9=67|35=0|34=41|49=FIXIMULATOR|52=20171208-08:16:31.280|56=OMPInitiator|10=000|8=FIX.4.2|9=67|35=0|34=42|49=FIXIMULATOR|52=20171208-08:17:01.282|56=OMPInitiator|10=001|8=FIX.4.2|9=67|35=0|34=43|49=FIXIMULATOR|52=20171208-08:17:31.283|56=OMPInitiator|10=006|8=FIX.4.2|9=67|35=0|34=44|49=FIXIMULATOR|52=20171208-08:18:02.282|56=OMPInitiator|10=005|8=FIX.4.2|9=67|35=0|34=45|49=FIXIMULATOR|52=20171208-08:18:32.286|56=OMPInitiator|10=013|8=FIX.4.2|9=67|35=0|34=46|49=FIXIMULATOR|52=20171208-08:19:02.291|56=OMPInitiator|10=008|8=FIX.4.2|9=79|35=A|34=47|49=FIXIMULATOR|52=20171208-08:34:48.257|56=OMPInitiator|98=0|108=30|10=063|8=FIX.4.2|9=67|35=0|34=48|49=FIXIMULATOR|52=20171208-08:35:18.722|56=OMPInitiator|10=014|8=FIX.4.2|9=67|35=0|34=49|49=FIXIMULATOR|52=20171208-08:35:48.725|56=OMPInitiator|10=021|8=FIX.4.2|9=67|35=0|34=50|49=FIXIMULATOR|52=20171208-08:36:18.725|56=OMPInitiator|10=011|8=FIX.4.2|9=67|35=0|34=51|49=FIXIMULATOR|52=20171208-08:36:48.731|56=OMPInitiator|10=012|8=FIX.4.2|9=67|35=0|34=52|49=FIXIMULATOR|52=20171208-08:37:19.729|56=OMPInitiator|10=019|8=FIX.4.2|9=67|35=0|34=53|49=FIXIMULATOR|52=20171208-08:37:49.732|56=OMPInitiator|10=017|8=FIX.4.2|9=67|35=0|34=54|49=FIXIMULATOR|52=20171208-08:38:19.735|56=OMPInitiator|10=019|8=FIX.4.2|9=67|35=0|34=55|49=FIXIMULATOR|52=20171208-08:38:50.736|56=OMPInitiator|10=016|8=FIX.4.2|9=67|35=0|34=56|49=FIXIMULATOR|52=20171208-08:39:21.738|56=OMPInitiator|10=018|8=FIX.4.2|9=67|35=0|34=57|49=FIXIMULATOR|52=20171208-08:39:52.739|56=OMPInitiator|10=024|8=FIX.4.2|9=67|35=0|34=58|49=FIXIMULATOR|52=20171208-08:40:22.741|56=OMPInitiator|10=007|8=FIX.4.2|9=67|35=0|34=59|49=FIXIMULATOR|52=20171208-08:40:53.740|56=OMPInitiator|10=011|8=FIX.4.2|9=67|35=0|34=60|49=FIXIMULATOR|52=20171208-08:41:23.743|56=OMPInitiator|10=004|8=FIX.4.2|9=67|35=0|34=61|49=FIXIMULATOR|52=20171208-08:41:53.743|56=OMPInitiator|10=008|8=FIX.4.2|9=67|35=0|34=62|49=FIXIMULATOR|52=20171208-08:42:23.746|56=OMPInitiator|10=010|8=FIX.4.2|9=67|35=0|34=63|49=FIXIMULATOR|52=20171208-08:42:54.745|56=OMPInitiator|10=014|8=FIX.4.2|9=67|35=0|34=64|49=FIXIMULATOR|52=20171208-08:43:24.747|56=OMPInitiator|10=015|8=FIX.4.2|9=67|35=0|34=65|49=FIXIMULATOR|52=20171208-08:43:54.750|56=OMPInitiator|10=013|8=FIX.4.2|9=67|35=0|34=66|49=FIXIMULATOR|52=20171208-08:44:24.752|56=OMPInitiator|10=014|8=FIX.4.2|9=67|35=0|34=67|49=FIXIMULATOR|52=20171208-08:44:54.753|56=OMPInitiator|10=019|8=FIX.4.2|9=67|35=0|34=68|49=FIXIMULATOR|52=20171208-08:45:25.754|56=OMPInitiator|10=020|8=FIX.4.2|9=67|35=0|34=69|49=FIXIMULATOR|52=20171208-08:45:56.756|56=OMPInitiator|10=027|8=FIX.4.2|9=67|35=0|34=70|49=FIXIMULATOR|52=20171208-08:46:27.754|56=OMPInitiator|10=016|8=FIX.4.2|9=67|35=0|34=71|49=FIXIMULATOR|52=20171208-08:46:57.758|56=OMPInitiator|10=024|8=FIX.4.2|9=67|35=0|34=72|49=FIXIMULATOR|52=20171208-08:47:28.756|56=OMPInitiator|10=022|8=FIX.4.2|9=67|35=0|34=73|49=FIXIMULATOR|52=20171208-08:47:58.760|56=OMPInitiator|10=021|8=FIX.4.2|9=67|35=0|34=74|49=FIXIMULATOR|52=20171208-08:48:28.763|56=OMPInitiator|10=023|8=FIX.4.2|9=67|35=0|34=75|49=FIXIMULATOR|52=20171208-08:48:58.897|56=OMPInitiator|10=035|8=FIX.4.2|9=67|35=0|34=76|49=FIXIMULATOR|52=20171208-08:49:28.898|56=OMPInitiator|10=035|8=FIX.4.2|9=67|35=0|34=77|49=FIXIMULATOR|52=20171208-08:49:58.897|56=OMPInitiator|10=038|8=FIX.4.2|9=79|35=A|34=78|49=FIXIMULATOR|52=20171208-09:23:51.397|56=OMPInitiator|98=0|108=30|10=065|8=FIX.4.2|9=67|35=0|34=79|49=FIXIMULATOR|52=20171208-09:24:21.814|56=OMPInitiator|10=013|8=FIX.4.2|9=67|35=0|34=80|49=FIXIMULATOR|52=20171208-09:24:52.816|56=OMPInitiator|10=011|8=FIX.4.2|9=67|35=0|34=81|49=FIXIMULATOR|52=20171208-09:25:23.815|56=OMPInitiator|10=010|8=FIX.4.2|9=67|35=0|34=82|49=FIXIMULATOR|52=20171208-09:25:54.814|56=OMPInitiator|10=014|8=FIX.4.2|9=67|35=0|34=83|49=FIXIMULATOR|52=20171208-09:26:24.817|56=OMPInitiator|10=016|8=FIX.4.2|9=67|35=0|34=84|49=FIXIMULATOR|52=20171208-09:26:55.817|56=OMPInitiator|10=021|8=FIX.4.2|9=67|35=0|34=85|49=FIXIMULATOR|52=20171208-09:27:26.814|56=OMPInitiator|10=018|8=FIX.4.2|9=67|35=0|34=86|49=FIXIMULATOR|52=20171208-09:27:56.815|56=OMPInitiator|10=023|8=FIX.4.2|9=67|35=0|34=87|49=FIXIMULATOR|52=20171208-09:28:26.816|56=OMPInitiator|10=023|8=FIX.4.2|9=67|35=0|34=88|49=FIXIMULATOR|52=20171208-09:28:56.820|56=OMPInitiator|10=022|8=FIX.4.2|9=67|35=0|34=89|49=FIXIMULATOR|52=20171208-09:29:27.821|56=OMPInitiator|10=023|8=FIX.4.2|9=67|35=0|34=90|49=FIXIMULATOR|52=20171208-09:29:58.822|56=OMPInitiator|10=020|8=FIX.4.2|9=67|35=0|34=91|49=FIXIMULATOR|52=20171208-09:30:29.818|56=OMPInitiator|10=016|8=FIX.4.2|9=67|35=0|34=92|49=FIXIMULATOR|52=20171208-09:30:59.819|56=OMPInitiator|10=021|8=FIX.4.2|9=67|35=0|34=93|49=FIXIMULATOR|52=20171208-09:31:29.819|56=OMPInitiator|10=020|8=FIX.4.2|9=67|35=0|34=94|49=FIXIMULATOR|52=20171208-09:31:59.825|56=OMPInitiator|10=021|8=FIX.4.2|9=67|35=0|34=95|49=FIXIMULATOR|52=20171208-09:32:30.822|56=OMPInitiator|10=009|8=FIX.4.2|9=67|35=0|34=96|49=FIXIMULATOR|52=20171208-09:33:00.824|56=OMPInitiator|10=010|8=FIX.4.2|9=67|35=0|34=97|49=FIXIMULATOR|52=20171208-09:33:30.824|56=OMPInitiator|10=014|8=FIX.4.2|9=67|35=0|34=98|49=FIXIMULATOR|52=20171208-09:34:00.825|56=OMPInitiator|10=014|8=FIX.4.2|9=67|35=0|34=99|49=FIXIMULATOR|52=20171208-09:34:31.825|56=OMPInitiator|10=019|8=FIX.4.2|9=68|35=0|34=100|49=FIXIMULATOR|52=20171208-09:35:01.828|56=OMPInitiator|10=052|8=FIX.4.2|9=68|35=0|34=101|49=FIXIMULATOR|52=20171208-09:35:31.828|56=OMPInitiator|10=056|8=FIX.4.2|9=68|35=0|34=102|49=FIXIMULATOR|52=20171208-09:36:01.830|56=OMPInitiator|10=048|8=FIX.4.2|9=68|35=0|34=103|49=FIXIMULATOR|52=20171208-09:36:31.831|56=OMPInitiator|10=053|8=FIX.4.2|9=68|35=0|34=104|49=FIXIMULATOR|52=20171208-09:37:01.830|56=OMPInitiator|10=051|8=FIX.4.2|9=68|35=0|34=105|49=FIXIMULATOR|52=20171208-09:37:32.827|56=OMPInitiator|10=062|