8=FIX.4.2|9=84|35=A|34=1|49=FIXIMULATOR|52=20171206-11:25:20.568|56=OMPInitiator|98=0|108=30|141=Y|10=033|8=FIX.4.2|9=66|35=0|34=2|49=FIXIMULATOR|52=20171206-11:25:50.957|56=OMPInitiator|10=208|8=FIX.4.2|9=66|35=0|34=3|49=FIXIMULATOR|52=20171206-11:26:20.959|56=OMPInitiator|10=209|8=FIX.4.2|9=192|35=6|34=4|49=FIXIMULATOR|52=20171206-11:26:50.199|56=OMPInitiator|15=USD|22=5|23=I1512559610145|27=50300|28=N|44=22.732|48=HP.N|54=1|55=HP|62=20171206-11:56:50.198|107=HELMERICH & PAYNE|130=Y|10=135|8=FIX.4.2|9=195|35=6|34=5|49=FIXIMULATOR|52=20171206-11:26:51.254|56=OMPInitiator|15=USD|22=5|23=I1512559611255|27=78000|28=N|44=39.3822|48=CSE.N|54=1|55=CSE|62=20171206-11:56:51.254|107=CAPITALSOURCE INC|130=N|10=147|8=FIX.4.2|9=196|35=6|34=6|49=FIXIMULATOR|52=20171206-11:26:52.259|56=OMPInitiator|15=USD|22=5|23=I1512559612261|27=56000|28=N|44=37.2564|48=SNY.N|54=1|55=SNY|62=20171206-11:56:52.259|107=SANOFI-AVENTIS-ADR|130=Y|10=038|8=FIX.4.2|9=188|35=6|34=7|49=FIXIMULATOR|52=20171206-11:26:53.264|56=OMPInitiator|15=USD|22=5|23=I1512559613267|27=28900|28=N|44=98.7283|48=DOV.N|54=2|55=DOV|62=20171206-11:56:53.264|107=DOVER CORP|130=Y|10=227|8=FIX.4.2|9=186|35=6|34=8|49=FIXIMULATOR|52=20171206-11:26:54.269|56=OMPInitiator|15=USD|22=5|23=I1512559614273|27=58500|28=N|44=34.7116|48=CB.N|54=1|55=CB|62=20171206-11:56:54.268|107=CHUBB CORP|130=Y|10=246|8=FIX.4.2|9=206|35=6|34=9|49=FIXIMULATOR|52=20171206-11:26:55.274|56=OMPInitiator|15=USD|22=5|23=I1512559615279|27=97100|28=N|44=72.879|48=MRBK.OQ|54=1|55=MRBK|62=20171206-11:56:55.274|107=MERCANTILE BANKSHARES CORP|130=Y|10=238|8=FIX.4.2|9=191|35=6|34=10|49=FIXIMULATOR|52=20171206-11:26:56.277|56=OMPInitiator|15=USD|22=5|23=I1512559616284|27=73600|28=N|44=75.0563|48=MOLX.OQ|54=1|55=MOLX|62=20171206-11:56:56.277|107=MOLEX INC|130=N|10=168|8=FIX.4.2|9=196|35=6|34=11|49=FIXIMULATOR|52=20171206-11:26:57.284|56=OMPInitiator|15=USD|22=5|23=I1512559617291|27=34200|28=N|44=28.328|48=DTE.N|54=2|55=DTE|62=20171206-11:56:57.284|107=DTE ENERGY COMPANY|130=Y|10=228|8=FIX.4.2|9=76|35=0|34=12|49=FIXIMULATOR|52=20171206-11:27:06.273|56=OMPInitiator|112=TEST|10=014|8=FIX.4.2|9=67|35=0|34=13|49=FIXIMULATOR|52=20171206-11:27:36.960|56=OMPInitiator|10=003|8=FIX.4.2|9=67|35=0|34=14|49=FIXIMULATOR|52=20171206-11:28:06.961|56=OMPInitiator|10=003|8=FIX.4.2|9=67|35=0|34=15|49=FIXIMULATOR|52=20171206-11:28:36.962|56=OMPInitiator|10=008|8=FIX.4.2|9=67|35=0|34=16|49=FIXIMULATOR|52=20171206-11:29:06.963|56=OMPInitiator|10=008|8=FIX.4.2|9=67|35=0|34=17|49=FIXIMULATOR|52=20171206-11:29:36.963|56=OMPInitiator|10=012|8=FIX.4.2|9=67|35=0|34=18|49=FIXIMULATOR|52=20171206-11:30:06.963|56=OMPInitiator|10=002|8=FIX.4.2|9=67|35=0|34=19|49=FIXIMULATOR|52=20171206-11:30:36.964|56=OMPInitiator|10=007|8=FIX.4.2|9=67|35=0|34=20|49=FIXIMULATOR|52=20171206-11:31:06.964|56=OMPInitiator|10=253|8=FIX.4.2|9=67|35=0|34=21|49=FIXIMULATOR|52=20171206-11:31:36.966|56=OMPInitiator|10=003|8=FIX.4.2|9=67|35=0|34=22|49=FIXIMULATOR|52=20171206-11:32:06.966|56=OMPInitiator|10=002|8=FIX.4.2|9=67|35=0|34=23|49=FIXIMULATOR|52=20171206-11:32:37.967|56=OMPInitiator|10=008|8=FIX.4.2|9=67|35=0|34=24|49=FIXIMULATOR|52=20171206-11:33:07.968|56=OMPInitiator|10=008|8=FIX.4.2|9=67|35=0|34=25|49=FIXIMULATOR|52=20171206-11:33:37.968|56=OMPInitiator|10=012|8=FIX.4.2|9=67|35=0|34=26|49=FIXIMULATOR|52=20171206-11:34:08.969|56=OMPInitiator|10=013|8=FIX.4.2|9=67|35=0|34=27|49=FIXIMULATOR|52=20171206-11:34:38.969|56=OMPInitiator|10=017|8=FIX.4.2|9=67|35=0|34=28|49=FIXIMULATOR|52=20171206-11:35:09.970|56=OMPInitiator|10=009|8=FIX.4.2|9=67|35=0|34=29|49=FIXIMULATOR|52=20171206-11:35:39.970|56=OMPInitiator|10=013|8=FIX.4.2|9=67|35=0|34=30|49=FIXIMULATOR|52=20171206-11:36:09.971|56=OMPInitiator|10=004|8=FIX.4.2|9=67|35=0|34=31|49=FIXIMULATOR|52=20171206-11:36:39.971|56=OMPInitiator|10=008|8=FIX.4.2|9=67|35=0|34=32|49=FIXIMULATOR|52=20171206-11:37:09.971|56=OMPInitiator|10=007|8=FIX.4.2|9=67|35=0|34=33|49=FIXIMULATOR|52=20171206-11:37:39.973|56=OMPInitiator|10=013|8=FIX.4.2|9=67|35=0|34=34|49=FIXIMULATOR|52=20171206-11:38:09.974|56=OMPInitiator|10=013|8=FIX.4.2|9=67|35=0|34=35|49=FIXIMULATOR|52=20171206-11:38:39.974|56=OMPInitiator|10=017|8=FIX.4.2|9=67|35=0|34=36|49=FIXIMULATOR|52=20171206-11:39:10.975|56=OMPInitiator|10=009|8=FIX.4.2|9=67|35=0|34=37|49=FIXIMULATOR|52=20171206-11:39:41.972|56=OMPInitiator|10=011|8=FIX.4.2|9=67|35=0|34=38|49=FIXIMULATOR|52=20171206-11:40:11.972|56=OMPInitiator|10=001|8=FIX.4.2|9=67|35=0|34=39|49=FIXIMULATOR|52=20171206-11:40:41.974|56=OMPInitiator|10=007|8=FIX.4.2|9=67|35=0|34=40|49=FIXIMULATOR|52=20171206-11:41:11.975|56=OMPInitiator|10=254|8=FIX.4.2|9=67|35=0|34=41|49=FIXIMULATOR|52=20171206-11:41:41.975|56=OMPInitiator|10=002|8=FIX.4.2|9=67|35=0|34=42|49=FIXIMULATOR|52=20171206-11:42:12.978|56=OMPInitiator|10=005|8=FIX.4.2|9=67|35=0|34=43|49=FIXIMULATOR|52=20171206-11:42:42.980|56=OMPInitiator|10=002|8=FIX.4.2|9=67|35=0|34=44|49=FIXIMULATOR|52=20171206-11:43:13.978|56=OMPInitiator|10=009|8=FIX.4.2|9=67|35=0|34=45|49=FIXIMULATOR|52=20171206-11:43:43.981|56=OMPInitiator|10=007|8=FIX.4.2|9=67|35=0|34=46|49=FIXIMULATOR|52=20171206-11:44:13.981|56=OMPInitiator|10=006|8=FIX.4.2|9=79|35=A|34=47|49=FIXIMULATOR|52=20171206-12:31:19.668|56=OMPInitiator|98=0|108=30|10=057|8=FIX.4.2|9=67|35=0|34=48|49=FIXIMULATOR|52=20171206-12:31:50.369|56=OMPInitiator|10=006|8=FIX.4.2|9=67|35=0|34=49|49=FIXIMULATOR|52=20171206-12:32:21.370|56=OMPInitiator|10=254|8=FIX.4.2|9=67|35=0|34=50|49=FIXIMULATOR|52=20171206-12:32:52.135|56=OMPInitiator|10=249|8=FIX.4.2|9=67|35=0|34=51|49=FIXIMULATOR|52=20171206-12:33:22.135|56=OMPInitiator|10=248|8=FIX.4.2|9=67|35=0|34=52|49=FIXIMULATOR|52=20171206-12:33:52.136|56=OMPInitiator|10=253|8=FIX.4.2|9=67|35=0|34=53|49=FIXIMULATOR|52=20171206-12:34:23.132|56=OMPInitiator|10=249|8=FIX.4.2|9=67|35=0|34=54|49=FIXIMULATOR|52=20171206-12:34:53.137|56=OMPInitiator|10=002|8=FIX.4.2|9=67|35=0|34=55|49=FIXIMULATOR|52=20171206-12:35:24.136|56=OMPInitiator|10=001|8=FIX.4.2|9=67|35=0|34=56|49=FIXIMULATOR|52=20171206-12:35:54.137|56=OMPInitiator|10=006|8=FIX.4.2|9=67|35=0|34=57|49=FIXIMULATOR|52=20171206-12:36:25.139|56=OMPInitiator|10=008|8=FIX.4.2|9=67|35=0|34=58|49=FIXIMULATOR|52=20171206-12:36:55.140|56=OMPInitiator|10=004|8=FIX.4.2|9=67|35=0|34=59|49=FIXIMULATOR|52=20171206-12:37:26.138|56=OMPInitiator|10=011|8=FIX.4.2|9=67|35=0|34=60|49=FIXIMULATOR|52=20171206-12:37:56.138|56=OMPInitiator|10=006|8=FIX.4.2|9=67|35=0|34=61|49=FIXIMULATOR|52=20171206-12:38:26.142|56=OMPInitiator|10=000|8=FIX.4.2|9=67|35=0|34=62|49=FIXIMULATOR|52=20171206-12:38:56.142|56=OMPInitiator|10=004|8=FIX.4.2|9=67|35=0|34=63|49=FIXIMULATOR|52=20171206-12:39:26.143|56=OMPInitiator|10=004|8=FIX.4.2|9=67|35=0|34=64|49=FIXIMULATOR|52=20171206-12:39:56.144|56=OMPInitiator|10=009|8=FIX.4.2|9=67|35=0|34=65|49=FIXIMULATOR|52=20171206-12:40:26.144|56=OMPInitiator|10=255|8=FIX.4.2|9=67|35=0|34=66|49=FIXIMULATOR|52=20171206-12:40:57.145|56=OMPInitiator|10=005|8=FIX.4.2|9=67|35=0|34=67|49=FIXIMULATOR|52=20171206-12:41:28.146|56=OMPInitiator|10=006|8=FIX.4.2|9=67|35=0|34=68|49=FIXIMULATOR|52=20171206-12:41:59.147|56=OMPInitiator|10=012|8=FIX.4.2|9=67|35=0|34=69|49=FIXIMULATOR|52=20171206-12:42:29.148|56=OMPInitiator|10=012|8=FIX.4.2|9=67|35=0|34=70|49=FIXIMULATOR|52=20171206-12:43:00.146|56=OMPInitiator|10=248|8=FIX.4.2|9=67|35=0|34=71|49=FIXIMULATOR|52=20171206-12:43:30.149|56=OMPInitiator|10=255|8=FIX.4.2|9=67|35=0|34=72|49=FIXIMULATOR|52=20171206-12:44:01.148|56=OMPInitiator|10=254|8=FIX.4.2|9=67|35=0|34=73|49=FIXIMULATOR|52=20171206-12:44:32.147|56=OMPInitiator|10=002|8=FIX.4.2|9=67|35=0|34=74|49=FIXIMULATOR|52=20171206-12:45:02.152|56=OMPInitiator|10=253|8=FIX.4.2|9=79|35=A|34=75|49=FIXIMULATOR|52=20171206-12:54:50.574|56=OMPInitiator|98=0|108=30|10=054|8=FIX.4.2|9=67|35=0|34=76|49=FIXIMULATOR|52=20171206-12:55:21.186|56=OMPInitiator|10=008|8=FIX.4.2|9=79|35=A|34=77|49=FIXIMULATOR|52=20171206-12:58:08.534|56=OMPInitiator|98=0|108=30|10=059|8=FIX.4.2|9=67|35=0|34=78|49=FIXIMULATOR|52=20171206-12:58:39.193|56=OMPInitiator|10=020|8=FIX.4.2|9=67|35=0|34=79|49=FIXIMULATOR|52=20171206-12:59:09.196|56=OMPInitiator|10=022|8=FIX.4.2|9=67|35=0|34=80|49=FIXIMULATOR|52=20171206-12:59:39.453|56=OMPInitiator|10=013|8=FIX.4.2|9=67|35=0|34=81|49=FIXIMULATOR|52=20171206-13:00:09.454|56=OMPInitiator|10=255|8=FIX.4.2|9=67|35=0|34=82|49=FIXIMULATOR|52=20171206-13:00:40.199|56=OMPInitiator|10=001|8=FIX.4.2|9=67|35=0|34=83|49=FIXIMULATOR|52=20171206-13:01:11.198|56=OMPInitiator|10=000|8=FIX.4.2|9=67|35=0|34=84|49=FIXIMULATOR|52=20171206-13:01:41.201|56=OMPInitiator|10=245|8=FIX.4.2|9=67|35=0|34=85|49=FIXIMULATOR|52=20171206-13:02:11.201|56=OMPInitiator|10=244|8=FIX.4.2|9=67|35=0|34=86|49=FIXIMULATOR|52=20171206-13:02:42.199|56=OMPInitiator|10=009|8=FIX.4.2|9=67|35=0|34=87|49=FIXIMULATOR|52=20171206-13:03:12.202|56=OMPInitiator|10=249|8=FIX.4.2|9=67|35=0|34=88|49=FIXIMULATOR|52=20171206-13:03:42.203|56=OMPInitiator|10=254|8=FIX.4.2|9=79|35=A|34=89|49=FIXIMULATOR|52=20171206-13:04:06.460|56=OMPInitiator|98=0|108=30|10=050|8=FIX.4.2|9=79|35=A|34=90|49=FIXIMULATOR|52=20171206-13:04:19.749|56=OMPInitiator|98=0|108=30|10=056|8=FIX.4.2|9=67|35=0|34=91|49=FIXIMULATOR|52=20171206-13:04:50.201|56=OMPInitiator|10=246|8=FIX.4.2|9=67|35=0|34=92|49=FIXIMULATOR|52=20171206-13:05:20.722|56=OMPInitiator|10=253|8=FIX.4.2|9=79|35=A|34=93|49=FIXIMULATOR|52=20171206-13:05:55.432|56=OMPInitiator|98=0|108=30|10=049|8=FIX.4.2|9=67|35=0|34=94|49=FIXIMULATOR|52=20171206-13:06:26.196|56=OMPInitiator|10=011|8=FIX.4.2|9=67|35=0|34=95|49=FIXIMULATOR|52=20171206-13:06:56.197|56=OMPInitiator|10=016|8=FIX.4.2|9=67|35=0|34=96|49=FIXIMULATOR|52=20171206-13:07:26.197|56=OMPInitiator|10=015|8=FIX.4.2|9=67|35=0|34=97|49=FIXIMULATOR|52=20171206-13:07:56.390|56=OMPInitiator|10=014|8=FIX.4.2|9=67|35=0|34=98|49=FIXIMULATOR|52=20171206-13:08:27.191|56=OMPInitiator|10=013|8=FIX.4.2|9=67|35=0|34=99|49=FIXIMULATOR|52=20171206-13:08:58.188|56=OMPInitiator|10=024|8=FIX.4.2|9=68|35=0|34=100|49=FIXIMULATOR|52=20171206-13:09:28.189|56=OMPInitiator|10=055|8=FIX.4.2|9=68|35=0|34=101|49=FIXIMULATOR|52=20171206-13:09:58.190|56=OMPInitiator|10=051|8=FIX.4.2|9=68|35=0|34=102|49=FIXIMULATOR|52=20171206-13:10:29.188|56=OMPInitiator|10=049|8=FIX.4.2|9=68|35=0|34=103|49=FIXIMULATOR|52=20171206-13:11:00.183|56=OMPInitiator|10=035|8=FIX.4.2|9=68|35=0|34=104|49=FIXIMULATOR|52=20171206-13:11:30.184|56=OMPInitiator|10=040|8=FIX.4.2|9=68|35=0|34=105|49=FIXIMULATOR|52=20171206-13:12:01.182|56=OMPInitiator|10=038|8=FIX.4.2|9=68|35=0|34=106|49=FIXIMULATOR|52=20171206-13:12:32.178|56=OMPInitiator|10=048|8=FIX.4.2|9=68|35=0|34=107|49=FIXIMULATOR|52=20171206-13:13:02.179|56=OMPInitiator|10=048|8=FIX.4.2|9=68|35=0|34=108|49=FIXIMULATOR|52=20171206-13:13:33.178|56=OMPInitiator|10=052|8=FIX.4.2|9=68|35=0|34=109|49=FIXIMULATOR|52=20171206-13:14:04.177|56=OMPInitiator|10=051|8=FIX.4.2|9=68|35=0|34=110|49=FIXIMULATOR|52=20171206-13:14:35.175|56=OMPInitiator|10=045|8=FIX.4.2|9=68|35=0|34=111|49=FIXIMULATOR|52=20171206-13:15:05.175|56=OMPInitiator|10=044|8=FIX.4.2|9=68|35=0|34=112|49=FIXIMULATOR|52=20171206-13:15:36.174|56=OMPInitiator|10=048|8=FIX.4.2|9=68|35=0|34=113|49=FIXIMULATOR|52=20171206-13:16:06.174|56=OMPInitiator|10=047|8=FIX.4.2|9=68|35=0|34=114|49=FIXIMULATOR|52=20171206-13:16:37.168|56=OMPInitiator|10=055|8=FIX.4.2|9=68|35=0|34=115|49=FIXIMULATOR|52=20171206-13:17:07.169|56=OMPInitiator|10=055|8=FIX.4.2|9=68|35=0|34=116|49=FIXIMULATOR|52=20171206-13:17:37.169|56=OMPInitiator|10=059|8=FIX.4.2|9=68|35=0|34=117|49=FIXIMULATOR|52=20171206-13:18:07.171|56=OMPInitiator|10=051|8=FIX.4.2|9=68|35=0|34=118|49=FIXIMULATOR|52=20171206-13:18:38.170|56=OMPInitiator|10=055|8=FIX.4.2|9=68|35=0|34=119|49=FIXIMULATOR|52=20171206-13:19:09.165|56=OMPInitiator|10=059|8=FIX.4.2|9=68|35=0|34=120|49=FIXIMULATOR|52=20171206-13:19:39.174|56=OMPInitiator|10=054|8=FIX.4.2|9=68|35=0|34=121|49=FIXIMULATOR|52=20171206-13:20:09.174|56=OMPInitiator|10=044|8=FIX.4.2|9=80|35=A|34=122|49=FIXIMULATOR|52=20171206-13:38:53.258|56=OMPInitiator|98=0|108=30|10=092|8=FIX.4.2|9=68|35=0|34=123|49=FIXIMULATOR|52=20171206-13:39:23.487|56=OMPInitiator|10=059|8=FIX.4.2|9=68|35=0|34=124|49=FIXIMULATOR|52=20171206-13:39:54.485|56=OMPInitiator|10=062|8=FIX.4.2|9=68|35=0|34=125|49=FIXIMULATOR|52=20171206-13:40:24.486|56=OMPInitiator|10=053|8=FIX.4.2|9=68|35=0|34=126|49=FIXIMULATOR|52=20171206-13:40:55.486|56=OMPInitiator|10=058|8=FIX.4.2|9=68|35=0|34=127|49=FIXIMULATOR|52=20171206-13:41:26.484|56=OMPInitiator|10=056|8=FIX.4.2|9=68|35=0|34=128|49=FIXIMULATOR|52=20171206-13:41:56.485|56=OMPInitiator|10=061|8=FIX.4.2|9=68|35=0|34=129|49=FIXIMULATOR|52=20171206-13:42:27.485|56=OMPInitiator|10=061|8=FIX.4.2|9=68|35=0|34=130|49=FIXIMULATOR|52=20171206-13:42:57.485|56=OMPInitiator|10=056|8=FIX.4.2|9=68|35=0|34=131|49=FIXIMULATOR|52=20171206-13:43:27.485|56=OMPInitiator|10=055|8=FIX.4.2|9=68|35=0|34=132|49=FIXIMULATOR|52=20171206-13:43:57.485|56=OMPInitiator|10=059|8=FIX.4.2|9=68|35=0|34=133|49=FIXIMULATOR|52=20171206-13:44:28.485|56=OMPInitiator|10=059|8=FIX.4.2|9=68|35=0|34=134|49=FIXIMULATOR|52=20171206-13:44:59.480|56=OMPInitiator|10=059|8=FIX.4.2|9=68|35=0|34=135|49=FIXIMULATOR|52=20171206-13:45:29.484|56=OMPInitiator|10=062|8=FIX.4.2|9=68|35=0|34=136|49=FIXIMULATOR|52=20171206-13:46:00.481|56=OMPInitiator|10=050|8=FIX.4.2|9=68|35=0|34=137|49=FIXIMULATOR|52=20171206-13:46:31.484|56=OMPInitiator|10=058|8=FIX.4.2|9=68|35=0|34=138|49=FIXIMULATOR|52=20171206-13:47:02.480|56=OMPInitiator|10=054|8=FIX.4.2|9=68|35=0|34=139|49=FIXIMULATOR|52=20171206-13:47:32.480|56=OMPInitiator|10=058|8=FIX.4.2|9=68|35=0|34=140|49=FIXIMULATOR|52=20171206-13:48:02.480|56=OMPInitiator|10=048|8=FIX.4.2|9=68|35=0|34=141|49=FIXIMULATOR|52=20171206-13:48:32.484|56=OMPInitiator|10=056|8=FIX.4.2|9=68|35=0|34=142|49=FIXIMULATOR|52=20171206-13:49:03.484|56=OMPInitiator|10=056|8=FIX.4.2|9=68|35=0|34=143|49=FIXIMULATOR|52=20171206-13:49:34.481|56=OMPInitiator|10=058|8=FIX.4.2|9=68|35=0|34=144|49=FIXIMULATOR|52=20171206-13:50:05.483|56=OMPInitiator|10=051|8=FIX.4.2|9=68|35=0|34=145|49=FIXIMULATOR|52=20171206-13:50:35.485|56=OMPInitiator|10=057|8=FIX.4.2|9=68|35=0|34=146|49=FIXIMULATOR|52=20171206-13:51:06.485|56=OMPInitiator|10=057|8=FIX.4.2|9=68|35=0|34=147|49=FIXIMULATOR|52=20171206-13:51:36.485|56=OMPInitiator|10=061|8=FIX.4.2|9=68|35=0|34=148|49=FIXIMULATOR|52=20171206-13:52:06.485|56=OMPInitiator|10=060|8=FIX.4.2|9=68|35=0|34=149|49=FIXIMULATOR|52=20171206-13:52:37.484|56=OMPInitiator|10=064|8=FIX.4.2|9=68|35=0|34=150|49=FIXIMULATOR|52=20171206-13:53:08.486|56=OMPInitiator|10=057|8=FIX.4.2|9=68|35=0|34=151|49=FIXIMULATOR|52=20171206-13:53:38.486|56=OMPInitiator|10=061|8=FIX.4.2|9=68|35=0|34=152|49=FIXIMULATOR|52=20171206-13:54:08.987|56=OMPInitiator|10=066|8=FIX.4.2|9=68|35=0|34=153|49=FIXIMULATOR|52=20171206-13:54:38.990|56=OMPInitiator|10=064|8=FIX.4.2|9=68|35=0|34=154|49=FIXIMULATOR|52=20171206-13:55:09.986|56=OMPInitiator|10=069|8=FIX.4.2|9=68|35=0|34=155|49=FIXIMULATOR|52=20171206-13:55:39.990|56=OMPInitiator|10=068|8=FIX.4.2|9=68|35=0|34=156|49=FIXIMULATOR|52=20171206-13:56:10.987|56=OMPInitiator|10=065|8=FIX.4.2|9=68|35=0|34=157|49=FIXIMULATOR|52=20171206-13:56:40.987|56=OMPInitiator|10=069|8=FIX.4.2|9=68|35=0|34=158|49=FIXIMULATOR|52=20171206-13:57:10.992|56=OMPInitiator|10=064|8=FIX.4.2|9=68|35=0|34=159|49=FIXIMULATOR|52=20171206-13:57:41.993|56=OMPInitiator|10=070|8=FIX.4.2|9=68|35=0|34=160|49=FIXIMULATOR|52=20171206-13:58:12.993|56=OMPInitiator|10=061|8=FIX.4.2|9=68|35=0|34=161|49=FIXIMULATOR|52=20171206-13:58:42.993|56=OMPInitiator|10=065|8=FIX.4.2|9=68|35=0|34=162|49=FIXIMULATOR|52=20171206-13:59:12.994|56=OMPInitiator|10=065|8=FIX.4.2|9=68|35=0|34=163|49=FIXIMULATOR|52=20171206-13:59:42.994|56=OMPInitiator|10=069|8=FIX.4.2|9=68|35=0|34=164|49=FIXIMULATOR|52=20171206-14:00:12.995|56=OMPInitiator|10=055|8=FIX.4.2|9=68|35=0|34=165|49=FIXIMULATOR|52=20171206-14:00:42.995|56=OMPInitiator|10=059|8=FIX.4.2|9=68|35=0|34=166|49=FIXIMULATOR|52=20171206-14:01:13.991|56=OMPInitiator|10=055|8=FIX.4.2|9=68|35=0|34=167|49=FIXIMULATOR|52=20171206-14:01:43.996|56=OMPInitiator|10=064|8=FIX.4.2|9=68|35=0|34=168|49=FIXIMULATOR|52=20171206-14:02:13.997|56=OMPInitiator|10=064|8=FIX.4.2|9=68|35=0|34=169|49=FIXIMULATOR|52=20171206-14:02:44.997|56=OMPInitiator|10=069|8=FIX.4.2|9=68|35=0|34=170|49=FIXIMULATOR|52=20171206-14:03:14.998|56=OMPInitiator|10=060|8=FIX.4.2|9=68|35=0|34=171|49=FIXIMULATOR|52=20171206-14:03:45.998|56=OMPInitiator|10=065|8=FIX.4.2|9=80|35=A|34=172|49=FIXIMULATOR|52=20171206-14:04:02.984|56=OMPInitiator|98=0|108=30|10=091|8=FIX.4.2|9=68|35=0|34=173|49=FIXIMULATOR|52=20171206-14:04:32.999|56=OMPInitiator|10=065|8=FIX.4.2|9=68|35=0|34=174|49=FIXIMULATOR|52=20171206-14:05:02.999|56=OMPInitiator|10=064|8=FIX.4.2|9=68|35=0|34=175|49=FIXIMULATOR|52=20171206-14:05:33.000|56=OMPInitiator|10=042|8=FIX.4.2|9=68|35=0|34=176|49=FIXIMULATOR|52=20171206-14:06:03.000|56=OMPInitiator|10=041|8=FIX.4.2|9=68|35=0|34=177|49=FIXIMULATOR|52=20171206-14:06:33.947|56=OMPInitiator|10=065|8=FIX.4.2|9=68|35=0|34=178|49=FIXIMULATOR|52=20171206-14:07:03.947|56=OMPInitiator|10=064|8=FIX.4.2|9=80|35=A|34=179|49=FIXIMULATOR|52=20171206-14:14:07.007|56=OMPInitiator|98=0|108=30|10=090|8=FIX.4.2|9=80|35=A|34=180|49=FIXIMULATOR|52=20171206-14:14:34.730|56=OMPInitiator|98=0|108=30|10=085|8=FIX.4.2|9=68|35=0|34=181|49=FIXIMULATOR|52=20171206-14:15:05.472|56=OMPInitiator|10=052|8=FIX.4.2|9=68|35=0|34=182|49=FIXIMULATOR|52=20171206-14:15:36.470|56=OMPInitiator|10=055|8=FIX.4.2|9=178|35=8|34=183|49=FIXIMULATOR|52=20171206-14:15:39.605|56=OMPInitiator|6=0|11=asf1235axaf|14=0|17=E1512569739573|20=0|31=0|32=0|37=O1512569692074|38=0|39=4|54=1|55=EBAY|150=4|151=0|10=069|8=FIX.4.2|9=68|35=0|34=184|49=FIXIMULATOR|52=20171206-14:16:10.474|56=OMPInitiator|10=054|8=FIX.4.2|9=68|35=0|34=185|49=FIXIMULATOR|52=20171206-14:16:40.474|56=OMPInitiator|10=058|8=FIX.4.2|9=68|35=0|34=186|49=FIXIMULATOR|52=20171206-14:17:11.473|56=OMPInitiator|10=057|8=FIX.4.2|9=68|35=0|34=187|49=FIXIMULATOR|52=20171206-14:17:41.477|56=OMPInitiator|10=065|8=FIX.4.2|9=68|35=0|34=188|49=FIXIMULATOR|52=20171206-14:18:12.477|56=OMPInitiator|10=065|8=FIX.4.2|9=68|35=0|34=189|49=FIXIMULATOR|52=20171206-14:18:42.478|56=OMPInitiator|10=070|8=FIX.4.2|9=68|35=0|34=190|49=FIXIMULATOR|52=20171206-14:19:13.477|56=OMPInitiator|10=060|8=FIX.4.2|9=68|35=0|34=191|49=FIXIMULATOR|52=20171206-14:19:43.477|56=OMPInitiator|10=064|8=FIX.4.2|9=68|35=0|34=192|49=FIXIMULATOR|52=20171206-14:20:14.476|56=OMPInitiator|10=054|8=FIX.4.2|9=68|35=0|34=193|49=FIXIMULATOR|52=20171206-14:20:44.480|56=OMPInitiator|10=053|8=FIX.4.2|9=68|35=0|34=194|49=FIXIMULATOR|52=20171206-14:21:14.480|56=OMPInitiator|10=052|8=FIX.4.2|9=68|35=0|34=195|49=FIXIMULATOR|52=20171206-14:21:44.481|56=OMPInitiator|10=057|8=FIX.4.2|9=68|35=0|34=196|49=FIXIMULATOR|52=20171206-14:22:14.481|56=OMPInitiator|10=056|8=FIX.4.2|9=68|35=0|34=197|49=FIXIMULATOR|52=20171206-14:22:44.482|56=OMPInitiator|10=061|8=FIX.4.2|9=68|35=0|34=198|49=FIXIMULATOR|52=20171206-14:23:15.479|56=OMPInitiator|10=067|8=FIX.4.2|9=68|35=0|34=199|49=FIXIMULATOR|52=20171206-14:23:46.481|56=OMPInitiator|10=065|8=FIX.4.2|9=68|35=0|34=200|49=FIXIMULATOR|52=20171206-14:24:16.482|56=OMPInitiator|10=047|8=FIX.4.2|9=68|35=0|34=201|49=FIXIMULATOR|52=20171206-14:24:47.482|56=OMPInitiator|10=052|8=FIX.4.2|9=68|35=0|34=202|49=FIXIMULATOR|52=20171206-14:25:18.479|56=OMPInitiator|10=058|8=FIX.4.2|9=68|35=0|34=203|49=FIXIMULATOR|52=20171206-14:25:48.485|56=OMPInitiator|10=059|8=FIX.4.2|9=68|35=0|34=204|49=FIXIMULATOR|52=20171206-14:26:18.485|56=OMPInitiator|10=058|8=FIX.4.2|9=68|35=0|34=205|49=FIXIMULATOR|52=20171206-14:26:49.481|56=OMPInitiator|10=059|8=FIX.4.2|9=68|35=0|34=206|49=FIXIMULATOR|52=20171206-14:27:19.484|56=OMPInitiator|10=061|8=FIX.4.2|9=68|35=0|34=207|49=FIXIMULATOR|52=20171206-14:27:49.485|56=OMPInitiator|10=066|8=FIX.4.2|9=68|35=0|34=208|49=FIXIMULATOR|52=20171206-14:28:19.485|56=OMPInitiator|10=065|8=FIX.4.2|9=68|35=0|34=209|49=FIXIMULATOR|52=20171206-14:28:49.486|56=OMPInitiator|10=070|8=FIX.4.2|9=68|35=0|34=210|49=FIXIMULATOR|52=20171206-14:29:19.486|56=OMPInitiator|10=060|8=FIX.4.2|9=68|35=0|34=211|49=FIXIMULATOR|52=20171206-14:29:49.487|56=OMPInitiator|10=065|8=FIX.4.2|9=68|35=0|34=212|49=FIXIMULATOR|52=20171206-14:30:19.487|56=OMPInitiator|10=055|8=FIX.4.2|9=68|35=0|34=213|49=FIXIMULATOR|52=20171206-14:30:49.488|56=OMPInitiator|10=060|8=FIX.4.2|9=68|35=0|34=214|49=FIXIMULATOR|52=20171206-14:31:20.486|56=OMPInitiator|10=049|8=FIX.4.2|9=68|35=0|34=215|49=FIXIMULATOR|52=20171206-14:31:50.486|56=OMPInitiator|10=053|8=FIX.4.2|9=68|35=0|34=216|49=FIXIMULATOR|52=20171206-14:32:20.489|56=OMPInitiator|10=055|8=FIX.4.2|9=68|35=0|34=217|49=FIXIMULATOR|52=20171206-14:32:50.492|56=OMPInitiator|10=053|8=FIX.4.2|9=68|35=0|34=218|49=FIXIMULATOR|52=20171206-14:33:21.490|56=OMPInitiator|10=051|8=FIX.4.2|9=68|35=0|34=219|49=FIXIMULATOR|52=20171206-14:33:51.490|56=OMPInitiator|10=055|8=FIX.4.2|9=68|35=0|34=220|49=FIXIMULATOR|52=20171206-14:34:21.493|56=OMPInitiator|10=048|8=FIX.4.2|9=68|35=0|34=221|49=FIXIMULATOR|52=20171206-14:34:51.494|56=OMPInitiator|10=053|8=FIX.4.2|9=68|35=0|34=222|49=FIXIMULATOR|52=20171206-14:35:22.493|56=OMPInitiator|10=052|8=FIX.4.2|9=68|35=0|34=223|49=FIXIMULATOR|52=20171206-14:35:52.493|56=OMPInitiator|10=056|8=FIX.4.2|9=68|35=0|34=224|49=FIXIMULATOR|52=20171206-14:36:22.494|56=OMPInitiator|10=056|8=FIX.4.2|9=68|35=0|34=225|49=FIXIMULATOR|52=20171206-14:36:52.494|56=OMPInitiator|10=060|8=FIX.4.2|9=68|35=0|34=226|49=FIXIMULATOR|52=20171206-14:37:22.495|56=OMPInitiator|10=060|8=FIX.4.2|9=68|35=0|34=227|49=FIXIMULATOR|52=20171206-14:37:52.496|56=OMPInitiator|10=065|8=FIX.4.2|9=68|35=0|34=228|49=FIXIMULATOR|52=20171206-14:38:22.497|56=OMPInitiator|10=065|8=FIX.4.2|9=68|35=0|34=229|49=FIXIMULATOR|52=20171206-14:38:52.696|56=OMPInitiator|10=070|8=FIX.4.2|9=68|35=0|34=230|49=FIXIMULATOR|52=20171206-14:39:22.697|56=OMPInitiator|10=061|8=FIX.4.2|9=68|35=0|34=231|49=FIXIMULATOR|52=20171206-14:39:52.698|56=OMPInitiator|10=066|8=FIX.4.2|9=68|35=0|34=232|49=FIXIMULATOR|52=20171206-14:40:22.698|56=OMPInitiator|10=056|8=FIX.4.2|9=68|35=0|34=233|49=FIXIMULATOR|52=20171206-14:40:52.699|56=OMPInitiator|10=061|8=FIX.4.2|9=68|35=0|34=234|49=FIXIMULATOR|52=20171206-14:41:22.700|56=OMPInitiator|10=043|8=FIX.4.2|9=68|35=0|34=235|49=FIXIMULATOR|52=20171206-14:41:52.700|56=OMPInitiator|10=047|8=FIX.4.2|9=68|35=0|34=236|49=FIXIMULATOR|52=20171206-14:42:22.700|56=OMPInitiator|10=046|8=FIX.4.2|9=68|35=0|34=237|49=FIXIMULATOR|52=20171206-14:42:52.700|56=OMPInitiator|10=050|8=FIX.4.2|9=68|35=0|34=238|49=FIXIMULATOR|52=20171206-14:43:23.503|56=OMPInitiator|10=051|8=FIX.4.2|9=68|35=0|34=239|49=FIXIMULATOR|52=20171206-14:43:54.503|56=OMPInitiator|10=056|8=FIX.4.2|9=68|35=0|34=240|49=FIXIMULATOR|52=20171206-14:44:25.502|56=OMPInitiator|10=046|8=FIX.4.2|9=68|35=0|34=241|49=FIXIMULATOR|52=20171206-14:44:55.503|56=OMPInitiator|10=051|8=FIX.4.2|9=68|35=0|34=242|49=FIXIMULATOR|52=20171206-14:45:25.504|56=OMPInitiator|10=051|8=FIX.4.2|9=68|35=0|34=243|49=FIXIMULATOR|52=20171206-14:45:55.504|56=OMPInitiator|10=055|8=FIX.4.2|9=68|35=0|34=244|49=FIXIMULATOR|52=20171206-14:46:25.504|56=OMPInitiator|10=054|8=FIX.4.2|9=68|35=0|34=245|49=FIXIMULATOR|52=20171206-14:46:55.504|56=OMPInitiator|10=058|8=FIX.4.2|9=68|35=0|34=246|49=FIXIMULATOR|52=20171206-14:47:25.505|56=OMPInitiator|10=058|8=FIX.4.2|9=68|35=0|34=247|49=FIXIMULATOR|52=20171206-14:47:55.506|56=OMPInitiator|10=063|8=FIX.4.2|9=68|35=0|34=248|49=FIXIMULATOR|52=20171206-14:48:25.508|56=OMPInitiator|10=064|8=FIX.4.2|9=68|35=0|34=249|49=FIXIMULATOR|52=20171206-14:48:56.509|56=OMPInitiator|10=070|8=FIX.4.2|9=68|35=0|34=250|49=FIXIMULATOR|52=20171206-14:49:26.509|56=OMPInitiator|10=060|8=FIX.4.2|9=68|35=0|34=251|49=FIXIMULATOR|52=20171206-14:49:56.509|56=OMPInitiator|10=064|8=FIX.4.2|9=68|35=0|34=252|49=FIXIMULATOR|52=20171206-14:50:26.509|56=OMPInitiator|10=054|8=FIX.4.2|9=68|35=0|34=253|49=FIXIMULATOR|52=20171206-14:50:56.511|56=OMPInitiator|10=051|8=FIX.4.2|9=68|35=0|34=254|49=FIXIMULATOR|52=20171206-14:51:27.510|56=OMPInitiator|10=050|8=FIX.4.2|9=68|35=0|34=255|49=FIXIMULATOR|52=20171206-14:51:57.510|56=OMPInitiator|10=054|8=FIX.4.2|9=68|35=0|34=256|49=FIXIMULATOR|52=20171206-14:52:28.511|56=OMPInitiator|10=055|8=FIX.4.2|9=68|35=0|34=257|49=FIXIMULATOR|52=20171206-14:52:58.511|56=OMPInitiator|10=059|8=FIX.4.2|9=68|35=0|34=258|49=FIXIMULATOR|52=20171206-14:53:28.512|56=OMPInitiator|10=059|8=FIX.4.2|9=68|35=0|34=259|49=FIXIMULATOR|52=20171206-14:53:58.512|56=OMPInitiator|10=063|8=FIX.4.2|9=68|35=0|34=260|49=FIXIMULATOR|52=20171206-14:54:28.512|56=OMPInitiator|10=053|8=FIX.4.2|9=68|35=0|34=261|49=FIXIMULATOR|52=20171206-14:54:58.513|56=OMPInitiator|10=058|8=FIX.4.2|9=68|35=0|34=262|49=FIXIMULATOR|52=20171206-14:55:28.514|56=OMPInitiator|10=058|8=FIX.4.2|9=68|35=0|34=263|49=FIXIMULATOR|52=20171206-14:55:58.514|56=OMPInitiator|10=062|8=FIX.4.2|9=68|35=0|34=264|49=FIXIMULATOR|52=20171206-14:56:28.515|56=OMPInitiator|10=062|8=FIX.4.2|9=68|35=0|34=265|49=FIXIMULATOR|52=20171206-14:56:58.516|56=OMPInitiator|10=067|8=FIX.4.2|9=68|35=0|34=266|49=FIXIMULATOR|52=20171206-14:57:28.516|56=OMPInitiator|10=066|8=FIX.4.2|9=68|35=0|34=267|49=FIXIMULATOR|52=20171206-14:57:58.516|56=OMPInitiator|10=070|8=FIX.4.2|9=68|35=0|34=268|49=FIXIMULATOR|52=20171206-14:58:28.519|56=OMPInitiator|10=072|8=FIX.4.2|9=80|35=A|34=269|49=FIXIMULATOR|52=20171206-15:01:52.527|56=OMPInitiator|98=0|108=30|10=094|8=FIX.4.2|9=68|35=0|34=270|49=FIXIMULATOR|52=20171206-15:02:22.901|56=OMPInitiator|10=044|8=FIX.4.2|9=68|35=0|34=271|49=FIXIMULATOR|52=20171206-15:02:52.902|56=OMPInitiator|10=049|8=FIX.4.2|9=68|35=0|34=272|49=FIXIMULATOR|52=20171206-15:03:23.319|56=OMPInitiator|10=051|8=FIX.4.2|9=68|35=0|34=273|49=FIXIMULATOR|52=20171206-15:03:53.333|56=OMPInitiator|10=051|8=FIX.4.2|9=68|35=0|34=274|49=FIXIMULATOR|52=20171206-15:04:23.369|56=OMPInitiator|10=059|8=FIX.4.2|9=68|35=0|34=275|49=FIXIMULATOR|52=20171206-15:04:53.903|56=OMPInitiator|10=057|8=FIX.4.2|9=68|35=0|34=276|49=FIXIMULATOR|52=20171206-15:05:24.900|56=OMPInitiator|10=054|8=FIX.4.2|9=68|35=0|34=277|49=FIXIMULATOR|52=20171206-15:05:54.901|56=OMPInitiator|10=059|8=FIX.4.2|9=68|35=0|34=278|49=FIXIMULATOR|52=20171206-15:06:25.901|56=OMPInitiator|10=059|8=FIX.4.2|9=68|35=0|34=279|49=FIXIMULATOR|52=20171206-15:06:55.905|56=OMPInitiator|10=067|8=FIX.4.2|9=68|35=0|34=280|49=FIXIMULATOR|52=20171206-15:07:26.902|56=OMPInitiator|10=055|8=FIX.4.2|9=68|35=0|34=281|49=FIXIMULATOR|52=20171206-15:07:56.907|56=OMPInitiator|10=064|8=FIX.4.2|9=68|35=0|34=282|49=FIXIMULATOR|52=20171206-15:08:27.903|56=OMPInitiator|10=060|8=FIX.4.2|9=68|35=0|34=283|49=FIXIMULATOR|52=20171206-15:08:57.904|56=OMPInitiator|10=065|8=FIX.4.2|9=68|35=0|34=284|49=FIXIMULATOR|52=20171206-15:09:27.906|56=OMPInitiator|10=066|8=FIX.4.2|9=68|35=0|34=285|49=FIXIMULATOR|52=20171206-15:09:57.907|56=OMPInitiator|10=071|8=FIX.4.2|9=68|35=0|34=286|49=FIXIMULATOR|52=20171206-15:10:27.910|56=OMPInitiator|10=055|8=FIX.4.2|9=68|35=0|34=287|49=FIXIMULATOR|52=20171206-15:10:58.907|56=OMPInitiator|10=066|8=FIX.4.2|9=68|35=0|34=288|49=FIXIMULATOR|52=20171206-15:11:28.909|56=OMPInitiator|10=067|8=FIX.4.2|9=68|35=0|34=289|49=FIXIMULATOR|52=20171206-15:11:59.908|56=OMPInitiator|10=071|8=FIX.4.2|9=68|35=0|34=290|49=FIXIMULATOR|52=20171206-15:12:30.909|56=OMPInitiator|10=054|8=FIX.4.2|9=68|35=0|34=291|49=FIXIMULATOR|52=20171206-15:13:01.911|56=OMPInitiator|10=047|8=FIX.4.2|9=68|35=0|34=292|49=FIXIMULATOR|52=20171206-15:13:32.910|56=OMPInitiator|10=051|8=FIX.4.2|9=68|35=0|34=293|49=FIXIMULATOR|52=20171206-15:14:02.914|56=OMPInitiator|10=054|8=FIX.4.2|9=68|35=0|34=294|49=FIXIMULATOR|52=20171206-15:14:33.910|56=OMPInitiator|10=055|8=FIX.4.2|9=68|35=0|34=295|49=FIXIMULATOR|52=20171206-15:15:03.915|56=OMPInitiator|10=059|8=FIX.4.2|9=68|35=0|34=296|49=FIXIMULATOR|52=20171206-15:15:33.915|56=OMPInitiator|10=063|8=FIX.4.2|9=68|35=0|34=297|49=FIXIMULATOR|52=20171206-15:16:03.916|56=OMPInitiator|10=063|8=FIX.4.2|9=68|35=0|34=298|49=FIXIMULATOR|52=20171206-15:16:34.913|56=OMPInitiator|10=065|8=FIX.4.2|9=68|35=0|34=299|49=FIXIMULATOR|52=20171206-15:17:04.914|56=OMPInitiator|10=065|8=FIX.4.2|9=68|35=0|34=300|49=FIXIMULATOR|52=20171206-15:17:34.917|56=OMPInitiator|10=054|8=FIX.4.2|9=68|35=0|34=301|49=FIXIMULATOR|52=20171206-15:18:04.919|56=OMPInitiator|10=055|8=FIX.4.2|9=68|35=0|34=302|49=FIXIMULATOR|52=20171206-15:18:35.917|56=OMPInitiator|10=058|8=FIX.4.2|9=68|35=0|34=303|49=FIXIMULATOR|52=20171206-15:19:06.917|56=OMPInitiator|10=058|8=FIX.4.2|9=68|35=0|34=304|49=FIXIMULATOR|52=20171206-15:19:36.918|56=OMPInitiator|10=063|8=FIX.4.2|9=68|35=0|34=305|49=FIXIMULATOR|52=20171206-15:20:06.917|56=OMPInitiator|10=052|8=FIX.4.2|9=68|35=0|34=306|49=FIXIMULATOR|52=20171206-15:20:36.921|56=OMPInitiator|10=051|8=FIX.4.2|9=68|35=0|34=307|49=FIXIMULATOR|52=20171206-15:21:07.918|56=OMPInitiator|10=057|8=FIX.4.2|9=68|35=0|34=308|49=FIXIMULATOR|52=20171206-15:21:37.920|56=OMPInitiator|10=054|8=FIX.4.2|9=68|35=0|34=309|49=FIXIMULATOR|52=20171206-15:22:08.924|56=OMPInitiator|10=058|8=FIX.4.2|9=68|35=0|34=310|49=FIXIMULATOR|52=20171206-15:22:39.925|56=OMPInitiator|10=055|8=FIX.4.2|9=68|35=0|34=311|49=FIXIMULATOR|52=20171206-15:23:10.921|56=OMPInitiator|10=042|8=FIX.4.2|9=68|35=0|34=312|49=FIXIMULATOR|52=20171206-15:23:40.923|56=OMPInitiator|10=048|8=FIX.4.2|9=68|35=0|34=313|49=FIXIMULATOR|52=20171206-15:24:11.925|56=OMPInitiator|10=050|8=FIX.4.2|9=144|35=3|34=314|49=FIXIMULATOR|52=20171206-15:24:15.970|56=OMPInitiator|45=320|58=Value is incorrect (out of range) for this tag|371=54|372=D|373=5|10=036|8=FIX.4.2|9=68|35=0|34=315|49=FIXIMULATOR|52=20171206-15:24:46.360|56=OMPInitiator|10=053|8=FIX.4.2|9=68|35=0|34=316|49=FIXIMULATOR|52=20171206-15:25:16.924|56=OMPInitiator|10=058|8=FIX.4.2|9=68|35=0|34=317|49=FIXIMULATOR|52=20171206-15:25:46.924|56=OMPInitiator|10=062|8=FIX.4.2|9=202|35=8|34=318|49=FIXIMULATOR|52=20171206-15:26:01.855|56=OMPInitiator|6=0|11=04c1715a-ad66-b284-584a-ee2c5200c4fb|14=0|17=E1512573961803|20=0|31=0|32=0|37=O1512573913532|38=0|39=4|54=1|55=SPX|150=4|151=0|10=185|8=FIX.4.2|9=68|35=0|34=319|49=FIXIMULATOR|52=20171206-15:26:31.928|56=OMPInitiator|10=063|8=FIX.4.2|9=68|35=0|34=320|49=FIXIMULATOR|52=20171206-15:27:01.928|56=OMPInitiator|10=053|8=FIX.4.2|9=68|35=0|34=321|49=FIXIMULATOR|52=20171206-15:27:31.931|56=OMPInitiator|10=051|8=FIX.4.2|9=68|35=0|34=322|49=FIXIMULATOR|52=20171206-15:28:02.929|56=OMPInitiator|10=058|8=FIX.4.2|9=68|35=0|34=323|49=FIXIMULATOR|52=20171206-15:28:32.932|56=OMPInitiator|10=056|8=FIX.4.2|9=68|35=0|34=324|49=FIXIMULATOR|52=20171206-15:29:03.930|56=OMPInitiator|10=054|8=FIX.4.2|9=68|35=0|34=325|49=FIXIMULATOR|52=20171206-15:29:33.933|56=OMPInitiator|10=061|8=FIX.4.2|9=68|35=0|34=326|49=FIXIMULATOR|52=20171206-15:30:03.934|56=OMPInitiator|10=052|8=FIX.4.2|9=68|35=0|34=327|49=FIXIMULATOR|52=20171206-15:30:33.934|56=OMPInitiator|10=056|8=FIX.4.2|9=68|35=0|34=328|49=FIXIMULATOR|52=20171206-15:31:03.935|56=OMPInitiator|10=056|8=FIX.4.2|9=68|35=0|34=329|49=FIXIMULATOR|52=20171206-15:31:34.933|56=OMPInitiator|10=059|8=FIX.4.2|9=68|35=0|34=330|49=FIXIMULATOR|52=20171206-15:32:05.932|56=OMPInitiator|10=049|8=FIX.4.2|9=68|35=0|34=331|49=FIXIMULATOR|52=20171206-15:32:35.937|56=OMPInitiator|10=058|8=FIX.4.2|9=68|35=0|34=332|49=FIXIMULATOR|52=20171206-15:33:05.938|56=OMPInitiator|10=058|8=FIX.4.2|9=68|35=0|34=333|49=FIXIMULATOR|52=20171206-15:33:36.938|56=OMPInitiator|10=063|8=FIX.4.2|9=68|35=0|34=334|49=FIXIMULATOR|52=20171206-15:34:07.939|56=OMPInitiator|10=064|8=FIX.4.2|9=68|35=0|34=335|49=FIXIMULATOR|52=20171206-15:34:38.940|56=OMPInitiator|10=061|8=FIX.4.2|9=68|35=0|34=336|49=FIXIMULATOR|52=20171206-15:35:08.940|56=OMPInitiator|10=060|8=FIX.4.2|9=68|35=0|34=337|49=FIXIMULATOR|52=20171206-15:35:39.937|56=OMPInitiator|10=071|8=FIX.4.2|9=68|35=0|34=338|49=FIXIMULATOR|52=20171206-15:36:09.939|56=OMPInitiator|10=072|8=FIX.4.2|9=68|35=0|34=339|49=FIXIMULATOR|52=20171206-15:36:39.942|56=OMPInitiator|10=070|8=FIX.4.2|9=68|35=0|34=340|49=FIXIMULATOR|52=20171206-15:37:09.942|56=OMPInitiator|10=060|8=FIX.4.2|9=68|35=0|34=341|49=FIXIMULATOR|52=20171206-15:37:40.361|56=OMPInitiator|10=051|8=FIX.4.2|9=68|35=0|34=342|49=FIXIMULATOR|52=20171206-15:38:10.941|56=OMPInitiator|10=054|8=FIX.4.2|9=202|35=8|34=343|49=FIXIMULATOR|52=20171206-15:38:35.202|56=OMPInitiator|6=0|11=e75e2a75-b5af-3644-de43-8c3508d98690|14=0|17=E1512574715203|20=0|31=0|32=0|37=O1512574688839|38=0|39=4|54=1|55=SPX|150=4|151=0|10=132|8=FIX.4.2|9=68|35=0|34=344|49=FIXIMULATOR|52=20171206-15:39:05.940|56=OMPInitiator|10=060|8=FIX.4.2|9=68|35=0|34=345|49=FIXIMULATOR|52=20171206-15:39:35.944|56=OMPInitiator|10=068|8=FIX.4.2|9=68|35=0|34=346|49=FIXIMULATOR|52=20171206-15:40:05.945|56=OMPInitiator|10=059|8=FIX.4.2|9=68|35=0|34=347|49=FIXIMULATOR|52=20171206-15:40:36.945|56=OMPInitiator|10=064|8=FIX.4.2|9=68|35=0|34=348|49=FIXIMULATOR|52=20171206-15:41:07.942|56=OMPInitiator|10=061|8=FIX.4.2|9=68|35=0|34=349|49=FIXIMULATOR|52=20171206-15:41:37.945|56=OMPInitiator|10=068|8=FIX.4.2|9=68|35=0|34=350|49=FIXIMULATOR|52=20171206-15:42:07.947|56=OMPInitiator|10=060|8=FIX.4.2|9=68|35=0|34=351|49=FIXIMULATOR|52=20171206-15:42:37.948|56=OMPInitiator|10=065|8=FIX.4.2|9=68|35=0|34=352|49=FIXIMULATOR|52=20171206-15:43:08.949|56=OMPInitiator|10=066|8=FIX.4.2|9=68|35=0|34=353|49=FIXIMULATOR|52=20171206-15:43:39.340|56=OMPInitiator|10=056|8=FIX.4.2|9=68|35=0|34=354|49=FIXIMULATOR|52=20171206-15:44:09.341|56=OMPInitiator|10=056|8=FIX.4.2|9=68|35=0|34=355|49=FIXIMULATOR|52=20171206-15:44:39.345|56=OMPInitiator|10=064|8=FIX.4.2|9=68|35=0|34=356|49=FIXIMULATOR|52=20171206-15:45:09.948|56=OMPInitiator|10=072|8=FIX.4.2|9=68|35=0|34=357|49=FIXIMULATOR|52=20171206-15:45:39.948|56=OMPInitiator|10=076|8=FIX.4.2|9=68|35=0|34=358|49=FIXIMULATOR|52=20171206-15:46:10.952|56=OMPInitiator|10=062|8=FIX.4.2|9=68|35=0|34=359|49=FIXIMULATOR|52=20171206-15:46:41.949|56=OMPInitiator|10=073|8=FIX.4.2|9=68|35=0|34=360|49=FIXIMULATOR|52=20171206-15:47:11.949|56=OMPInitiator|10=063|8=FIX.4.2|9=68|35=0|34=361|49=FIXIMULATOR|52=20171206-15:47:41.951|56=OMPInitiator|10=060|8=FIX.4.2|9=68|35=0|34=362|49=FIXIMULATOR|52=20171206-15:48:11.955|56=OMPInitiator|10=063|8=FIX.4.2|9=68|35=0|34=363|49=FIXIMULATOR|52=20171206-15:48:42.955|56=OMPInitiator|10=068|8=FIX.4.2|9=68|35=0|34=364|49=FIXIMULATOR|52=20171206-15:49:12.955|56=OMPInitiator|10=067|8=FIX.4.2|9=68|35=0|34=365|49=FIXIMULATOR|52=20171206-15:49:43.953|56=OMPInitiator|10=070|8=FIX.4.2|9=68|35=0|34=366|49=FIXIMULATOR|52=20171206-15:50:13.955|56=OMPInitiator|10=062|8=FIX.4.2|9=68|35=0|34=367|49=FIXIMULATOR|52=20171206-15:50:44.957|56=OMPInitiator|10=069|8=FIX.4.2|9=206|35=8|34=368|49=FIXIMULATOR|52=20171206-15:51:15.714|56=OMPInitiator|6=52|11=9a343cbf-9167-e87b-0a57-64dee7023662|14=10|17=E1512575452356|20=0|31=52|32=10|37=O1512573787493|38=0|39=2|54=1|55=SPX|150=2|151=0|10=087|8=FIX.4.2|9=68|35=0|34=369|49=FIXIMULATOR|52=20171206-15:51:45.958|56=OMPInitiator|10=074|8=FIX.4.2|9=68|35=0|34=370|49=FIXIMULATOR|52=20171206-15:52:15.960|56=OMPInitiator|10=057|8=FIX.4.2|9=68|35=0|34=371|49=FIXIMULATOR|52=20171206-15:52:46.958|56=OMPInitiator|10=069|8=FIX.4.2|9=68|35=0|34=372|49=FIXIMULATOR|52=20171206-15:53:16.960|56=OMPInitiator|10=061|