8=FIX.4.2|9=84|35=A|34=1|49=FIXIMULATOR|52=20171206-11:25:20.568|56=OMPInitiator|98=0|108=30|141=Y|10=033|8=FIX.4.2|9=66|35=0|34=2|49=FIXIMULATOR|52=20171206-11:25:50.957|56=OMPInitiator|10=208|8=FIX.4.2|9=66|35=0|34=3|49=FIXIMULATOR|52=20171206-11:26:20.959|56=OMPInitiator|10=209|8=FIX.4.2|9=192|35=6|34=4|49=FIXIMULATOR|52=20171206-11:26:50.199|56=OMPInitiator|15=USD|22=5|23=I1512559610145|27=50300|28=N|44=22.732|48=HP.N|54=1|55=HP|62=20171206-11:56:50.198|107=HELMERICH & PAYNE|130=Y|10=135|8=FIX.4.2|9=195|35=6|34=5|49=FIXIMULATOR|52=20171206-11:26:51.254|56=OMPInitiator|15=USD|22=5|23=I1512559611255|27=78000|28=N|44=39.3822|48=CSE.N|54=1|55=CSE|62=20171206-11:56:51.254|107=CAPITALSOURCE INC|130=N|10=147|8=FIX.4.2|9=196|35=6|34=6|49=FIXIMULATOR|52=20171206-11:26:52.259|56=OMPInitiator|15=USD|22=5|23=I1512559612261|27=56000|28=N|44=37.2564|48=SNY.N|54=1|55=SNY|62=20171206-11:56:52.259|107=SANOFI-AVENTIS-ADR|130=Y|10=038|8=FIX.4.2|9=188|35=6|34=7|49=FIXIMULATOR|52=20171206-11:26:53.264|56=OMPInitiator|15=USD|22=5|23=I1512559613267|27=28900|28=N|44=98.7283|48=DOV.N|54=2|55=DOV|62=20171206-11:56:53.264|107=DOVER CORP|130=Y|10=227|8=FIX.4.2|9=186|35=6|34=8|49=FIXIMULATOR|52=20171206-11:26:54.269|56=OMPInitiator|15=USD|22=5|23=I1512559614273|27=58500|28=N|44=34.7116|48=CB.N|54=1|55=CB|62=20171206-11:56:54.268|107=CHUBB CORP|130=Y|10=246|8=FIX.4.2|9=206|35=6|34=9|49=FIXIMULATOR|52=20171206-11:26:55.274|56=OMPInitiator|15=USD|22=5|23=I1512559615279|27=97100|28=N|44=72.879|48=MRBK.OQ|54=1|55=MRBK|62=20171206-11:56:55.274|107=MERCANTILE BANKSHARES CORP|130=Y|10=238|8=FIX.4.2|9=191|35=6|34=10|49=FIXIMULATOR|52=20171206-11:26:56.277|56=OMPInitiator|15=USD|22=5|23=I1512559616284|27=73600|28=N|44=75.0563|48=MOLX.OQ|54=1|55=MOLX|62=20171206-11:56:56.277|107=MOLEX INC|130=N|10=168|8=FIX.4.2|9=196|35=6|34=11|49=FIXIMULATOR|52=20171206-11:26:57.284|56=OMPInitiator|15=USD|22=5|23=I1512559617291|27=34200|28=N|44=28.328|48=DTE.N|54=2|55=DTE|62=20171206-11:56:57.284|107=DTE ENERGY COMPANY|130=Y|10=228|8=FIX.4.2|9=76|35=0|34=12|49=FIXIMULATOR|52=20171206-11:27:06.273|56=OMPInitiator|112=TEST|10=014|8=FIX.4.2|9=67|35=0|34=13|49=FIXIMULATOR|52=20171206-11:27:36.960|56=OMPInitiator|10=003|8=FIX.4.2|9=67|35=0|34=14|49=FIXIMULATOR|52=20171206-11:28:06.961|56=OMPInitiator|10=003|8=FIX.4.2|9=67|35=0|34=15|49=FIXIMULATOR|52=20171206-11:28:36.962|56=OMPInitiator|10=008|8=FIX.4.2|9=67|35=0|34=16|49=FIXIMULATOR|52=20171206-11:29:06.963|56=OMPInitiator|10=008|8=FIX.4.2|9=67|35=0|34=17|49=FIXIMULATOR|52=20171206-11:29:36.963|56=OMPInitiator|10=012|8=FIX.4.2|9=67|35=0|34=18|49=FIXIMULATOR|52=20171206-11:30:06.963|56=OMPInitiator|10=002|8=FIX.4.2|9=67|35=0|34=19|49=FIXIMULATOR|52=20171206-11:30:36.964|56=OMPInitiator|10=007|8=FIX.4.2|9=67|35=0|34=20|49=FIXIMULATOR|52=20171206-11:31:06.964|56=OMPInitiator|10=253|8=FIX.4.2|9=67|35=0|34=21|49=FIXIMULATOR|52=20171206-11:31:36.966|56=OMPInitiator|10=003|8=FIX.4.2|9=67|35=0|34=22|49=FIXIMULATOR|52=20171206-11:32:06.966|56=OMPInitiator|10=002|8=FIX.4.2|9=67|35=0|34=23|49=FIXIMULATOR|52=20171206-11:32:37.967|56=OMPInitiator|10=008|8=FIX.4.2|9=67|35=0|34=24|49=FIXIMULATOR|52=20171206-11:33:07.968|56=OMPInitiator|10=008|8=FIX.4.2|9=67|35=0|34=25|49=FIXIMULATOR|52=20171206-11:33:37.968|56=OMPInitiator|10=012|8=FIX.4.2|9=67|35=0|34=26|49=FIXIMULATOR|52=20171206-11:34:08.969|56=OMPInitiator|10=013|8=FIX.4.2|9=67|35=0|34=27|49=FIXIMULATOR|52=20171206-11:34:38.969|56=OMPInitiator|10=017|8=FIX.4.2|9=67|35=0|34=28|49=FIXIMULATOR|52=20171206-11:35:09.970|56=OMPInitiator|10=009|8=FIX.4.2|9=67|35=0|34=29|49=FIXIMULATOR|52=20171206-11:35:39.970|56=OMPInitiator|10=013|8=FIX.4.2|9=67|35=0|34=30|49=FIXIMULATOR|52=20171206-11:36:09.971|56=OMPInitiator|10=004|8=FIX.4.2|9=67|35=0|34=31|49=FIXIMULATOR|52=20171206-11:36:39.971|56=OMPInitiator|10=008|8=FIX.4.2|9=67|35=0|34=32|49=FIXIMULATOR|52=20171206-11:37:09.971|56=OMPInitiator|10=007|8=FIX.4.2|9=67|35=0|34=33|49=FIXIMULATOR|52=20171206-11:37:39.973|56=OMPInitiator|10=013|8=FIX.4.2|9=67|35=0|34=34|49=FIXIMULATOR|52=20171206-11:38:09.974|56=OMPInitiator|10=013|8=FIX.4.2|9=67|35=0|34=35|49=FIXIMULATOR|52=20171206-11:38:39.974|56=OMPInitiator|10=017|8=FIX.4.2|9=67|35=0|34=36|49=FIXIMULATOR|52=20171206-11:39:10.975|56=OMPInitiator|10=009|8=FIX.4.2|9=67|35=0|34=37|49=FIXIMULATOR|52=20171206-11:39:41.972|56=OMPInitiator|10=011|8=FIX.4.2|9=67|35=0|34=38|49=FIXIMULATOR|52=20171206-11:40:11.972|56=OMPInitiator|10=001|8=FIX.4.2|9=67|35=0|34=39|49=FIXIMULATOR|52=20171206-11:40:41.974|56=OMPInitiator|10=007|8=FIX.4.2|9=67|35=0|34=40|49=FIXIMULATOR|52=20171206-11:41:11.975|56=OMPInitiator|10=254|8=FIX.4.2|9=67|35=0|34=41|49=FIXIMULATOR|52=20171206-11:41:41.975|56=OMPInitiator|10=002|8=FIX.4.2|9=67|35=0|34=42|49=FIXIMULATOR|52=20171206-11:42:12.978|56=OMPInitiator|10=005|8=FIX.4.2|9=67|35=0|34=43|49=FIXIMULATOR|52=20171206-11:42:42.980|56=OMPInitiator|10=002|8=FIX.4.2|9=67|35=0|34=44|49=FIXIMULATOR|52=20171206-11:43:13.978|56=OMPInitiator|10=009|8=FIX.4.2|9=67|35=0|34=45|49=FIXIMULATOR|52=20171206-11:43:43.981|56=OMPInitiator|10=007|8=FIX.4.2|9=67|35=0|34=46|49=FIXIMULATOR|52=20171206-11:44:13.981|56=OMPInitiator|10=006|8=FIX.4.2|9=79|35=A|34=47|49=FIXIMULATOR|52=20171206-12:31:19.668|56=OMPInitiator|98=0|108=30|10=057|8=FIX.4.2|9=67|35=0|34=48|49=FIXIMULATOR|52=20171206-12:31:50.369|56=OMPInitiator|10=006|8=FIX.4.2|9=67|35=0|34=49|49=FIXIMULATOR|52=20171206-12:32:21.370|56=OMPInitiator|10=254|8=FIX.4.2|9=67|35=0|34=50|49=FIXIMULATOR|52=20171206-12:32:52.135|56=OMPInitiator|10=249|8=FIX.4.2|9=67|35=0|34=51|49=FIXIMULATOR|52=20171206-12:33:22.135|56=OMPInitiator|10=248|8=FIX.4.2|9=67|35=0|34=52|49=FIXIMULATOR|52=20171206-12:33:52.136|56=OMPInitiator|10=253|8=FIX.4.2|9=67|35=0|34=53|49=FIXIMULATOR|52=20171206-12:34:23.132|56=OMPInitiator|10=249|8=FIX.4.2|9=67|35=0|34=54|49=FIXIMULATOR|52=20171206-12:34:53.137|56=OMPInitiator|10=002|8=FIX.4.2|9=67|35=0|34=55|49=FIXIMULATOR|52=20171206-12:35:24.136|56=OMPInitiator|10=001|8=FIX.4.2|9=67|35=0|34=56|49=FIXIMULATOR|52=20171206-12:35:54.137|56=OMPInitiator|10=006|8=FIX.4.2|9=67|35=0|34=57|49=FIXIMULATOR|52=20171206-12:36:25.139|56=OMPInitiator|10=008|8=FIX.4.2|9=67|35=0|34=58|49=FIXIMULATOR|52=20171206-12:36:55.140|56=OMPInitiator|10=004|8=FIX.4.2|9=67|35=0|34=59|49=FIXIMULATOR|52=20171206-12:37:26.138|56=OMPInitiator|10=011|8=FIX.4.2|9=67|35=0|34=60|49=FIXIMULATOR|52=20171206-12:37:56.138|56=OMPInitiator|10=006|8=FIX.4.2|9=67|35=0|34=61|49=FIXIMULATOR|52=20171206-12:38:26.142|56=OMPInitiator|10=000|8=FIX.4.2|9=67|35=0|34=62|49=FIXIMULATOR|52=20171206-12:38:56.142|56=OMPInitiator|10=004|8=FIX.4.2|9=67|35=0|34=63|49=FIXIMULATOR|52=20171206-12:39:26.143|56=OMPInitiator|10=004|8=FIX.4.2|9=67|35=0|34=64|49=FIXIMULATOR|52=20171206-12:39:56.144|56=OMPInitiator|10=009|8=FIX.4.2|9=67|35=0|34=65|49=FIXIMULATOR|52=20171206-12:40:26.144|56=OMPInitiator|10=255|8=FIX.4.2|9=67|35=0|34=66|49=FIXIMULATOR|52=20171206-12:40:57.145|56=OMPInitiator|10=005|8=FIX.4.2|9=67|35=0|34=67|49=FIXIMULATOR|52=20171206-12:41:28.146|56=OMPInitiator|10=006|8=FIX.4.2|9=67|35=0|34=68|49=FIXIMULATOR|52=20171206-12:41:59.147|56=OMPInitiator|10=012|8=FIX.4.2|9=67|35=0|34=69|49=FIXIMULATOR|52=20171206-12:42:29.148|56=OMPInitiator|10=012|8=FIX.4.2|9=67|35=0|34=70|49=FIXIMULATOR|52=20171206-12:43:00.146|56=OMPInitiator|10=248|8=FIX.4.2|9=67|35=0|34=71|49=FIXIMULATOR|52=20171206-12:43:30.149|56=OMPInitiator|10=255|8=FIX.4.2|9=67|35=0|34=72|49=FIXIMULATOR|52=20171206-12:44:01.148|56=OMPInitiator|10=254|8=FIX.4.2|9=67|35=0|34=73|49=FIXIMULATOR|52=20171206-12:44:32.147|56=OMPInitiator|10=002|8=FIX.4.2|9=67|35=0|34=74|49=FIXIMULATOR|52=20171206-12:45:02.152|56=OMPInitiator|10=253|8=FIX.4.2|9=79|35=A|34=75|49=FIXIMULATOR|52=20171206-12:54:50.574|56=OMPInitiator|98=0|108=30|10=054|8=FIX.4.2|9=67|35=0|34=76|49=FIXIMULATOR|52=20171206-12:55:21.186|56=OMPInitiator|10=008|8=FIX.4.2|9=79|35=A|34=77|49=FIXIMULATOR|52=20171206-12:58:08.534|56=OMPInitiator|98=0|108=30|10=059|8=FIX.4.2|9=67|35=0|34=78|49=FIXIMULATOR|52=20171206-12:58:39.193|56=OMPInitiator|10=020|8=FIX.4.2|9=67|35=0|34=79|49=FIXIMULATOR|52=20171206-12:59:09.196|56=OMPInitiator|10=022|8=FIX.4.2|9=67|35=0|34=80|49=FIXIMULATOR|52=20171206-12:59:39.453|56=OMPInitiator|10=013|8=FIX.4.2|9=67|35=0|34=81|49=FIXIMULATOR|52=20171206-13:00:09.454|56=OMPInitiator|10=255|8=FIX.4.2|9=67|35=0|34=82|49=FIXIMULATOR|52=20171206-13:00:40.199|56=OMPInitiator|10=001|8=FIX.4.2|9=67|35=0|34=83|49=FIXIMULATOR|52=20171206-13:01:11.198|56=OMPInitiator|10=000|8=FIX.4.2|9=67|35=0|34=84|49=FIXIMULATOR|52=20171206-13:01:41.201|56=OMPInitiator|10=245|8=FIX.4.2|9=67|35=0|34=85|49=FIXIMULATOR|52=20171206-13:02:11.201|56=OMPInitiator|10=244|8=FIX.4.2|9=67|35=0|34=86|49=FIXIMULATOR|52=20171206-13:02:42.199|56=OMPInitiator|10=009|8=FIX.4.2|9=67|35=0|34=87|49=FIXIMULATOR|52=20171206-13:03:12.202|56=OMPInitiator|10=249|8=FIX.4.2|9=67|35=0|34=88|49=FIXIMULATOR|52=20171206-13:03:42.203|56=OMPInitiator|10=254|8=FIX.4.2|9=79|35=A|34=89|49=FIXIMULATOR|52=20171206-13:04:06.460|56=OMPInitiator|98=0|108=30|10=050|8=FIX.4.2|9=79|35=A|34=90|49=FIXIMULATOR|52=20171206-13:04:19.749|56=OMPInitiator|98=0|108=30|10=056|8=FIX.4.2|9=67|35=0|34=91|49=FIXIMULATOR|52=20171206-13:04:50.201|56=OMPInitiator|10=246|8=FIX.4.2|9=67|35=0|34=92|49=FIXIMULATOR|52=20171206-13:05:20.722|56=OMPInitiator|10=253|8=FIX.4.2|9=79|35=A|34=93|49=FIXIMULATOR|52=20171206-13:05:55.432|56=OMPInitiator|98=0|108=30|10=049|8=FIX.4.2|9=67|35=0|34=94|49=FIXIMULATOR|52=20171206-13:06:26.196|56=OMPInitiator|10=011|8=FIX.4.2|9=67|35=0|34=95|49=FIXIMULATOR|52=20171206-13:06:56.197|56=OMPInitiator|10=016|8=FIX.4.2|9=67|35=0|34=96|49=FIXIMULATOR|52=20171206-13:07:26.197|56=OMPInitiator|10=015|8=FIX.4.2|9=67|35=0|34=97|49=FIXIMULATOR|52=20171206-13:07:56.390|56=OMPInitiator|10=014|8=FIX.4.2|9=67|35=0|34=98|49=FIXIMULATOR|52=20171206-13:08:27.191|56=OMPInitiator|10=013|8=FIX.4.2|9=67|35=0|34=99|49=FIXIMULATOR|52=20171206-13:08:58.188|56=OMPInitiator|10=024|8=FIX.4.2|9=68|35=0|34=100|49=FIXIMULATOR|52=20171206-13:09:28.189|56=OMPInitiator|10=055|8=FIX.4.2|9=68|35=0|34=101|49=FIXIMULATOR|52=20171206-13:09:58.190|56=OMPInitiator|10=051|8=FIX.4.2|9=68|35=0|34=102|49=FIXIMULATOR|52=20171206-13:10:29.188|56=OMPInitiator|10=049|8=FIX.4.2|9=68|35=0|34=103|49=FIXIMULATOR|52=20171206-13:11:00.183|56=OMPInitiator|10=035|8=FIX.4.2|9=68|35=0|34=104|49=FIXIMULATOR|52=20171206-13:11:30.184|56=OMPInitiator|10=040|8=FIX.4.2|9=68|35=0|34=105|49=FIXIMULATOR|52=20171206-13:12:01.182|56=OMPInitiator|10=038|8=FIX.4.2|9=68|35=0|34=106|49=FIXIMULATOR|52=20171206-13:12:32.178|56=OMPInitiator|10=048|8=FIX.4.2|9=68|35=0|34=107|49=FIXIMULATOR|52=20171206-13:13:02.179|56=OMPInitiator|10=048|8=FIX.4.2|9=68|35=0|34=108|49=FIXIMULATOR|52=20171206-13:13:33.178|56=OMPInitiator|10=052|8=FIX.4.2|9=68|35=0|34=109|49=FIXIMULATOR|52=20171206-13:14:04.177|56=OMPInitiator|10=051|8=FIX.4.2|9=68|35=0|34=110|49=FIXIMULATOR|52=20171206-13:14:35.175|56=OMPInitiator|10=045|8=FIX.4.2|9=68|35=0|34=111|49=FIXIMULATOR|52=20171206-13:15:05.175|56=OMPInitiator|10=044|8=FIX.4.2|9=68|35=0|34=112|49=FIXIMULATOR|52=20171206-13:15:36.174|56=OMPInitiator|10=048|8=FIX.4.2|9=68|35=0|34=113|49=FIXIMULATOR|52=20171206-13:16:06.174|56=OMPInitiator|10=047|8=FIX.4.2|9=68|35=0|34=114|49=FIXIMULATOR|52=20171206-13:16:37.168|56=OMPInitiator|10=055|8=FIX.4.2|9=68|35=0|34=115|49=FIXIMULATOR|52=20171206-13:17:07.169|56=OMPInitiator|10=055|8=FIX.4.2|9=68|35=0|34=116|49=FIXIMULATOR|52=20171206-13:17:37.169|56=OMPInitiator|10=059|8=FIX.4.2|9=68|35=0|34=117|49=FIXIMULATOR|52=20171206-13:18:07.171|56=OMPInitiator|10=051|8=FIX.4.2|9=68|35=0|34=118|49=FIXIMULATOR|52=20171206-13:18:38.170|56=OMPInitiator|10=055|8=FIX.4.2|9=68|35=0|34=119|49=FIXIMULATOR|52=20171206-13:19:09.165|56=OMPInitiator|10=059|8=FIX.4.2|9=68|35=0|34=120|49=FIXIMULATOR|52=20171206-13:19:39.174|56=OMPInitiator|10=054|8=FIX.4.2|9=68|35=0|34=121|49=FIXIMULATOR|52=20171206-13:20:09.174|56=OMPInitiator|10=044|8=FIX.4.2|9=80|35=A|34=122|49=FIXIMULATOR|52=20171206-13:38:53.258|56=OMPInitiator|98=0|108=30|10=092|8=FIX.4.2|9=68|35=0|34=123|49=FIXIMULATOR|52=20171206-13:39:23.487|56=OMPInitiator|10=059|8=FIX.4.2|9=68|35=0|34=124|49=FIXIMULATOR|52=20171206-13:39:54.485|56=OMPInitiator|10=062|8=FIX.4.2|9=68|35=0|34=125|49=FIXIMULATOR|52=20171206-13:40:24.486|56=OMPInitiator|10=053|8=FIX.4.2|9=68|35=0|34=126|49=FIXIMULATOR|52=20171206-13:40:55.486|56=OMPInitiator|10=058|8=FIX.4.2|9=68|35=0|34=127|49=FIXIMULATOR|52=20171206-13:41:26.484|56=OMPInitiator|10=056|8=FIX.4.2|9=68|35=0|34=128|49=FIXIMULATOR|52=20171206-13:41:56.485|56=OMPInitiator|10=061|8=FIX.4.2|9=68|35=0|34=129|49=FIXIMULATOR|52=20171206-13:42:27.485|56=OMPInitiator|10=061|8=FIX.4.2|9=68|35=0|34=130|49=FIXIMULATOR|52=20171206-13:42:57.485|56=OMPInitiator|10=056|8=FIX.4.2|9=68|35=0|34=131|49=FIXIMULATOR|52=20171206-13:43:27.485|56=OMPInitiator|10=055|8=FIX.4.2|9=68|35=0|34=132|49=FIXIMULATOR|52=20171206-13:43:57.485|56=OMPInitiator|10=059|8=FIX.4.2|9=68|35=0|34=133|49=FIXIMULATOR|52=20171206-13:44:28.485|56=OMPInitiator|10=059|8=FIX.4.2|9=68|35=0|34=134|49=FIXIMULATOR|52=20171206-13:44:59.480|56=OMPInitiator|10=059|8=FIX.4.2|9=68|35=0|34=135|49=FIXIMULATOR|52=20171206-13:45:29.484|56=OMPInitiator|10=062|8=FIX.4.2|9=68|35=0|34=136|49=FIXIMULATOR|52=20171206-13:46:00.481|56=OMPInitiator|10=050|8=FIX.4.2|9=68|35=0|34=137|49=FIXIMULATOR|52=20171206-13:46:31.484|56=OMPInitiator|10=058|8=FIX.4.2|9=68|35=0|34=138|49=FIXIMULATOR|52=20171206-13:47:02.480|56=OMPInitiator|10=054|8=FIX.4.2|9=68|35=0|34=139|49=FIXIMULATOR|52=20171206-13:47:32.480|56=OMPInitiator|10=058|8=FIX.4.2|9=68|35=0|34=140|49=FIXIMULATOR|52=20171206-13:48:02.480|56=OMPInitiator|10=048|8=FIX.4.2|9=68|35=0|34=141|49=FIXIMULATOR|52=20171206-13:48:32.484|56=OMPInitiator|10=056|8=FIX.4.2|9=68|35=0|34=142|49=FIXIMULATOR|52=20171206-13:49:03.484|56=OMPInitiator|10=056|8=FIX.4.2|9=68|35=0|34=143|49=FIXIMULATOR|52=20171206-13:49:34.481|56=OMPInitiator|10=058|8=FIX.4.2|9=68|35=0|34=144|49=FIXIMULATOR|52=20171206-13:50:05.483|56=OMPInitiator|10=051|8=FIX.4.2|9=68|35=0|34=145|49=FIXIMULATOR|52=20171206-13:50:35.485|56=OMPInitiator|10=057|8=FIX.4.2|9=68|35=0|34=146|49=FIXIMULATOR|52=20171206-13:51:06.485|56=OMPInitiator|10=057|8=FIX.4.2|9=68|35=0|34=147|49=FIXIMULATOR|52=20171206-13:51:36.485|56=OMPInitiator|10=061|8=FIX.4.2|9=68|35=0|34=148|49=FIXIMULATOR|52=20171206-13:52:06.485|56=OMPInitiator|10=060|8=FIX.4.2|9=68|35=0|34=149|49=FIXIMULATOR|52=20171206-13:52:37.484|56=OMPInitiator|10=064|8=FIX.4.2|9=68|35=0|34=150|49=FIXIMULATOR|52=20171206-13:53:08.486|56=OMPInitiator|10=057|8=FIX.4.2|9=68|35=0|34=151|49=FIXIMULATOR|52=20171206-13:53:38.486|56=OMPInitiator|10=061|8=FIX.4.2|9=68|35=0|34=152|49=FIXIMULATOR|52=20171206-13:54:08.987|56=OMPInitiator|10=066|8=FIX.4.2|9=68|35=0|34=153|49=FIXIMULATOR|52=20171206-13:54:38.990|56=OMPInitiator|10=064|8=FIX.4.2|9=68|35=0|34=154|49=FIXIMULATOR|52=20171206-13:55:09.986|56=OMPInitiator|10=069|8=FIX.4.2|9=68|35=0|34=155|49=FIXIMULATOR|52=20171206-13:55:39.990|56=OMPInitiator|10=068|8=FIX.4.2|9=68|35=0|34=156|49=FIXIMULATOR|52=20171206-13:56:10.987|56=OMPInitiator|10=065|8=FIX.4.2|9=68|35=0|34=157|49=FIXIMULATOR|52=20171206-13:56:40.987|56=OMPInitiator|10=069|8=FIX.4.2|9=68|35=0|34=158|49=FIXIMULATOR|52=20171206-13:57:10.992|56=OMPInitiator|10=064|8=FIX.4.2|9=68|35=0|34=159|49=FIXIMULATOR|52=20171206-13:57:41.993|56=OMPInitiator|10=070|8=FIX.4.2|9=68|35=0|34=160|49=FIXIMULATOR|52=20171206-13:58:12.993|56=OMPInitiator|10=061|8=FIX.4.2|9=68|35=0|34=161|49=FIXIMULATOR|52=20171206-13:58:42.993|56=OMPInitiator|10=065|8=FIX.4.2|9=68|35=0|34=162|49=FIXIMULATOR|52=20171206-13:59:12.994|56=OMPInitiator|10=065|8=FIX.4.2|9=68|35=0|34=163|49=FIXIMULATOR|52=20171206-13:59:42.994|56=OMPInitiator|10=069|8=FIX.4.2|9=68|35=0|34=164|49=FIXIMULATOR|52=20171206-14:00:12.995|56=OMPInitiator|10=055|8=FIX.4.2|9=68|35=0|34=165|49=FIXIMULATOR|52=20171206-14:00:42.995|56=OMPInitiator|10=059|8=FIX.4.2|9=68|35=0|34=166|49=FIXIMULATOR|52=20171206-14:01:13.991|56=OMPInitiator|10=055|8=FIX.4.2|9=68|35=0|34=167|49=FIXIMULATOR|52=20171206-14:01:43.996|56=OMPInitiator|10=064|8=FIX.4.2|9=68|35=0|34=168|49=FIXIMULATOR|52=20171206-14:02:13.997|56=OMPInitiator|10=064|8=FIX.4.2|9=68|35=0|34=169|49=FIXIMULATOR|52=20171206-14:02:44.997|56=OMPInitiator|10=069|8=FIX.4.2|9=68|35=0|34=170|49=FIXIMULATOR|52=20171206-14:03:14.998|56=OMPInitiator|10=060|8=FIX.4.2|9=68|35=0|34=171|49=FIXIMULATOR|52=20171206-14:03:45.998|56=OMPInitiator|10=065|8=FIX.4.2|9=80|35=A|34=172|49=FIXIMULATOR|52=20171206-14:04:02.984|56=OMPInitiator|98=0|108=30|10=091|8=FIX.4.2|9=68|35=0|34=173|49=FIXIMULATOR|52=20171206-14:04:32.999|56=OMPInitiator|10=065|8=FIX.4.2|9=68|35=0|34=174|49=FIXIMULATOR|52=20171206-14:05:02.999|56=OMPInitiator|10=064|8=FIX.4.2|9=68|35=0|34=175|49=FIXIMULATOR|52=20171206-14:05:33.000|56=OMPInitiator|10=042|8=FIX.4.2|9=68|35=0|34=176|49=FIXIMULATOR|52=20171206-14:06:03.000|56=OMPInitiator|10=041|8=FIX.4.2|9=68|35=0|34=177|49=FIXIMULATOR|52=20171206-14:06:33.947|56=OMPInitiator|10=065|8=FIX.4.2|9=68|35=0|34=178|49=FIXIMULATOR|52=20171206-14:07:03.947|56=OMPInitiator|10=064|8=FIX.4.2|9=80|35=A|34=179|49=FIXIMULATOR|52=20171206-14:14:07.007|56=OMPInitiator|98=0|108=30|10=090|8=FIX.4.2|9=80|35=A|34=180|49=FIXIMULATOR|52=20171206-14:14:34.730|56=OMPInitiator|98=0|108=30|10=085|8=FIX.4.2|9=68|35=0|34=181|49=FIXIMULATOR|52=20171206-14:15:05.472|56=OMPInitiator|10=052|8=FIX.4.2|9=68|35=0|34=182|49=FIXIMULATOR|52=20171206-14:15:36.470|56=OMPInitiator|10=055|8=FIX.4.2|9=178|35=8|34=183|49=FIXIMULATOR|52=20171206-14:15:39.605|56=OMPInitiator|6=0|11=asf1235axaf|14=0|17=E1512569739573|20=0|31=0|32=0|37=O1512569692074|38=0|39=4|54=1|55=EBAY|150=4|151=0|10=069|8=FIX.4.2|9=68|35=0|34=184|49=FIXIMULATOR|52=20171206-14:16:10.474|56=OMPInitiator|10=054|8=FIX.4.2|9=68|35=0|34=185|49=FIXIMULATOR|52=20171206-14:16:40.474|56=OMPInitiator|10=058|8=FIX.4.2|9=68|35=0|34=186|49=FIXIMULATOR|52=20171206-14:17:11.473|56=OMPInitiator|10=057|8=FIX.4.2|9=68|35=0|34=187|49=FIXIMULATOR|52=20171206-14:17:41.477|56=OMPInitiator|10=065|8=FIX.4.2|9=68|35=0|34=188|49=FIXIMULATOR|52=20171206-14:18:12.477|56=OMPInitiator|10=065|8=FIX.4.2|9=68|35=0|34=189|49=FIXIMULATOR|52=20171206-14:18:42.478|56=OMPInitiator|10=070|8=FIX.4.2|9=68|35=0|34=190|49=FIXIMULATOR|52=20171206-14:19:13.477|56=OMPInitiator|10=060|8=FIX.4.2|9=68|35=0|34=191|49=FIXIMULATOR|52=20171206-14:19:43.477|56=OMPInitiator|10=064|8=FIX.4.2|9=68|35=0|34=192|49=FIXIMULATOR|52=20171206-14:20:14.476|56=OMPInitiator|10=054|8=FIX.4.2|9=68|35=0|34=193|49=FIXIMULATOR|52=20171206-14:20:44.480|56=OMPInitiator|10=053|8=FIX.4.2|9=68|35=0|34=194|49=FIXIMULATOR|52=20171206-14:21:14.480|56=OMPInitiator|10=052|8=FIX.4.2|9=68|35=0|34=195|49=FIXIMULATOR|52=20171206-14:21:44.481|56=OMPInitiator|10=057|8=FIX.4.2|9=68|35=0|34=196|49=FIXIMULATOR|52=20171206-14:22:14.481|56=OMPInitiator|10=056|8=FIX.4.2|9=68|35=0|34=197|49=FIXIMULATOR|52=20171206-14:22:44.482|56=OMPInitiator|10=061|8=FIX.4.2|9=68|35=0|34=198|49=FIXIMULATOR|52=20171206-14:23:15.479|56=OMPInitiator|10=067|8=FIX.4.2|9=68|35=0|34=199|49=FIXIMULATOR|52=20171206-14:23:46.481|56=OMPInitiator|10=065|8=FIX.4.2|9=68|35=0|34=200|49=FIXIMULATOR|52=20171206-14:24:16.482|56=OMPInitiator|10=047|8=FIX.4.2|9=68|35=0|34=201|49=FIXIMULATOR|52=20171206-14:24:47.482|56=OMPInitiator|10=052|8=FIX.4.2|9=68|35=0|34=202|49=FIXIMULATOR|52=20171206-14:25:18.479|56=OMPInitiator|10=058|8=FIX.4.2|9=68|35=0|34=203|49=FIXIMULATOR|52=20171206-14:25:48.485|56=OMPInitiator|10=059|8=FIX.4.2|9=68|35=0|34=204|49=FIXIMULATOR|52=20171206-14:26:18.485|56=OMPInitiator|10=058|8=FIX.4.2|9=68|35=0|34=205|49=FIXIMULATOR|52=20171206-14:26:49.481|56=OMPInitiator|10=059|8=FIX.4.2|9=68|35=0|34=206|49=FIXIMULATOR|52=20171206-14:27:19.484|56=OMPInitiator|10=061|8=FIX.4.2|9=68|35=0|34=207|49=FIXIMULATOR|52=20171206-14:27:49.485|56=OMPInitiator|10=066|8=FIX.4.2|9=68|35=0|34=208|49=FIXIMULATOR|52=20171206-14:28:19.485|56=OMPInitiator|10=065|8=FIX.4.2|9=68|35=0|34=209|49=FIXIMULATOR|52=20171206-14:28:49.486|56=OMPInitiator|10=070|8=FIX.4.2|9=68|35=0|34=210|49=FIXIMULATOR|52=20171206-14:29:19.486|56=OMPInitiator|10=060|8=FIX.4.2|9=68|35=0|34=211|49=FIXIMULATOR|52=20171206-14:29:49.487|56=OMPInitiator|10=065|8=FIX.4.2|9=68|35=0|34=212|49=FIXIMULATOR|52=20171206-14:30:19.487|56=OMPInitiator|10=055|8=FIX.4.2|9=68|35=0|34=213|49=FIXIMULATOR|52=20171206-14:30:49.488|56=OMPInitiator|10=060|8=FIX.4.2|9=68|35=0|34=214|49=FIXIMULATOR|52=20171206-14:31:20.486|56=OMPInitiator|10=049|8=FIX.4.2|9=68|35=0|34=215|49=FIXIMULATOR|52=20171206-14:31:50.486|56=OMPInitiator|10=053|8=FIX.4.2|9=68|35=0|34=216|49=FIXIMULATOR|52=20171206-14:32:20.489|56=OMPInitiator|10=055|8=FIX.4.2|9=68|35=0|34=217|49=FIXIMULATOR|52=20171206-14:32:50.492|56=OMPInitiator|10=053|8=FIX.4.2|9=68|35=0|34=218|49=FIXIMULATOR|52=20171206-14:33:21.490|56=OMPInitiator|10=051|8=FIX.4.2|9=68|35=0|34=219|49=FIXIMULATOR|52=20171206-14:33:51.490|56=OMPInitiator|10=055|8=FIX.4.2|9=68|35=0|34=220|49=FIXIMULATOR|52=20171206-14:34:21.493|56=OMPInitiator|10=048|8=FIX.4.2|9=68|35=0|34=221|49=FIXIMULATOR|52=20171206-14:34:51.494|56=OMPInitiator|10=053|8=FIX.4.2|9=68|35=0|34=222|49=FIXIMULATOR|52=20171206-14:35:22.493|56=OMPInitiator|10=052|8=FIX.4.2|9=68|35=0|34=223|49=FIXIMULATOR|52=20171206-14:35:52.493|56=OMPInitiator|10=056|8=FIX.4.2|9=68|35=0|34=224|49=FIXIMULATOR|52=20171206-14:36:22.494|56=OMPInitiator|10=056|8=FIX.4.2|9=68|35=0|34=225|49=FIXIMULATOR|52=20171206-14:36:52.494|56=OMPInitiator|10=060|8=FIX.4.2|9=68|35=0|34=226|49=FIXIMULATOR|52=20171206-14:37:22.495|56=OMPInitiator|10=060|8=FIX.4.2|9=68|35=0|34=227|49=FIXIMULATOR|52=20171206-14:37:52.496|56=OMPInitiator|10=065|8=FIX.4.2|9=68|35=0|34=228|49=FIXIMULATOR|52=20171206-14:38:22.497|56=OMPInitiator|10=065|8=FIX.4.2|9=68|35=0|34=229|49=FIXIMULATOR|52=20171206-14:38:52.696|56=OMPInitiator|10=070|8=FIX.4.2|9=68|35=0|34=230|49=FIXIMULATOR|52=20171206-14:39:22.697|56=OMPInitiator|10=061|8=FIX.4.2|9=68|35=0|34=231|49=FIXIMULATOR|52=20171206-14:39:52.698|56=OMPInitiator|10=066|8=FIX.4.2|9=68|35=0|34=232|49=FIXIMULATOR|52=20171206-14:40:22.698|56=OMPInitiator|10=056|8=FIX.4.2|9=68|35=0|34=233|49=FIXIMULATOR|52=20171206-14:40:52.699|56=OMPInitiator|10=061|8=FIX.4.2|9=68|35=0|34=234|49=FIXIMULATOR|52=20171206-14:41:22.700|56=OMPInitiator|10=043|8=FIX.4.2|9=68|35=0|34=235|49=FIXIMULATOR|52=20171206-14:41:52.700|56=OMPInitiator|10=047|8=FIX.4.2|9=68|35=0|34=236|49=FIXIMULATOR|52=20171206-14:42:22.700|56=OMPInitiator|10=046|8=FIX.4.2|9=68|35=0|34=237|49=FIXIMULATOR|52=20171206-14:42:52.700|56=OMPInitiator|10=050|8=FIX.4.2|9=68|35=0|34=238|49=FIXIMULATOR|52=20171206-14:43:23.503|56=OMPInitiator|10=051|8=FIX.4.2|9=68|35=0|34=239|49=FIXIMULATOR|52=20171206-14:43:54.503|56=OMPInitiator|10=056|8=FIX.4.2|9=68|35=0|34=240|49=FIXIMULATOR|52=20171206-14:44:25.502|56=OMPInitiator|10=046|8=FIX.4.2|9=68|35=0|34=241|49=FIXIMULATOR|52=20171206-14:44:55.503|56=OMPInitiator|10=051|8=FIX.4.2|9=68|35=0|34=242|49=FIXIMULATOR|52=20171206-14:45:25.504|56=OMPInitiator|10=051|8=FIX.4.2|9=68|35=0|34=243|49=FIXIMULATOR|52=20171206-14:45:55.504|56=OMPInitiator|10=055|8=FIX.4.2|9=68|35=0|34=244|49=FIXIMULATOR|52=20171206-14:46:25.504|56=OMPInitiator|10=054|8=FIX.4.2|9=68|35=0|34=245|49=FIXIMULATOR|52=20171206-14:46:55.504|56=OMPInitiator|10=058|8=FIX.4.2|9=68|35=0|34=246|49=FIXIMULATOR|52=20171206-14:47:25.505|56=OMPInitiator|10=058|8=FIX.4.2|9=68|35=0|34=247|49=FIXIMULATOR|52=20171206-14:47:55.506|56=OMPInitiator|10=063|8=FIX.4.2|9=68|35=0|34=248|49=FIXIMULATOR|52=20171206-14:48:25.508|56=OMPInitiator|10=064|8=FIX.4.2|9=68|35=0|34=249|49=FIXIMULATOR|52=20171206-14:48:56.509|56=OMPInitiator|10=070|8=FIX.4.2|9=68|35=0|34=250|49=FIXIMULATOR|52=20171206-14:49:26.509|56=OMPInitiator|10=060|8=FIX.4.2|9=68|35=0|34=251|49=FIXIMULATOR|52=20171206-14:49:56.509|56=OMPInitiator|10=064|8=FIX.4.2|9=68|35=0|34=252|49=FIXIMULATOR|52=20171206-14:50:26.509|56=OMPInitiator|10=054|8=FIX.4.2|9=68|35=0|34=253|49=FIXIMULATOR|52=20171206-14:50:56.511|56=OMPInitiator|10=051|8=FIX.4.2|9=68|35=0|34=254|49=FIXIMULATOR|52=20171206-14:51:27.510|56=OMPInitiator|10=050|8=FIX.4.2|9=68|35=0|34=255|49=FIXIMULATOR|52=20171206-14:51:57.510|56=OMPInitiator|10=054|8=FIX.4.2|9=68|35=0|34=256|49=FIXIMULATOR|52=20171206-14:52:28.511|56=OMPInitiator|10=055|8=FIX.4.2|9=68|35=0|34=257|49=FIXIMULATOR|52=20171206-14:52:58.511|56=OMPInitiator|10=059|8=FIX.4.2|9=68|35=0|34=258|49=FIXIMULATOR|52=20171206-14:53:28.512|56=OMPInitiator|10=059|8=FIX.4.2|9=68|35=0|34=259|49=FIXIMULATOR|52=20171206-14:53:58.512|56=OMPInitiator|10=063|8=FIX.4.2|9=68|35=0|34=260|49=FIXIMULATOR|52=20171206-14:54:28.512|56=OMPInitiator|10=053|8=FIX.4.2|9=68|35=0|34=261|49=FIXIMULATOR|52=20171206-14:54:58.513|56=OMPInitiator|10=058|8=FIX.4.2|9=68|35=0|34=262|49=FIXIMULATOR|52=20171206-14:55:28.514|56=OMPInitiator|10=058|8=FIX.4.2|9=68|35=0|34=263|49=FIXIMULATOR|52=20171206-14:55:58.514|56=OMPInitiator|10=062|8=FIX.4.2|9=68|35=0|34=264|49=FIXIMULATOR|52=20171206-14:56:28.515|56=OMPInitiator|10=062|8=FIX.4.2|9=68|35=0|34=265|49=FIXIMULATOR|52=20171206-14:56:58.516|56=OMPInitiator|10=067|8=FIX.4.2|9=68|35=0|34=266|49=FIXIMULATOR|52=20171206-14:57:28.516|56=OMPInitiator|10=066|8=FIX.4.2|9=68|35=0|34=267|49=FIXIMULATOR|52=20171206-14:57:58.516|56=OMPInitiator|10=070|8=FIX.4.2|9=68|35=0|34=268|49=FIXIMULATOR|52=20171206-14:58:28.519|56=OMPInitiator|10=072|8=FIX.4.2|9=80|35=A|34=269|49=FIXIMULATOR|52=20171206-15:01:52.527|56=OMPInitiator|98=0|108=30|10=094|8=FIX.4.2|9=68|35=0|34=270|49=FIXIMULATOR|52=20171206-15:02:22.901|56=OMPInitiator|10=044|8=FIX.4.2|9=68|35=0|34=271|49=FIXIMULATOR|52=20171206-15:02:52.902|56=OMPInitiator|10=049|8=FIX.4.2|9=68|35=0|34=272|49=FIXIMULATOR|52=20171206-15:03:23.319|56=OMPInitiator|10=051|8=FIX.4.2|9=68|35=0|34=273|49=FIXIMULATOR|52=20171206-15:03:53.333|56=OMPInitiator|10=051|8=FIX.4.2|9=68|35=0|34=274|49=FIXIMULATOR|52=20171206-15:04:23.369|56=OMPInitiator|10=059|8=FIX.4.2|9=68|35=0|34=275|49=FIXIMULATOR|52=20171206-15:04:53.903|56=OMPInitiator|10=057|8=FIX.4.2|9=68|35=0|34=276|49=FIXIMULATOR|52=20171206-15:05:24.900|56=OMPInitiator|10=054|8=FIX.4.2|9=68|35=0|34=277|49=FIXIMULATOR|52=20171206-15:05:54.901|56=OMPInitiator|10=059|8=FIX.4.2|9=68|35=0|34=278|49=FIXIMULATOR|52=20171206-15:06:25.901|56=OMPInitiator|10=059|8=FIX.4.2|9=68|35=0|34=279|49=FIXIMULATOR|52=20171206-15:06:55.905|56=OMPInitiator|10=067|8=FIX.4.2|9=68|35=0|34=280|49=FIXIMULATOR|52=20171206-15:07:26.902|56=OMPInitiator|10=055|8=FIX.4.2|9=68|35=0|34=281|49=FIXIMULATOR|52=20171206-15:07:56.907|56=OMPInitiator|10=064|8=FIX.4.2|9=68|35=0|34=282|49=FIXIMULATOR|52=20171206-15:08:27.903|56=OMPInitiator|10=060|8=FIX.4.2|9=68|35=0|34=283|49=FIXIMULATOR|52=20171206-15:08:57.904|56=OMPInitiator|10=065|8=FIX.4.2|9=68|35=0|34=284|49=FIXIMULATOR|52=20171206-15:09:27.906|56=OMPInitiator|10=066|8=FIX.4.2|9=68|35=0|34=285|49=FIXIMULATOR|52=20171206-15:09:57.907|56=OMPInitiator|10=071|8=FIX.4.2|9=68|35=0|34=286|49=FIXIMULATOR|52=20171206-15:10:27.910|56=OMPInitiator|10=055|8=FIX.4.2|9=68|35=0|34=287|49=FIXIMULATOR|52=20171206-15:10:58.907|56=OMPInitiator|10=066|8=FIX.4.2|9=68|35=0|34=288|49=FIXIMULATOR|52=20171206-15:11:28.909|56=OMPInitiator|10=067|8=FIX.4.2|9=68|35=0|34=289|49=FIXIMULATOR|52=20171206-15:11:59.908|56=OMPInitiator|10=071|8=FIX.4.2|9=68|35=0|34=290|49=FIXIMULATOR|52=20171206-15:12:30.909|56=OMPInitiator|10=054|8=FIX.4.2|9=68|35=0|34=291|49=FIXIMULATOR|52=20171206-15:13:01.911|56=OMPInitiator|10=047|8=FIX.4.2|9=68|35=0|34=292|49=FIXIMULATOR|52=20171206-15:13:32.910|56=OMPInitiator|10=051|8=FIX.4.2|9=68|35=0|34=293|49=FIXIMULATOR|52=20171206-15:14:02.914|56=OMPInitiator|10=054|8=FIX.4.2|9=68|35=0|34=294|49=FIXIMULATOR|52=20171206-15:14:33.910|56=OMPInitiator|10=055|8=FIX.4.2|9=68|35=0|34=295|49=FIXIMULATOR|52=20171206-15:15:03.915|56=OMPInitiator|10=059|8=FIX.4.2|9=68|35=0|34=296|49=FIXIMULATOR|52=20171206-15:15:33.915|56=OMPInitiator|10=063|8=FIX.4.2|9=68|35=0|34=297|49=FIXIMULATOR|52=20171206-15:16:03.916|56=OMPInitiator|10=063|8=FIX.4.2|9=68|35=0|34=298|49=FIXIMULATOR|52=20171206-15:16:34.913|56=OMPInitiator|10=065|8=FIX.4.2|9=68|35=0|34=299|49=FIXIMULATOR|52=20171206-15:17:04.914|56=OMPInitiator|10=065|8=FIX.4.2|9=68|35=0|34=300|49=FIXIMULATOR|52=20171206-15:17:34.917|56=OMPInitiator|10=054|8=FIX.4.2|9=68|35=0|34=301|49=FIXIMULATOR|52=20171206-15:18:04.919|56=OMPInitiator|10=055|8=FIX.4.2|9=68|35=0|34=302|49=FIXIMULATOR|52=20171206-15:18:35.917|56=OMPInitiator|10=058|8=FIX.4.2|9=68|35=0|34=303|49=FIXIMULATOR|52=20171206-15:19:06.917|56=OMPInitiator|10=058|8=FIX.4.2|9=68|35=0|34=304|49=FIXIMULATOR|52=20171206-15:19:36.918|56=OMPInitiator|10=063|8=FIX.4.2|9=68|35=0|34=305|49=FIXIMULATOR|52=20171206-15:20:06.917|56=OMPInitiator|10=052|8=FIX.4.2|9=68|35=0|34=306|49=FIXIMULATOR|52=20171206-15:20:36.921|56=OMPInitiator|10=051|8=FIX.4.2|9=68|35=0|34=307|49=FIXIMULATOR|52=20171206-15:21:07.918|56=OMPInitiator|10=057|8=FIX.4.2|9=68|35=0|34=308|49=FIXIMULATOR|52=20171206-15:21:37.920|56=OMPInitiator|10=054|8=FIX.4.2|9=68|35=0|34=309|49=FIXIMULATOR|52=20171206-15:22:08.924|56=OMPInitiator|10=058|8=FIX.4.2|9=68|35=0|34=310|49=FIXIMULATOR|52=20171206-15:22:39.925|56=OMPInitiator|10=055|8=FIX.4.2|9=68|35=0|34=311|49=FIXIMULATOR|52=20171206-15:23:10.921|56=OMPInitiator|10=042|8=FIX.4.2|9=68|35=0|34=312|49=FIXIMULATOR|52=20171206-15:23:40.923|56=OMPInitiator|10=048|8=FIX.4.2|9=68|35=0|34=313|49=FIXIMULATOR|52=20171206-15:24:11.925|56=OMPInitiator|10=050|8=FIX.4.2|9=144|35=3|34=314|49=FIXIMULATOR|52=20171206-15:24:15.970|56=OMPInitiator|45=320|58=Value is incorrect (out of range) for this tag|371=54|372=D|373=5|10=036|8=FIX.4.2|9=68|35=0|34=315|49=FIXIMULATOR|52=20171206-15:24:46.360|56=OMPInitiator|10=053|8=FIX.4.2|9=68|35=0|34=316|49=FIXIMULATOR|52=20171206-15:25:16.924|56=OMPInitiator|10=058|8=FIX.4.2|9=68|35=0|34=317|49=FIXIMULATOR|52=20171206-15:25:46.924|56=OMPInitiator|10=062|8=FIX.4.2|9=202|35=8|34=318|49=FIXIMULATOR|52=20171206-15:26:01.855|56=OMPInitiator|6=0|11=04c1715a-ad66-b284-584a-ee2c5200c4fb|14=0|17=E1512573961803|20=0|31=0|32=0|37=O1512573913532|38=0|39=4|54=1|55=SPX|150=4|151=0|10=185|8=FIX.4.2|9=68|35=0|34=319|49=FIXIMULATOR|52=20171206-15:26:31.928|56=OMPInitiator|10=063|8=FIX.4.2|9=68|35=0|34=320|49=FIXIMULATOR|52=20171206-15:27:01.928|56=OMPInitiator|10=053|8=FIX.4.2|9=68|35=0|34=321|49=FIXIMULATOR|52=20171206-15:27:31.931|56=OMPInitiator|10=051|8=FIX.4.2|9=68|35=0|34=322|49=FIXIMULATOR|52=20171206-15:28:02.929|56=OMPInitiator|10=058|8=FIX.4.2|9=68|35=0|34=323|49=FIXIMULATOR|52=20171206-15:28:32.932|56=OMPInitiator|10=056|8=FIX.4.2|9=68|35=0|34=324|49=FIXIMULATOR|52=20171206-15:29:03.930|56=OMPInitiator|10=054|8=FIX.4.2|9=68|35=0|34=325|49=FIXIMULATOR|52=20171206-15:29:33.933|56=OMPInitiator|10=061|8=FIX.4.2|9=68|35=0|34=326|49=FIXIMULATOR|52=20171206-15:30:03.934|56=OMPInitiator|10=052|8=FIX.4.2|9=68|35=0|34=327|49=FIXIMULATOR|52=20171206-15:30:33.934|56=OMPInitiator|10=056|8=FIX.4.2|9=68|35=0|34=328|49=FIXIMULATOR|52=20171206-15:31:03.935|56=OMPInitiator|10=056|8=FIX.4.2|9=68|35=0|34=329|49=FIXIMULATOR|52=20171206-15:31:34.933|56=OMPInitiator|10=059|8=FIX.4.2|9=68|35=0|34=330|49=FIXIMULATOR|52=20171206-15:32:05.932|56=OMPInitiator|10=049|8=FIX.4.2|9=68|35=0|34=331|49=FIXIMULATOR|52=20171206-15:32:35.937|56=OMPInitiator|10=058|8=FIX.4.2|9=68|35=0|34=332|49=FIXIMULATOR|52=20171206-15:33:05.938|56=OMPInitiator|10=058|8=FIX.4.2|9=68|35=0|34=333|49=FIXIMULATOR|52=20171206-15:33:36.938|56=OMPInitiator|10=063|8=FIX.4.2|9=68|35=0|34=334|49=FIXIMULATOR|52=20171206-15:34:07.939|56=OMPInitiator|10=064|8=FIX.4.2|9=68|35=0|34=335|49=FIXIMULATOR|52=20171206-15:34:38.940|56=OMPInitiator|10=061|8=FIX.4.2|9=68|35=0|34=336|49=FIXIMULATOR|52=20171206-15:35:08.940|56=OMPInitiator|10=060|8=FIX.4.2|9=68|35=0|34=337|49=FIXIMULATOR|52=20171206-15:35:39.937|56=OMPInitiator|10=071|8=FIX.4.2|9=68|35=0|34=338|49=FIXIMULATOR|52=20171206-15:36:09.939|56=OMPInitiator|10=072|8=FIX.4.2|9=68|35=0|34=339|49=FIXIMULATOR|52=20171206-15:36:39.942|56=OMPInitiator|10=070|8=FIX.4.2|9=68|35=0|34=340|49=FIXIMULATOR|52=20171206-15:37:09.942|56=OMPInitiator|10=060|8=FIX.4.2|9=68|35=0|34=341|49=FIXIMULATOR|52=20171206-15:37:40.361|56=OMPInitiator|10=051|8=FIX.4.2|9=68|35=0|34=342|49=FIXIMULATOR|52=20171206-15:38:10.941|56=OMPInitiator|10=054|8=FIX.4.2|9=202|35=8|34=343|49=FIXIMULATOR|52=20171206-15:38:35.202|56=OMPInitiator|6=0|11=e75e2a75-b5af-3644-de43-8c3508d98690|14=0|17=E1512574715203|20=0|31=0|32=0|37=O1512574688839|38=0|39=4|54=1|55=SPX|150=4|151=0|10=132|8=FIX.4.2|9=68|35=0|34=344|49=FIXIMULATOR|52=20171206-15:39:05.940|56=OMPInitiator|10=060|8=FIX.4.2|9=68|35=0|34=345|49=FIXIMULATOR|52=20171206-15:39:35.944|56=OMPInitiator|10=068|8=FIX.4.2|9=68|35=0|34=346|49=FIXIMULATOR|52=20171206-15:40:05.945|56=OMPInitiator|10=059|8=FIX.4.2|9=68|35=0|34=347|49=FIXIMULATOR|52=20171206-15:40:36.945|56=OMPInitiator|10=064|8=FIX.4.2|9=68|35=0|34=348|49=FIXIMULATOR|52=20171206-15:41:07.942|56=OMPInitiator|10=061|8=FIX.4.2|9=68|35=0|34=349|49=FIXIMULATOR|52=20171206-15:41:37.945|56=OMPInitiator|10=068|8=FIX.4.2|9=68|35=0|34=350|49=FIXIMULATOR|52=20171206-15:42:07.947|56=OMPInitiator|10=060|8=FIX.4.2|9=68|35=0|34=351|49=FIXIMULATOR|52=20171206-15:42:37.948|56=OMPInitiator|10=065|8=FIX.4.2|9=68|35=0|34=352|49=FIXIMULATOR|52=20171206-15:43:08.949|56=OMPInitiator|10=066|8=FIX.4.2|9=68|35=0|34=353|49=FIXIMULATOR|52=20171206-15:43:39.340|56=OMPInitiator|10=056|8=FIX.4.2|9=68|35=0|34=354|49=FIXIMULATOR|52=20171206-15:44:09.341|56=OMPInitiator|10=056|8=FIX.4.2|9=68|35=0|34=355|49=FIXIMULATOR|52=20171206-15:44:39.345|56=OMPInitiator|10=064|8=FIX.4.2|9=68|35=0|34=356|49=FIXIMULATOR|52=20171206-15:45:09.948|56=OMPInitiator|10=072|8=FIX.4.2|9=68|35=0|34=357|49=FIXIMULATOR|52=20171206-15:45:39.948|56=OMPInitiator|10=076|8=FIX.4.2|9=68|35=0|34=358|49=FIXIMULATOR|52=20171206-15:46:10.952|56=OMPInitiator|10=062|8=FIX.4.2|9=68|35=0|34=359|49=FIXIMULATOR|52=20171206-15:46:41.949|56=OMPInitiator|10=073|8=FIX.4.2|9=68|35=0|34=360|49=FIXIMULATOR|52=20171206-15:47:11.949|56=OMPInitiator|10=063|8=FIX.4.2|9=68|35=0|34=361|49=FIXIMULATOR|52=20171206-15:47:41.951|56=OMPInitiator|10=060|8=FIX.4.2|9=68|35=0|34=362|49=FIXIMULATOR|52=20171206-15:48:11.955|56=OMPInitiator|10=063|8=FIX.4.2|9=68|35=0|34=363|49=FIXIMULATOR|52=20171206-15:48:42.955|56=OMPInitiator|10=068|8=FIX.4.2|9=68|35=0|34=364|49=FIXIMULATOR|52=20171206-15:49:12.955|56=OMPInitiator|10=067|8=FIX.4.2|9=68|35=0|34=365|49=FIXIMULATOR|52=20171206-15:49:43.953|56=OMPInitiator|10=070|8=FIX.4.2|9=68|35=0|34=366|49=FIXIMULATOR|52=20171206-15:50:13.955|56=OMPInitiator|10=062|8=FIX.4.2|9=68|35=0|34=367|49=FIXIMULATOR|52=20171206-15:50:44.957|56=OMPInitiator|10=069|8=FIX.4.2|9=206|35=8|34=368|49=FIXIMULATOR|52=20171206-15:51:15.714|56=OMPInitiator|6=52|11=9a343cbf-9167-e87b-0a57-64dee7023662|14=10|17=E1512575452356|20=0|31=52|32=10|37=O1512573787493|38=0|39=2|54=1|55=SPX|150=2|151=0|10=087|8=FIX.4.2|9=68|35=0|34=369|49=FIXIMULATOR|52=20171206-15:51:45.958|56=OMPInitiator|10=074|8=FIX.4.2|9=68|35=0|34=370|49=FIXIMULATOR|52=20171206-15:52:15.960|56=OMPInitiator|10=057|8=FIX.4.2|9=68|35=0|34=371|49=FIXIMULATOR|52=20171206-15:52:46.958|56=OMPInitiator|10=069|8=FIX.4.2|9=68|35=0|34=372|49=FIXIMULATOR|52=20171206-15:53:16.960|56=OMPInitiator|10=061|8=FIX.4.2|9=68|35=0|34=373|49=FIXIMULATOR|52=20171206-15:53:46.962|56=OMPInitiator|10=067|8=FIX.4.2|9=68|35=0|34=374|49=FIXIMULATOR|52=20171206-15:54:17.958|56=OMPInitiator|10=072|8=FIX.4.2|9=80|35=A|34=375|49=FIXIMULATOR|52=20171206-16:02:33.465|56=OMPInitiator|98=0|108=30|10=094|8=FIX.4.2|9=68|35=0|34=376|49=FIXIMULATOR|52=20171206-16:03:04.050|56=OMPInitiator|10=048|8=FIX.4.2|9=68|35=0|34=377|49=FIXIMULATOR|52=20171206-16:03:34.050|56=OMPInitiator|10=052|8=FIX.4.2|9=68|35=0|34=378|49=FIXIMULATOR|52=20171206-16:04:04.052|56=OMPInitiator|10=053|8=FIX.4.2|9=68|35=0|34=379|49=FIXIMULATOR|52=20171206-16:04:34.054|56=OMPInitiator|10=059|8=FIX.4.2|9=68|35=0|34=380|49=FIXIMULATOR|52=20171206-16:05:04.054|56=OMPInitiator|10=049|8=FIX.4.2|9=68|35=0|34=381|49=FIXIMULATOR|52=20171206-16:05:35.054|56=OMPInitiator|10=054|8=FIX.4.2|9=68|35=0|34=382|49=FIXIMULATOR|52=20171206-16:06:05.057|56=OMPInitiator|10=056|8=FIX.4.2|9=68|35=0|34=383|49=FIXIMULATOR|52=20171206-16:06:36.056|56=OMPInitiator|10=060|8=FIX.4.2|9=68|35=0|34=384|49=FIXIMULATOR|52=20171206-16:07:06.057|56=OMPInitiator|10=060|8=FIX.4.2|9=68|35=0|34=385|49=FIXIMULATOR|52=20171206-16:07:36.060|56=OMPInitiator|10=058|8=FIX.4.2|9=68|35=0|34=386|49=FIXIMULATOR|52=20171206-16:08:07.061|56=OMPInitiator|10=059|8=FIX.4.2|9=68|35=0|34=387|49=FIXIMULATOR|52=20171206-16:08:37.061|56=OMPInitiator|10=063|8=FIX.4.2|9=68|35=0|34=388|49=FIXIMULATOR|52=20171206-16:09:07.062|56=OMPInitiator|10=063|8=FIX.4.2|9=80|35=A|34=389|49=FIXIMULATOR|52=20171206-16:27:36.315|56=OMPInitiator|98=0|108=30|10=103|8=FIX.4.2|9=68|35=0|34=390|49=FIXIMULATOR|52=20171206-16:28:06.435|56=OMPInitiator|10=060|8=FIX.4.2|9=68|35=0|34=391|49=FIXIMULATOR|52=20171206-16:28:37.433|56=OMPInitiator|10=063|8=FIX.4.2|9=68|35=0|34=392|49=FIXIMULATOR|52=20171206-16:29:07.435|56=OMPInitiator|10=064|8=FIX.4.2|9=68|35=0|34=393|49=FIXIMULATOR|52=20171206-16:29:37.436|56=OMPInitiator|10=069|8=FIX.4.2|9=68|35=0|34=394|49=FIXIMULATOR|52=20171206-16:30:08.435|56=OMPInitiator|10=059|8=FIX.4.2|9=68|35=0|34=395|49=FIXIMULATOR|52=20171206-16:30:38.436|56=OMPInitiator|10=064|8=FIX.4.2|9=68|35=0|34=396|49=FIXIMULATOR|52=20171206-16:31:09.438|56=OMPInitiator|10=066|8=FIX.4.2|9=68|35=0|34=397|49=FIXIMULATOR|52=20171206-16:31:39.438|56=OMPInitiator|10=070|8=FIX.4.2|9=68|35=0|34=398|49=FIXIMULATOR|52=20171206-16:32:09.438|56=OMPInitiator|10=069|8=FIX.4.2|9=68|35=0|34=399|49=FIXIMULATOR|52=20171206-16:32:39.440|56=OMPInitiator|10=066|8=FIX.4.2|9=68|35=0|34=400|49=FIXIMULATOR|52=20171206-16:33:09.441|56=OMPInitiator|10=048|8=FIX.4.2|9=68|35=0|34=401|49=FIXIMULATOR|52=20171206-16:33:40.437|56=OMPInitiator|10=049|8=FIX.4.2|9=68|35=0|34=402|49=FIXIMULATOR|52=20171206-16:34:10.442|56=OMPInitiator|10=044|8=FIX.4.2|9=68|35=0|34=403|49=FIXIMULATOR|52=20171206-16:34:41.438|56=OMPInitiator|10=054|8=FIX.4.2|9=68|35=0|34=404|49=FIXIMULATOR|52=20171206-16:35:11.439|56=OMPInitiator|10=054|8=FIX.4.2|9=68|35=0|34=405|49=FIXIMULATOR|52=20171206-16:35:41.441|56=OMPInitiator|10=051|8=FIX.4.2|9=68|35=0|34=406|49=FIXIMULATOR|52=20171206-16:36:11.443|56=OMPInitiator|10=052|8=FIX.4.2|9=68|35=0|34=407|49=FIXIMULATOR|52=20171206-16:36:42.445|56=OMPInitiator|10=059|8=FIX.4.2|9=68|35=0|34=408|49=FIXIMULATOR|52=20171206-16:37:12.445|56=OMPInitiator|10=058|8=FIX.4.2|9=68|35=0|34=409|49=FIXIMULATOR|52=20171206-16:37:42.446|56=OMPInitiator|10=063|8=FIX.4.2|9=68|35=0|34=410|49=FIXIMULATOR|52=20171206-16:38:12.446|56=OMPInitiator|10=053|8=FIX.4.2|9=68|35=0|34=411|49=FIXIMULATOR|52=20171206-16:38:42.447|56=OMPInitiator|10=058|8=FIX.4.2|9=68|35=0|34=412|49=FIXIMULATOR|52=20171206-16:39:12.448|56=OMPInitiator|10=058|8=FIX.4.2|9=68|35=0|34=413|49=FIXIMULATOR|52=20171206-16:39:43.447|56=OMPInitiator|10=062|8=FIX.4.2|9=68|35=0|34=414|49=FIXIMULATOR|52=20171206-16:40:13.448|56=OMPInitiator|10=053|8=FIX.4.2|9=68|35=0|34=415|49=FIXIMULATOR|52=20171206-16:40:43.449|56=OMPInitiator|10=058|8=FIX.4.2|9=68|35=0|34=416|49=FIXIMULATOR|52=20171206-16:41:13.450|56=OMPInitiator|10=049|8=FIX.4.2|9=68|35=0|34=417|49=FIXIMULATOR|52=20171206-16:41:44.449|56=OMPInitiator|10=062|8=FIX.4.2|9=68|35=0|34=418|49=FIXIMULATOR|52=20171206-16:42:15.447|56=OMPInitiator|10=060|8=FIX.4.2|9=68|35=0|34=419|49=FIXIMULATOR|52=20171206-16:42:45.449|56=OMPInitiator|10=066|8=FIX.4.2|9=80|35=A|34=420|49=FIXIMULATOR|52=20171206-17:46:01.892|56=OMPInitiator|98=0|108=30|10=093|8=FIX.4.2|9=68|35=0|34=421|49=FIXIMULATOR|52=20171206-17:46:32.225|56=OMPInitiator|10=052|8=FIX.4.2|9=68|35=0|34=422|49=FIXIMULATOR|52=20171206-17:47:02.226|56=OMPInitiator|10=052|8=FIX.4.2|9=68|35=0|34=423|49=FIXIMULATOR|52=20171206-17:47:33.224|56=OMPInitiator|10=055|8=FIX.4.2|9=68|35=0|34=424|49=FIXIMULATOR|52=20171206-17:48:03.227|56=OMPInitiator|10=057|8=FIX.4.2|9=68|35=0|34=425|49=FIXIMULATOR|52=20171206-17:48:33.724|56=OMPInitiator|10=063|8=FIX.4.2|9=68|35=0|34=426|49=FIXIMULATOR|52=20171206-17:49:03.726|56=OMPInitiator|10=064|8=FIX.4.2|9=68|35=0|34=427|49=FIXIMULATOR|52=20171206-17:49:33.728|56=OMPInitiator|10=070|8=FIX.4.2|9=68|35=0|34=428|49=FIXIMULATOR|52=20171206-17:50:03.728|56=OMPInitiator|10=060|8=FIX.4.2|9=68|35=0|34=429|49=FIXIMULATOR|52=20171206-17:50:33.731|56=OMPInitiator|10=058|8=FIX.4.2|9=68|35=0|34=430|49=FIXIMULATOR|52=20171206-17:51:04.728|56=OMPInitiator|10=055|8=FIX.4.2|9=68|35=0|34=431|49=FIXIMULATOR|52=20171206-17:51:34.728|56=OMPInitiator|10=059|8=FIX.4.2|9=68|35=0|34=432|49=FIXIMULATOR|52=20171206-17:52:04.732|56=OMPInitiator|10=053|8=FIX.4.2|9=68|35=0|34=433|49=FIXIMULATOR|52=20171206-17:52:34.732|56=OMPInitiator|10=057|8=FIX.4.2|9=68|35=0|34=434|49=FIXIMULATOR|52=20171206-17:53:04.734|56=OMPInitiator|10=058|8=FIX.4.2|9=68|35=0|34=435|49=FIXIMULATOR|52=20171206-17:53:34.734|56=OMPInitiator|10=062|8=FIX.4.2|9=68|35=0|34=436|49=FIXIMULATOR|52=20171206-17:54:05.735|56=OMPInitiator|10=063|8=FIX.4.2|9=68|35=0|34=437|49=FIXIMULATOR|52=20171206-17:54:35.735|56=OMPInitiator|10=067|8=FIX.4.2|9=68|35=0|34=438|49=FIXIMULATOR|52=20171206-17:55:06.735|56=OMPInitiator|10=067|8=FIX.4.2|9=68|35=0|34=439|49=FIXIMULATOR|52=20171206-17:55:37.734|56=OMPInitiator|10=071|8=FIX.4.2|9=68|35=0|34=440|49=FIXIMULATOR|52=20171206-17:56:08.737|56=OMPInitiator|10=065|8=FIX.4.2|9=68|35=0|34=441|49=FIXIMULATOR|52=20171206-17:56:38.737|56=OMPInitiator|10=069|8=FIX.4.2|9=68|35=0|34=442|49=FIXIMULATOR|52=20171206-17:57:09.736|56=OMPInitiator|10=068|8=FIX.4.2|9=68|35=0|34=443|49=FIXIMULATOR|52=20171206-17:57:40.736|56=OMPInitiator|10=064|8=FIX.4.2|9=68|35=0|34=444|49=FIXIMULATOR|52=20171206-17:58:10.739|56=OMPInitiator|10=066|8=FIX.4.2|9=68|35=0|34=445|49=FIXIMULATOR|52=20171206-17:58:41.735|56=OMPInitiator|10=067|8=FIX.4.2|9=68|35=0|34=446|49=FIXIMULATOR|52=20171206-17:59:11.740|56=OMPInitiator|10=062|8=FIX.4.2|9=68|35=0|34=447|49=FIXIMULATOR|52=20171206-17:59:42.740|56=OMPInitiator|10=067|8=FIX.4.2|9=68|35=0|34=448|49=FIXIMULATOR|52=20171206-18:00:13.741|56=OMPInitiator|10=054|8=FIX.4.2|9=68|35=0|34=449|49=FIXIMULATOR|52=20171206-18:00:44.739|56=OMPInitiator|10=066|8=FIX.4.2|9=68|35=0|34=450|49=FIXIMULATOR|52=20171206-18:01:15.742|56=OMPInitiator|10=051|8=FIX.4.2|9=80|35=A|34=451|49=FIXIMULATOR|52=20171206-19:55:43.265|56=OMPInitiator|98=0|108=30|10=099|8=FIX.4.2|9=68|35=0|34=452|49=FIXIMULATOR|52=20171206-19:56:13.400|56=OMPInitiator|10=053|8=FIX.4.2|9=68|35=0|34=453|49=FIXIMULATOR|52=20171206-19:56:43.400|56=OMPInitiator|10=057|8=FIX.4.2|9=68|35=0|34=454|49=FIXIMULATOR|52=20171206-19:57:14.401|56=OMPInitiator|10=058|8=FIX.4.2|9=68|35=0|34=455|49=FIXIMULATOR|52=20171206-19:57:45.401|56=OMPInitiator|10=063|8=FIX.4.2|9=68|35=0|34=456|49=FIXIMULATOR|52=20171206-19:58:15.402|56=OMPInitiator|10=063|8=FIX.4.2|9=68|35=0|34=457|49=FIXIMULATOR|52=20171206-19:58:46.399|56=OMPInitiator|10=083|8=FIX.4.2|9=68|35=0|34=458|49=FIXIMULATOR|52=20171206-19:59:16.400|56=OMPInitiator|10=065|8=FIX.4.2|9=68|35=0|34=459|49=FIXIMULATOR|52=20171206-19:59:46.403|56=OMPInitiator|10=072|8=FIX.4.2|9=68|35=0|34=460|49=FIXIMULATOR|52=20171206-20:00:17.402|56=OMPInitiator|10=039|8=FIX.4.2|9=68|35=0|34=461|49=FIXIMULATOR|52=20171206-20:00:48.403|56=OMPInitiator|10=045|8=FIX.4.2|9=68|35=0|34=462|49=FIXIMULATOR|52=20171206-20:01:18.404|56=OMPInitiator|10=045|8=FIX.4.2|9=68|35=0|34=463|49=FIXIMULATOR|52=20171206-20:01:49.402|56=OMPInitiator|10=048|8=FIX.4.2|9=68|35=0|34=464|49=FIXIMULATOR|52=20171206-20:02:19.403|56=OMPInitiator|10=048|8=FIX.4.2|9=68|35=0|34=465|49=FIXIMULATOR|52=20171206-20:02:49.406|56=OMPInitiator|10=055|8=FIX.4.2|9=68|35=0|34=466|49=FIXIMULATOR|52=20171206-20:03:19.407|56=OMPInitiator|10=055|8=FIX.4.2|9=68|35=0|34=467|49=FIXIMULATOR|52=20171206-20:03:50.405|56=OMPInitiator|10=049|8=FIX.4.2|9=68|35=0|34=468|49=FIXIMULATOR|52=20171206-20:04:20.405|56=OMPInitiator|10=048|8=FIX.4.2|9=68|35=0|34=469|49=FIXIMULATOR|52=20171206-20:04:50.405|56=OMPInitiator|10=052|8=FIX.4.2|9=68|35=0|34=470|49=FIXIMULATOR|52=20171206-20:05:20.409|56=OMPInitiator|10=046|8=FIX.4.2|9=68|35=0|34=471|49=FIXIMULATOR|52=20171206-20:05:50.409|56=OMPInitiator|10=050|8=FIX.4.2|9=68|35=0|34=472|49=FIXIMULATOR|52=20171206-20:06:21.408|56=OMPInitiator|10=049|8=FIX.4.2|9=68|35=0|34=473|49=FIXIMULATOR|52=20171206-20:06:52.410|56=OMPInitiator|10=047|8=FIX.4.2|9=68|35=0|34=474|49=FIXIMULATOR|52=20171206-20:07:22.411|56=OMPInitiator|10=047|8=FIX.4.2|9=68|35=0|34=475|49=FIXIMULATOR|52=20171206-20:07:52.411|56=OMPInitiator|10=051|8=FIX.4.2|9=68|35=0|34=476|49=FIXIMULATOR|52=20171206-20:08:23.339|56=OMPInitiator|10=060|8=FIX.4.2|9=68|35=0|34=477|49=FIXIMULATOR|52=20171206-20:08:53.341|56=OMPInitiator|10=057|8=FIX.4.2|9=68|35=0|34=478|49=FIXIMULATOR|52=20171206-20:09:23.343|56=OMPInitiator|10=058|8=FIX.4.2|9=68|35=0|34=479|49=FIXIMULATOR|52=20171206-20:09:54.341|56=OMPInitiator|10=061|8=FIX.4.2|9=68|35=0|34=480|49=FIXIMULATOR|52=20171206-20:10:24.342|56=OMPInitiator|10=043|8=FIX.4.2|9=68|35=0|34=481|49=FIXIMULATOR|52=20171206-20:10:54.346|56=OMPInitiator|10=051|8=FIX.4.2|9=68|35=0|34=482|49=FIXIMULATOR|52=20171206-20:11:25.346|56=OMPInitiator|10=051|8=FIX.4.2|9=68|35=0|34=483|49=FIXIMULATOR|52=20171206-20:11:55.349|56=OMPInitiator|10=058|8=FIX.4.2|9=80|35=A|34=484|49=FIXIMULATOR|52=20171206-20:46:04.660|56=OMPInitiator|98=0|108=30|10=093|8=FIX.4.2|9=68|35=0|34=485|49=FIXIMULATOR|52=20171206-20:46:35.455|56=OMPInitiator|10=064|8=FIX.4.2|9=68|35=0|34=486|49=FIXIMULATOR|52=20171206-20:47:05.456|56=OMPInitiator|10=064|8=FIX.4.2|9=68|35=0|34=487|49=FIXIMULATOR|52=20171206-20:47:35.460|56=OMPInitiator|10=063|8=FIX.4.2|9=68|35=0|34=488|49=FIXIMULATOR|52=20171206-20:48:05.461|56=OMPInitiator|10=063|8=FIX.4.2|9=68|35=0|34=489|49=FIXIMULATOR|52=20171206-20:48:36.461|56=OMPInitiator|10=068|8=FIX.4.2|9=68|35=0|34=490|49=FIXIMULATOR|52=20171206-20:49:07.458|56=OMPInitiator|10=065|8=FIX.4.2|9=68|35=0|34=491|49=FIXIMULATOR|52=20171206-20:49:38.458|56=OMPInitiator|10=070|8=FIX.4.2|9=68|35=0|34=492|49=FIXIMULATOR|52=20171206-20:50:08.460|56=OMPInitiator|10=053|8=FIX.4.2|9=68|35=0|34=493|49=FIXIMULATOR|52=20171206-20:50:39.463|56=OMPInitiator|10=061|8=FIX.4.2|9=178|35=8|34=494|49=FIXIMULATOR|52=20171206-20:50:53.895|56=OMPInitiator|6=0|11=asf1235axaf|14=0|17=E1512593453881|20=0|31=0|32=0|37=O1512593398688|38=0|39=4|54=1|55=EBAY|150=4|151=0|10=080|8=FIX.4.2|9=68|35=0|34=495|49=FIXIMULATOR|52=20171206-20:51:24.459|56=OMPInitiator|10=063|8=FIX.4.2|9=68|35=0|34=496|49=FIXIMULATOR|52=20171206-20:51:54.463|56=OMPInitiator|10=062|8=FIX.4.2|9=68|35=0|34=497|49=FIXIMULATOR|52=20171206-20:52:25.464|56=OMPInitiator|10=063|8=FIX.4.2|9=68|35=0|34=498|49=FIXIMULATOR|52=20171206-20:52:56.465|56=OMPInitiator|10=069|8=FIX.4.2|9=68|35=0|34=499|49=FIXIMULATOR|52=20171206-20:53:26.465|56=OMPInitiator|10=068|8=FIX.4.2|9=68|35=0|34=500|49=FIXIMULATOR|52=20171206-20:53:57.466|56=OMPInitiator|10=056|8=FIX.4.2|9=68|35=0|34=501|49=FIXIMULATOR|52=20171206-20:54:28.461|56=OMPInitiator|10=051|8=FIX.4.2|9=68|35=0|34=502|49=FIXIMULATOR|52=20171206-20:54:58.465|56=OMPInitiator|10=059|8=FIX.4.2|9=68|35=0|34=503|49=FIXIMULATOR|52=20171206-20:55:28.775|56=OMPInitiator|10=062|8=FIX.4.2|9=68|35=0|34=504|49=FIXIMULATOR|52=20171206-20:55:58.776|56=OMPInitiator|10=067|8=FIX.4.2|9=68|35=0|34=505|49=FIXIMULATOR|52=20171206-20:56:29.463|56=OMPInitiator|10=060|8=FIX.4.2|9=68|35=0|34=506|49=FIXIMULATOR|52=20171206-20:56:59.467|56=OMPInitiator|10=068|8=FIX.4.2|9=68|35=0|34=507|49=FIXIMULATOR|52=20171206-20:57:30.467|56=OMPInitiator|10=059|8=FIX.4.2|9=68|35=0|34=508|49=FIXIMULATOR|52=20171206-20:58:00.469|56=OMPInitiator|10=060|8=FIX.4.2|9=68|35=0|34=509|49=FIXIMULATOR|52=20171206-20:58:30.469|56=OMPInitiator|10=064|8=FIX.4.2|9=68|35=0|34=510|49=FIXIMULATOR|52=20171206-20:59:01.467|56=OMPInitiator|10=053|8=FIX.4.2|9=68|35=0|34=511|49=FIXIMULATOR|52=20171206-20:59:31.470|56=OMPInitiator|10=051|8=FIX.4.2|9=68|35=0|34=512|49=FIXIMULATOR|52=20171206-21:00:02.471|56=OMPInitiator|10=038|8=FIX.4.2|9=68|35=0|34=513|49=FIXIMULATOR|52=20171206-21:00:33.469|56=OMPInitiator|10=050|8=FIX.4.2|9=68|35=0|34=514|49=FIXIMULATOR|52=20171206-21:01:03.472|56=OMPInitiator|10=043|8=FIX.4.2|9=68|35=0|34=515|49=FIXIMULATOR|52=20171206-21:01:33.473|56=OMPInitiator|10=048|8=FIX.4.2|9=68|35=0|34=516|49=FIXIMULATOR|52=20171206-21:02:04.472|56=OMPInitiator|10=047|8=FIX.4.2|9=68|35=0|34=517|49=FIXIMULATOR|52=20171206-21:02:34.473|56=OMPInitiator|10=052|8=FIX.4.2|9=68|35=0|34=518|49=FIXIMULATOR|52=20171206-21:03:05.472|56=OMPInitiator|10=051|8=FIX.4.2|9=68|35=0|34=519|49=FIXIMULATOR|52=20171206-21:03:35.474|56=OMPInitiator|10=057|8=FIX.4.2|9=68|35=0|34=520|49=FIXIMULATOR|52=20171206-21:04:06.474|56=OMPInitiator|10=048|8=FIX.4.2|9=68|35=0|34=521|49=FIXIMULATOR|52=20171206-21:04:37.475|56=OMPInitiator|10=054|8=FIX.4.2|9=68|35=0|34=522|49=FIXIMULATOR|52=20171206-21:05:08.471|56=OMPInitiator|10=050|8=FIX.4.2|9=68|35=0|34=523|49=FIXIMULATOR|52=20171206-21:05:38.471|56=OMPInitiator|10=054|8=FIX.4.2|9=68|35=0|34=524|49=FIXIMULATOR|52=20171206-21:06:08.477|56=OMPInitiator|10=059|8=FIX.4.2|9=68|35=0|34=525|49=FIXIMULATOR|52=20171206-21:06:39.472|56=OMPInitiator|10=059|8=FIX.4.2|9=68|35=0|34=526|49=FIXIMULATOR|52=20171206-21:07:09.473|56=OMPInitiator|10=059|8=FIX.4.2|9=68|35=0|34=527|49=FIXIMULATOR|52=20171206-21:07:39.478|56=OMPInitiator|10=068|8=FIX.4.2|9=68|35=0|34=528|49=FIXIMULATOR|52=20171206-21:08:09.478|56=OMPInitiator|10=067|8=FIX.4.2|9=68|35=0|34=529|49=FIXIMULATOR|52=20171206-21:08:39.479|56=OMPInitiator|10=072|8=FIX.4.2|9=68|35=0|34=530|49=FIXIMULATOR|52=20171206-21:09:09.479|56=OMPInitiator|10=062|8=FIX.4.2|9=68|35=0|34=531|49=FIXIMULATOR|52=20171206-21:09:40.478|56=OMPInitiator|10=057|8=FIX.4.2|9=68|35=0|34=532|49=FIXIMULATOR|52=20171206-21:10:10.478|56=OMPInitiator|10=047|8=FIX.4.2|9=68|35=0|34=533|49=FIXIMULATOR|52=20171206-21:10:40.481|56=OMPInitiator|10=045|8=FIX.4.2|9=178|35=8|34=534|49=FIXIMULATOR|52=20171206-21:11:09.497|56=OMPInitiator|6=?|11=asf1235axaf|14=0|17=E1512594648713|20=0|31=0|32=0|37=O1512594472132|38=0|39=2|54=1|55=EBAY|150=2|151=0|10=252|8=FIX.4.2|9=77|35=0|34=535|49=FIXIMULATOR|52=20171206-21:11:25.790|56=OMPInitiator|112=TEST|10=072|8=FIX.4.2|9=68|35=0|34=536|49=FIXIMULATOR|52=20171206-21:11:56.482|56=OMPInitiator|10=057|8=FIX.4.2|9=68|35=0|34=537|49=FIXIMULATOR|52=20171206-21:12:26.789|56=OMPInitiator|10=066|8=FIX.4.2|9=68|35=0|34=538|49=FIXIMULATOR|52=20171206-21:12:56.795|56=OMPInitiator|10=067|8=FIX.4.2|9=68|35=0|34=539|49=FIXIMULATOR|52=20171206-21:13:27.480|56=OMPInitiator|10=058|8=FIX.4.2|9=68|35=0|34=540|49=FIXIMULATOR|52=20171206-21:13:57.482|56=OMPInitiator|10=055|8=FIX.4.2|9=178|35=8|34=541|49=FIXIMULATOR|52=20171206-21:14:06.598|56=OMPInitiator|6=0|11=asf1235axaf|14=0|17=E1512594846601|20=0|31=0|32=0|37=O1512594472132|38=0|39=0|54=1|55=EBAY|150=0|151=0|10=039|8=FIX.4.2|9=68|35=0|34=542|49=FIXIMULATOR|52=20171206-21:14:37.478|56=OMPInitiator|10=061|8=FIX.4.2|9=68|35=0|34=543|49=FIXIMULATOR|52=20171206-21:15:07.479|56=OMPInitiator|10=061|8=FIX.4.2|9=68|35=0|34=544|49=FIXIMULATOR|52=20171206-21:15:37.481|56=OMPInitiator|10=058|8=FIX.4.2|9=68|35=0|34=545|49=FIXIMULATOR|52=20171206-21:16:07.483|56=OMPInitiator|10=059|8=FIX.4.2|9=68|35=0|34=546|49=FIXIMULATOR|52=20171206-21:16:37.483|56=OMPInitiator|10=063|8=FIX.4.2|9=68|35=0|34=547|49=FIXIMULATOR|52=20171206-21:17:07.485|56=OMPInitiator|10=064|8=FIX.4.2|9=68|35=0|34=548|49=FIXIMULATOR|52=20171206-21:17:38.482|56=OMPInitiator|10=066|8=FIX.4.2|9=68|35=0|34=549|49=FIXIMULATOR|52=20171206-21:18:08.486|56=OMPInitiator|10=069|8=FIX.4.2|9=68|35=0|34=550|49=FIXIMULATOR|52=20171206-21:18:38.486|56=OMPInitiator|10=064|8=FIX.4.2|9=68|35=0|34=551|49=FIXIMULATOR|52=20171206-21:19:09.482|56=OMPInitiator|10=060|8=FIX.4.2|9=68|35=0|34=552|49=FIXIMULATOR|52=20171206-21:19:39.487|56=OMPInitiator|10=069|8=FIX.4.2|9=68|35=0|34=553|49=FIXIMULATOR|52=20171206-21:20:10.484|56=OMPInitiator|10=048|8=FIX.4.2|9=68|35=0|34=554|49=FIXIMULATOR|52=20171206-21:20:40.486|56=OMPInitiator|10=054|8=FIX.4.2|9=68|35=0|34=555|49=FIXIMULATOR|52=20171206-21:21:10.487|56=OMPInitiator|10=054|8=FIX.4.2|9=68|35=0|34=556|49=FIXIMULATOR|52=20171206-21:21:41.487|56=OMPInitiator|10=059|8=FIX.4.2|9=68|35=0|34=557|49=FIXIMULATOR|52=20171206-21:22:11.488|56=OMPInitiator|10=059|8=FIX.4.2|9=68|35=0|34=558|49=FIXIMULATOR|52=20171206-21:22:41.489|56=OMPInitiator|10=064|8=FIX.4.2|9=68|35=0|34=559|49=FIXIMULATOR|52=20171206-21:23:11.489|56=OMPInitiator|10=063|8=FIX.4.2|9=68|35=0|34=560|49=FIXIMULATOR|52=20171206-21:23:42.488|56=OMPInitiator|10=058|8=FIX.4.2|9=68|35=0|34=561|49=FIXIMULATOR|52=20171206-21:24:12.489|56=OMPInitiator|10=058|8=FIX.4.2|9=68|35=0|34=562|49=FIXIMULATOR|52=20171206-21:24:43.490|56=OMPInitiator|10=055|8=FIX.4.2|9=68|35=0|34=563|49=FIXIMULATOR|52=20171206-21:25:14.492|56=OMPInitiator|10=057|8=FIX.4.2|9=68|35=0|34=564|49=FIXIMULATOR|52=20171206-21:25:45.490|56=OMPInitiator|10=060|8=FIX.4.2|9=68|35=0|34=565|49=FIXIMULATOR|52=20171206-21:26:15.493|56=OMPInitiator|10=062|8=FIX.4.2|9=68|35=0|34=566|49=FIXIMULATOR|52=20171206-21:26:46.490|56=OMPInitiator|10=064|8=FIX.4.2|9=68|35=0|34=567|49=FIXIMULATOR|52=20171206-21:27:16.493|56=OMPInitiator|10=066|8=FIX.4.2|9=68|35=0|34=568|49=FIXIMULATOR|52=20171206-21:27:47.491|56=OMPInitiator|10=069|8=FIX.4.2|9=68|35=0|34=569|49=FIXIMULATOR|52=20171206-21:28:17.494|56=OMPInitiator|10=071|8=FIX.4.2|9=68|35=0|34=570|49=FIXIMULATOR|52=20171206-21:28:47.494|56=OMPInitiator|10=066|8=FIX.4.2|9=68|35=0|34=571|49=FIXIMULATOR|52=20171206-21:29:18.494|56=OMPInitiator|10=066|8=FIX.4.2|9=68|35=0|34=572|49=FIXIMULATOR|52=20171206-21:29:48.494|56=OMPInitiator|10=070|8=FIX.4.2|9=68|35=0|34=573|49=FIXIMULATOR|52=20171206-21:30:18.494|56=OMPInitiator|10=060|8=FIX.4.2|9=68|35=0|34=574|49=FIXIMULATOR|52=20171206-21:30:48.494|56=OMPInitiator|10=064|8=FIX.4.2|9=68|35=0|34=575|49=FIXIMULATOR|52=20171206-21:31:18.495|56=OMPInitiator|10=064|8=FIX.4.2|9=68|35=0|34=576|49=FIXIMULATOR|52=20171206-21:31:48.497|56=OMPInitiator|10=070|8=FIX.4.2|9=68|35=0|34=577|49=FIXIMULATOR|52=20171206-21:32:18.499|56=OMPInitiator|10=071|8=FIX.4.2|9=68|35=0|34=578|49=FIXIMULATOR|52=20171206-21:32:49.497|56=OMPInitiator|10=074|8=FIX.4.2|9=68|35=0|34=579|49=FIXIMULATOR|52=20171206-21:33:19.497|56=OMPInitiator|10=073|8=FIX.4.2|9=68|35=0|34=580|49=FIXIMULATOR|52=20171206-21:33:49.499|56=OMPInitiator|10=070|8=FIX.4.2|9=68|35=0|34=581|49=FIXIMULATOR|52=20171206-21:34:20.500|56=OMPInitiator|10=044|8=FIX.4.2|9=68|35=0|34=582|49=FIXIMULATOR|52=20171206-21:34:51.497|56=OMPInitiator|10=064|8=FIX.4.2|9=68|35=0|34=583|49=FIXIMULATOR|52=20171206-21:35:21.497|56=OMPInitiator|10=063|8=FIX.4.2|9=68|35=0|34=584|49=FIXIMULATOR|52=20171206-21:35:51.498|56=OMPInitiator|10=068|8=FIX.4.2|9=68|35=0|34=585|49=FIXIMULATOR|52=20171206-21:36:21.502|56=OMPInitiator|10=053|8=FIX.4.2|9=68|35=0|34=586|49=FIXIMULATOR|52=20171206-21:36:52.498|56=OMPInitiator|10=072|8=FIX.4.2|9=68|35=0|34=587|49=FIXIMULATOR|52=20171206-21:37:22.500|56=OMPInitiator|10=055|8=FIX.4.2|9=68|35=0|34=588|49=FIXIMULATOR|52=20171206-21:37:53.504|56=OMPInitiator|10=064|8=FIX.4.2|9=80|35=A|34=589|49=FIXIMULATOR|52=20171206-21:38:21.774|56=OMPInitiator|98=0|108=30|10=106|8=FIX.4.2|9=68|35=0|34=590|49=FIXIMULATOR|52=20171206-21:38:52.503|56=OMPInitiator|10=056|8=FIX.4.2|9=68|35=0|34=591|49=FIXIMULATOR|52=20171206-21:39:22.503|56=OMPInitiator|10=055|8=FIX.4.2|9=68|35=0|34=592|49=FIXIMULATOR|52=20171206-21:39:52.504|56=OMPInitiator|10=060|8=FIX.4.2|9=68|35=0|34=593|49=FIXIMULATOR|52=20171206-21:40:22.504|56=OMPInitiator|10=050|8=FIX.4.2|9=80|35=A|34=594|49=FIXIMULATOR|52=20171206-21:40:52.606|56=OMPInitiator|98=0|108=30|10=093|8=FIX.4.2|9=79|35=2|34=595|49=FIXIMULATOR|52=20171206-21:40:52.607|56=OMPInitiator|7=605|16=0|10=036|8=FIX.4.2|9=68|35=0|34=596|49=FIXIMULATOR|52=20171206-21:41:23.507|56=OMPInitiator|10=058|8=FIX.4.2|9=68|35=0|34=597|49=FIXIMULATOR|52=20171206-21:41:54.505|56=OMPInitiator|10=061|8=FIX.4.2|9=178|35=8|34=598|49=FIXIMULATOR|52=20171206-21:42:04.545|56=OMPInitiator|6=0|11=asf1235axaf|14=0|17=E1512596524549|20=0|31=0|32=0|37=O1512596462122|38=0|39=4|54=1|55=EBAY|150=4|151=0|10=056|8=FIX.4.2|9=68|35=0|34=599|49=FIXIMULATOR|52=20171206-21:42:35.506|56=OMPInitiator|10=064|8=FIX.4.2|9=80|35=A|34=600|49=FIXIMULATOR|52=20171206-21:43:01.235|56=OMPInitiator|98=0|108=30|10=076|8=FIX.4.2|9=68|35=0|34=601|49=FIXIMULATOR|52=20171206-21:43:31.509|56=OMPInitiator|10=048|8=FIX.4.2|9=127|35=3|34=602|49=FIXIMULATOR|52=20171206-21:43:38.432|56=OMPInitiator|45=613|58=Tag specified out of required order|371=49|372=D|10=196|8=FIX.4.2|9=68|35=0|34=603|49=FIXIMULATOR|52=20171206-21:44:08.505|56=OMPInitiator|10=051|8=FIX.4.2|9=68|35=0|34=604|49=FIXIMULATOR|52=20171206-21:44:38.507|56=OMPInitiator|10=057|8=FIX.4.2|9=68|35=0|34=605|49=FIXIMULATOR|52=20171206-21:45:08.507|56=OMPInitiator|10=056|8=FIX.4.2|9=68|35=0|34=606|49=FIXIMULATOR|52=20171206-21:45:38.510|56=OMPInitiator|10=054|8=FIX.4.2|9=68|35=0|34=607|49=FIXIMULATOR|52=20171206-21:46:08.510|56=OMPInitiator|10=053|8=FIX.4.2|9=68|35=0|34=608|49=FIXIMULATOR|52=20171206-21:46:38.511|56=OMPInitiator|10=058|8=FIX.4.2|9=68|35=0|34=609|49=FIXIMULATOR|52=20171206-21:47:08.512|56=OMPInitiator|10=058|8=FIX.4.2|9=68|35=0|34=610|49=FIXIMULATOR|52=20171206-21:47:38.513|56=OMPInitiator|10=054|8=FIX.4.2|9=68|35=0|34=611|49=FIXIMULATOR|52=20171206-21:48:08.513|56=OMPInitiator|10=053|8=FIX.4.2|9=68|35=0|34=612|49=FIXIMULATOR|52=20171206-21:48:39.224|56=OMPInitiator|10=057|8=FIX.4.2|9=68|35=0|34=613|49=FIXIMULATOR|52=20171206-21:49:09.511|56=OMPInitiator|10=055|8=FIX.4.2|9=68|35=0|34=614|49=FIXIMULATOR|52=20171206-21:49:39.513|56=OMPInitiator|10=061|8=FIX.4.2|9=80|35=A|34=615|49=FIXIMULATOR|52=20171206-21:49:55.377|56=OMPInitiator|98=0|108=30|10=104|8=FIX.4.2|9=127|35=3|34=616|49=FIXIMULATOR|52=20171206-21:50:01.977|56=OMPInitiator|45=627|58=Tag specified out of required order|371=49|372=D|10=208|8=FIX.4.2|9=68|35=0|34=617|49=FIXIMULATOR|52=20171206-21:50:32.345|56=OMPInitiator|10=052|8=FIX.4.2|9=68|35=0|34=618|49=FIXIMULATOR|52=20171206-21:51:02.349|56=OMPInitiator|10=055|8=FIX.4.2|9=68|35=0|34=619|49=FIXIMULATOR|52=20171206-21:51:32.352|56=OMPInitiator|10=053|8=FIX.4.2|9=80|35=A|34=620|49=FIXIMULATOR|52=20171206-21:51:54.755|56=OMPInitiator|98=0|108=30|10=092|8=FIX.4.2|9=127|35=3|34=621|49=FIXIMULATOR|52=20171206-21:52:02.001|56=OMPInitiator|45=632|58=Tag specified out of required order|371=49|372=D|10=181|8=FIX.4.2|9=68|35=0|34=622|49=FIXIMULATOR|52=20171206-21:52:32.516|56=OMPInitiator|10=050|8=FIX.4.2|9=68|35=0|34=623|49=FIXIMULATOR|52=20171206-21:53:02.519|56=OMPInitiator|10=052|8=FIX.4.2|9=68|35=0|34=624|49=FIXIMULATOR|52=20171206-21:53:32.690|56=OMPInitiator|10=056|8=FIX.4.2|9=68|35=0|34=625|49=FIXIMULATOR|52=20171206-21:54:02.691|56=OMPInitiator|10=056|8=FIX.4.2|9=68|35=0|34=626|49=FIXIMULATOR|52=20171206-21:54:32.726|56=OMPInitiator|10=059|8=FIX.4.2|9=68|35=0|34=627|49=FIXIMULATOR|52=20171206-21:55:03.522|56=OMPInitiator|10=053|8=FIX.4.2|9=68|35=0|34=628|49=FIXIMULATOR|52=20171206-21:55:34.519|56=OMPInitiator|10=064|8=FIX.4.2|9=68|35=0|34=629|49=FIXIMULATOR|52=20171206-21:56:04.519|56=OMPInitiator|10=063|8=FIX.4.2|9=68|35=0|34=630|49=FIXIMULATOR|52=20171206-21:56:34.520|56=OMPInitiator|10=050|8=FIX.4.2|9=68|35=0|34=631|49=FIXIMULATOR|52=20171206-21:57:04.520|56=OMPInitiator|10=049|8=FIX.4.2|9=68|35=0|34=632|49=FIXIMULATOR|52=20171206-21:57:34.520|56=OMPInitiator|10=053|8=FIX.4.2|9=68|35=0|34=633|49=FIXIMULATOR|52=20171206-21:58:04.521|56=OMPInitiator|10=053|8=FIX.4.2|9=68|35=0|34=634|49=FIXIMULATOR|52=20171206-21:58:34.522|56=OMPInitiator|10=058|8=FIX.4.2|9=68|35=0|34=635|49=FIXIMULATOR|52=20171206-21:59:04.525|56=OMPInitiator|10=060|8=FIX.4.2|9=68|35=0|34=636|49=FIXIMULATOR|52=20171206-21:59:35.527|56=OMPInitiator|10=067|8=FIX.4.2|9=68|35=0|34=637|49=FIXIMULATOR|52=20171206-22:00:06.523|56=OMPInitiator|10=049|8=FIX.4.2|9=68|35=0|34=638|49=FIXIMULATOR|52=20171206-22:00:36.527|56=OMPInitiator|10=057|8=FIX.4.2|9=68|35=0|34=639|49=FIXIMULATOR|52=20171206-22:01:06.529|56=OMPInitiator|10=058|8=FIX.4.2|9=68|35=0|34=640|49=FIXIMULATOR|52=20171206-22:01:37.528|56=OMPInitiator|10=053|8=FIX.4.2|9=68|35=0|34=641|49=FIXIMULATOR|52=20171206-22:02:07.529|56=OMPInitiator|10=053|8=FIX.4.2|9=68|35=0|34=642|49=FIXIMULATOR|52=20171206-22:02:37.529|56=OMPInitiator|10=057|8=FIX.4.2|9=68|35=0|34=643|49=FIXIMULATOR|52=20171206-22:03:07.531|56=OMPInitiator|10=049|8=FIX.4.2|9=68|35=0|34=644|49=FIXIMULATOR|52=20171206-22:03:38.530|56=OMPInitiator|10=053|8=FIX.4.2|9=68|35=0|34=645|49=FIXIMULATOR|52=20171206-22:04:08.532|56=OMPInitiator|10=054|8=FIX.4.2|9=68|35=0|34=646|49=FIXIMULATOR|52=20171206-22:04:38.533|56=OMPInitiator|10=059|8=FIX.4.2|9=68|35=0|34=647|49=FIXIMULATOR|52=20171206-22:05:08.534|56=OMPInitiator|10=059|8=FIX.4.2|9=68|35=0|34=648|49=FIXIMULATOR|52=20171206-22:05:38.534|56=OMPInitiator|10=063|8=FIX.4.2|9=68|35=0|34=649|49=FIXIMULATOR|52=20171206-22:06:09.530|56=OMPInitiator|10=059|8=FIX.4.2|9=68|35=0|34=650|49=FIXIMULATOR|52=20171206-22:06:39.536|56=OMPInitiator|10=060|8=FIX.4.2|9=68|35=0|34=651|49=FIXIMULATOR|52=20171206-22:07:10.536|56=OMPInitiator|10=051|8=FIX.4.2|9=68|35=0|34=652|49=FIXIMULATOR|52=20171206-22:07:41.537|56=OMPInitiator|10=057|8=FIX.4.2|9=68|35=0|34=653|49=FIXIMULATOR|52=20171206-22:08:12.535|56=OMPInitiator|10=055|8=FIX.4.2|9=68|35=0|34=654|49=FIXIMULATOR|52=20171206-22:08:42.538|56=OMPInitiator|10=062|8=FIX.4.2|9=68|35=0|34=655|49=FIXIMULATOR|52=20171206-22:09:12.539|56=OMPInitiator|10=062|8=FIX.4.2|9=68|35=0|34=656|49=FIXIMULATOR|52=20171206-22:09:43.536|56=OMPInitiator|10=064|8=FIX.4.2|9=68|35=0|34=657|49=FIXIMULATOR|52=20171206-22:10:13.537|56=OMPInitiator|10=055|8=FIX.4.2|9=68|35=0|34=658|49=FIXIMULATOR|52=20171206-22:10:43.540|56=OMPInitiator|10=053|8=FIX.4.2|9=68|35=0|34=659|49=FIXIMULATOR|52=20171206-22:11:13.541|56=OMPInitiator|10=053|8=FIX.4.2|9=68|35=0|34=660|49=FIXIMULATOR|52=20171206-22:11:44.541|56=OMPInitiator|10=049|8=FIX.4.2|9=68|35=0|34=661|49=FIXIMULATOR|52=20171206-22:12:15.541|56=OMPInitiator|10=049|8=FIX.4.2|9=68|35=0|34=662|49=FIXIMULATOR|52=20171206-22:12:45.541|56=OMPInitiator|10=053|8=FIX.4.2|9=68|35=0|34=663|49=FIXIMULATOR|52=20171206-22:13:15.542|56=OMPInitiator|10=053|8=FIX.4.2|9=68|35=0|34=664|49=FIXIMULATOR|52=20171206-22:13:46.544|56=OMPInitiator|10=060|8=FIX.4.2|9=68|35=0|34=665|49=FIXIMULATOR|52=20171206-22:14:16.545|56=OMPInitiator|10=060|8=FIX.4.2|9=68|35=0|34=666|49=FIXIMULATOR|52=20171206-22:14:47.546|56=OMPInitiator|10=066|8=FIX.4.2|9=68|35=0|34=667|49=FIXIMULATOR|52=20171206-22:15:18.545|56=OMPInitiator|10=065|8=FIX.4.2|9=68|35=0|34=668|49=FIXIMULATOR|52=20171206-22:15:49.547|56=OMPInitiator|10=072|8=FIX.4.2|9=68|35=0|34=669|49=FIXIMULATOR|52=20171206-22:16:20.547|56=OMPInitiator|10=063|8=FIX.4.2|9=68|35=0|34=670|49=FIXIMULATOR|52=20171206-22:16:50.548|56=OMPInitiator|10=059|8=FIX.4.2|9=68|35=0|34=671|49=FIXIMULATOR|52=20171206-22:17:21.544|56=OMPInitiator|10=055|8=FIX.4.2|9=68|35=0|34=672|49=FIXIMULATOR|52=20171206-22:17:51.547|56=OMPInitiator|10=062|8=FIX.4.2|9=68|35=0|34=673|49=FIXIMULATOR|52=20171206-22:18:22.548|56=OMPInitiator|10=063|8=FIX.4.2|9=68|35=0|34=674|49=FIXIMULATOR|52=20171206-22:18:52.549|56=OMPInitiator|10=068|8=FIX.4.2|9=68|35=0|34=675|49=FIXIMULATOR|52=20171206-22:19:23.548|56=OMPInitiator|10=067|8=FIX.4.2|9=68|35=0|34=676|49=FIXIMULATOR|52=20171206-22:19:53.551|56=OMPInitiator|10=065|8=FIX.4.2|9=68|35=0|34=677|49=FIXIMULATOR|52=20171206-22:20:23.552|56=OMPInitiator|10=056|8=FIX.4.2|9=68|35=0|34=678|49=FIXIMULATOR|52=20171206-22:20:53.552|56=OMPInitiator|10=060|8=FIX.4.2|9=80|35=A|34=679|49=FIXIMULATOR|52=20171206-22:21:31.492|56=OMPInitiator|98=0|108=30|10=097|8=FIX.4.2|9=127|35=3|34=680|49=FIXIMULATOR|52=20171206-22:21:37.726|56=OMPInitiator|45=692|58=Tag specified out of required order|371=34|372=D|10=205|8=FIX.4.2|9=68|35=0|34=681|49=FIXIMULATOR|52=20171206-22:22:08.473|56=OMPInitiator|10=058|8=FIX.4.2|9=127|35=3|34=682|49=FIXIMULATOR|52=20171206-22:22:19.323|56=OMPInitiator|45=694|58=Tag specified out of required order|371=34|372=D|10=203|8=FIX.4.2|9=68|35=0|34=683|49=FIXIMULATOR|52=20171206-22:22:49.466|56=OMPInitiator|10=067|8=FIX.4.2|9=68|35=0|34=684|49=FIXIMULATOR|52=20171206-22:23:19.469|56=OMPInitiator|10=069|8=FIX.4.2|9=68|35=0|34=685|49=FIXIMULATOR|52=20171206-22:23:49.472|56=OMPInitiator|10=067|8=FIX.4.2|9=178|35=8|34=686|49=FIXIMULATOR|52=20171206-22:24:10.319|56=OMPInitiator|6=0|11=asf1235axaf|14=0|17=E1512599050325|20=0|31=0|32=0|37=O1512596552288|38=0|39=4|54=1|55=EBAY|150=4|151=0|10=053|8=FIX.4.2|9=178|35=8|34=687|49=FIXIMULATOR|52=20171206-22:24:31.658|56=OMPInitiator|6=0|11=asf1235axaf|14=0|17=E1512599071665|20=0|31=0|32=0|37=O1512596552288|38=0|39=8|54=1|55=EBAY|150=8|151=0|10=081|8=FIX.4.2|9=68|35=0|34=688|49=FIXIMULATOR|52=20171206-22:25:02.558|56=OMPInitiator|10=066|8=FIX.4.2|9=68|35=0|34=689|49=FIXIMULATOR|52=20171206-22:25:33.555|56=OMPInitiator|10=068|8=FIX.4.2|9=68|35=0|34=690|49=FIXIMULATOR|52=20171206-22:26:03.559|56=OMPInitiator|10=062|8=FIX.4.2|9=68|35=0|34=691|49=FIXIMULATOR|52=20171206-22:26:34.560|56=OMPInitiator|10=059|8=FIX.4.2|9=68|35=0|34=692|49=FIXIMULATOR|52=20171206-22:27:05.557|56=OMPInitiator|10=065|8=FIX.4.2|9=68|35=0|34=693|49=FIXIMULATOR|52=20171206-22:27:35.560|56=OMPInitiator|10=063|8=FIX.4.2|9=68|35=0|34=694|49=FIXIMULATOR|52=20171206-22:28:06.562|56=OMPInitiator|10=065|8=FIX.4.2|9=68|35=0|34=695|49=FIXIMULATOR|52=20171206-22:28:36.563|56=OMPInitiator|10=070|8=FIX.4.2|9=68|35=0|34=696|49=FIXIMULATOR|52=20171206-22:29:07.559|56=OMPInitiator|10=075|8=FIX.4.2|9=68|35=0|34=697|49=FIXIMULATOR|52=20171206-22:29:37.559|56=OMPInitiator|10=079|8=FIX.4.2|9=68|35=0|34=698|49=FIXIMULATOR|52=20171206-22:30:07.564|56=OMPInitiator|10=065|8=FIX.4.2|9=68|35=0|34=699|49=FIXIMULATOR|52=20171206-22:30:38.565|56=OMPInitiator|10=071|8=FIX.4.2|9=68|35=0|34=700|49=FIXIMULATOR|52=20171206-22:31:09.561|56=OMPInitiator|10=049|8=FIX.4.2|9=68|35=0|34=701|49=FIXIMULATOR|52=20171206-22:31:39.563|56=OMPInitiator|10=055|8=FIX.4.2|9=68|35=0|34=702|49=FIXIMULATOR|52=20171206-22:32:09.567|56=OMPInitiator|10=058|8=FIX.4.2|9=68|35=0|34=703|49=FIXIMULATOR|52=20171206-22:32:40.564|56=OMPInitiator|10=051|8=FIX.4.2|9=68|35=0|34=704|49=FIXIMULATOR|52=20171206-22:33:10.565|56=OMPInitiator|10=051|8=FIX.4.2|9=80|35=A|34=705|49=FIXIMULATOR|52=20171206-22:33:41.078|56=OMPInitiator|98=0|108=30|10=091|8=FIX.4.2|9=127|35=3|34=706|49=FIXIMULATOR|52=20171206-22:33:47.748|56=OMPInitiator|45=718|58=Tag specified out of required order|371=34|372=D|10=211|8=FIX.4.2|9=68|35=0|34=707|49=FIXIMULATOR|52=20171206-22:34:18.003|56=OMPInitiator|10=050|8=FIX.4.2|9=68|35=0|34=708|49=FIXIMULATOR|52=20171206-22:34:48.567|56=OMPInitiator|10=069|8=FIX.4.2|9=68|35=0|34=709|49=FIXIMULATOR|52=20171206-22:35:18.569|56=OMPInitiator|10=070|8=FIX.4.2|9=68|35=0|34=710|49=FIXIMULATOR|52=20171206-22:35:48.571|56=OMPInitiator|10=058|8=FIX.4.2|9=68|35=0|34=711|49=FIXIMULATOR|52=20171206-22:36:18.571|56=OMPInitiator|10=057|8=FIX.4.2|9=68|35=0|34=712|49=FIXIMULATOR|52=20171206-22:36:48.572|56=OMPInitiator|10=062|8=FIX.4.2|9=68|35=0|34=713|49=FIXIMULATOR|52=20171206-22:37:19.573|56=OMPInitiator|10=063|8=FIX.4.2|9=68|35=0|34=714|49=FIXIMULATOR|52=20171206-22:37:50.572|56=OMPInitiator|10=058|8=FIX.4.2|9=68|35=0|34=715|49=FIXIMULATOR|52=20171206-22:38:21.571|56=OMPInitiator|10=057|8=FIX.4.2|9=68|35=0|34=716|49=FIXIMULATOR|52=20171206-22:38:51.571|56=OMPInitiator|10=061|8=FIX.4.2|9=68|35=0|34=717|49=FIXIMULATOR|52=20171206-22:39:21.575|56=OMPInitiator|10=064|8=FIX.4.2|9=68|35=0|34=718|49=FIXIMULATOR|52=20171206-22:39:52.574|56=OMPInitiator|10=068|8=FIX.4.2|9=68|35=0|34=719|49=FIXIMULATOR|52=20171206-22:40:22.575|56=OMPInitiator|10=059|8=FIX.4.2|9=68|35=0|34=720|49=FIXIMULATOR|52=20171206-22:40:53.576|56=OMPInitiator|10=056|8=FIX.4.2|9=68|35=0|34=721|49=FIXIMULATOR|52=20171206-22:41:23.577|56=OMPInitiator|10=056|8=FIX.4.2|9=68|35=0|34=722|49=FIXIMULATOR|52=20171206-22:41:54.576|56=OMPInitiator|10=060|8=FIX.4.2|9=68|35=0|34=723|49=FIXIMULATOR|52=20171206-22:42:25.579|56=OMPInitiator|10=063|8=FIX.4.2|9=68|35=0|34=724|49=FIXIMULATOR|52=20171206-22:42:56.579|56=OMPInitiator|10=068|8=FIX.4.2|9=68|35=0|34=725|49=FIXIMULATOR|52=20171206-22:43:27.577|56=OMPInitiator|10=066|8=FIX.4.2|9=68|35=0|34=726|49=FIXIMULATOR|52=20171206-22:43:57.579|56=OMPInitiator|10=072|8=FIX.4.2|9=68|35=0|34=727|49=FIXIMULATOR|52=20171206-22:44:27.581|56=OMPInitiator|10=064|8=FIX.4.2|9=68|35=0|34=728|49=FIXIMULATOR|52=20171206-22:44:58.579|56=OMPInitiator|10=076|8=FIX.4.2|9=80|35=A|34=729|49=FIXIMULATOR|52=20171206-22:45:15.237|56=OMPInitiator|98=0|108=30|10=098|8=FIX.4.2|9=68|35=0|34=730|49=FIXIMULATOR|52=20171206-22:45:45.578|56=OMPInitiator|10=065|8=FIX.4.2|9=68|35=0|34=731|49=FIXIMULATOR|52=20171206-22:46:15.582|56=OMPInitiator|10=059|