8=FIX.4.2|9=84|35=A|34=1|49=FIXIMULATOR|52=20171207-09:57:31.740|56=OMPInitiator|98=0|108=30|141=Y|10=040|8=FIX.4.2|9=66|35=0|34=2|49=FIXIMULATOR|52=20171207-09:58:01.757|56=OMPInitiator|10=216|8=FIX.4.2|9=66|35=0|34=3|49=FIXIMULATOR|52=20171207-09:58:31.757|56=OMPInitiator|10=220|8=FIX.4.2|9=66|35=0|34=4|49=FIXIMULATOR|52=20171207-09:59:02.508|56=OMPInitiator|10=214|8=FIX.4.2|9=66|35=0|34=5|49=FIXIMULATOR|52=20171207-09:59:32.757|56=OMPInitiator|10=224|8=FIX.4.2|9=66|35=0|34=6|49=FIXIMULATOR|52=20171207-10:00:03.754|56=OMPInitiator|10=198|8=FIX.4.2|9=66|35=0|34=7|49=FIXIMULATOR|52=20171207-10:00:33.756|56=OMPInitiator|10=204|8=FIX.4.2|9=66|35=0|34=8|49=FIXIMULATOR|52=20171207-10:01:03.757|56=OMPInitiator|10=204|8=FIX.4.2|9=66|35=0|34=9|49=FIXIMULATOR|52=20171207-10:01:33.758|56=OMPInitiator|10=209|8=FIX.4.2|9=67|35=0|34=10|49=FIXIMULATOR|52=20171207-10:02:03.759|56=OMPInitiator|10=249|8=FIX.4.2|9=67|35=0|34=11|49=FIXIMULATOR|52=20171207-10:02:34.760|56=OMPInitiator|10=246|8=FIX.4.2|9=67|35=0|34=12|49=FIXIMULATOR|52=20171207-10:03:04.762|56=OMPInitiator|10=247|8=FIX.4.2|9=67|35=0|34=13|49=FIXIMULATOR|52=20171207-10:03:35.762|56=OMPInitiator|10=252|8=FIX.4.2|9=67|35=0|34=14|49=FIXIMULATOR|52=20171207-10:04:06.759|56=OMPInitiator|10=002|8=FIX.4.2|9=67|35=0|34=15|49=FIXIMULATOR|52=20171207-10:04:36.760|56=OMPInitiator|10=254|8=FIX.4.2|9=67|35=0|34=16|49=FIXIMULATOR|52=20171207-10:05:06.760|56=OMPInitiator|10=253|8=FIX.4.2|9=67|35=0|34=17|49=FIXIMULATOR|52=20171207-10:05:36.761|56=OMPInitiator|10=002|8=FIX.4.2|9=67|35=0|34=18|49=FIXIMULATOR|52=20171207-10:06:06.761|56=OMPInitiator|10=001|8=FIX.4.2|9=67|35=0|34=19|49=FIXIMULATOR|52=20171207-10:06:36.761|56=OMPInitiator|10=005|8=FIX.4.2|9=67|35=0|34=20|49=FIXIMULATOR|52=20171207-10:07:06.762|56=OMPInitiator|10=252|8=FIX.4.2|9=67|35=0|34=21|49=FIXIMULATOR|52=20171207-10:07:36.765|56=OMPInitiator|10=003|8=FIX.4.2|9=67|35=0|34=22|49=FIXIMULATOR|52=20171207-10:08:07.764|56=OMPInitiator|10=002|8=FIX.4.2|9=67|35=0|34=23|49=FIXIMULATOR|52=20171207-10:08:37.764|56=OMPInitiator|10=006|8=FIX.4.2|9=67|35=0|34=24|49=FIXIMULATOR|52=20171207-10:09:08.764|56=OMPInitiator|10=006|8=FIX.4.2|9=67|35=0|34=25|49=FIXIMULATOR|52=20171207-10:09:38.765|56=OMPInitiator|10=011|8=FIX.4.2|9=67|35=0|34=26|49=FIXIMULATOR|52=20171207-10:10:09.768|56=OMPInitiator|10=005|8=FIX.4.2|9=67|35=0|34=27|49=FIXIMULATOR|52=20171207-10:10:40.768|56=OMPInitiator|10=001|8=FIX.4.2|9=67|35=0|34=28|49=FIXIMULATOR|52=20171207-10:11:10.770|56=OMPInitiator|10=249|8=FIX.4.2|9=67|35=0|34=29|49=FIXIMULATOR|52=20171207-10:11:41.770|56=OMPInitiator|10=254|8=FIX.4.2|9=67|35=0|34=30|49=FIXIMULATOR|52=20171207-10:12:11.771|56=OMPInitiator|10=245|8=FIX.4.2|9=67|35=0|34=31|49=FIXIMULATOR|52=20171207-10:12:42.768|56=OMPInitiator|10=000|8=FIX.4.2|9=67|35=0|34=32|49=FIXIMULATOR|52=20171207-10:13:12.768|56=OMPInitiator|10=255|8=FIX.4.2|9=177|35=8|34=33|49=FIXIMULATOR|52=20171207-10:13:31.400|56=OMPInitiator|6=0|11=asf1235axaf|14=0|17=E1512641611353|20=0|31=0|32=0|37=O1512640933477|38=0|39=0|54=1|55=EBAY|150=0|151=0|10=213|8=FIX.4.2|9=67|35=0|34=34|49=FIXIMULATOR|52=20171207-10:14:01.770|56=OMPInitiator|10=249|8=FIX.4.2|9=67|35=0|34=35|49=FIXIMULATOR|52=20171207-10:14:31.771|56=OMPInitiator|10=254|8=FIX.4.2|9=67|35=0|34=36|49=FIXIMULATOR|52=20171207-10:15:01.774|56=OMPInitiator|10=000|8=FIX.4.2|9=67|35=0|34=37|49=FIXIMULATOR|52=20171207-10:15:31.774|56=OMPInitiator|10=004|8=FIX.4.2|9=67|35=0|34=38|49=FIXIMULATOR|52=20171207-10:16:01.774|56=OMPInitiator|10=003|8=FIX.4.2|9=67|35=0|34=39|49=FIXIMULATOR|52=20171207-10:16:31.774|56=OMPInitiator|10=007|8=FIX.4.2|9=67|35=0|34=40|49=FIXIMULATOR|52=20171207-10:17:02.775|56=OMPInitiator|10=255|8=FIX.4.2|9=67|35=0|34=41|49=FIXIMULATOR|52=20171207-10:17:32.776|56=OMPInitiator|10=004|8=FIX.4.2|9=67|35=0|34=42|49=FIXIMULATOR|52=20171207-10:18:03.773|56=OMPInitiator|10=001|8=FIX.4.2|9=67|35=0|34=43|49=FIXIMULATOR|52=20171207-10:18:33.774|56=OMPInitiator|10=006|8=FIX.4.2|9=67|35=0|34=44|49=FIXIMULATOR|52=20171207-10:19:03.774|56=OMPInitiator|10=005|8=FIX.4.2|9=67|35=0|34=45|49=FIXIMULATOR|52=20171207-10:19:33.775|56=OMPInitiator|10=010|8=FIX.4.2|9=67|35=0|34=46|49=FIXIMULATOR|52=20171207-10:20:03.775|56=OMPInitiator|10=000|8=FIX.4.2|9=67|35=0|34=47|49=FIXIMULATOR|52=20171207-10:20:33.776|56=OMPInitiator|10=005|8=FIX.4.2|9=67|35=0|34=48|49=FIXIMULATOR|52=20171207-10:21:03.777|56=OMPInitiator|10=005|8=FIX.4.2|9=67|35=0|34=49|49=FIXIMULATOR|52=20171207-10:21:33.777|56=OMPInitiator|10=009|8=FIX.4.2|9=67|35=0|34=50|49=FIXIMULATOR|52=20171207-10:22:03.778|56=OMPInitiator|10=000|8=FIX.4.2|9=67|35=0|34=51|49=FIXIMULATOR|52=20171207-10:22:33.779|56=OMPInitiator|10=005|8=FIX.4.2|9=67|35=0|34=52|49=FIXIMULATOR|52=20171207-10:23:03.779|56=OMPInitiator|10=004|8=FIX.4.2|9=67|35=0|34=53|49=FIXIMULATOR|52=20171207-10:23:33.782|56=OMPInitiator|10=002|8=FIX.4.2|9=67|35=0|34=54|49=FIXIMULATOR|52=20171207-10:24:04.781|56=OMPInitiator|10=001|8=FIX.4.2|9=67|35=0|34=55|49=FIXIMULATOR|52=20171207-10:24:34.781|56=OMPInitiator|10=005|8=FIX.4.2|9=67|35=0|34=56|49=FIXIMULATOR|52=20171207-10:25:04.784|56=OMPInitiator|10=007|8=FIX.4.2|9=67|35=0|34=57|49=FIXIMULATOR|52=20171207-10:25:34.785|56=OMPInitiator|10=012|8=FIX.4.2|9=67|35=0|34=58|49=FIXIMULATOR|52=20171207-10:26:04.785|56=OMPInitiator|10=011|8=FIX.4.2|9=67|35=0|34=59|49=FIXIMULATOR|52=20171207-10:26:34.786|56=OMPInitiator|10=016|8=FIX.4.2|9=67|35=0|34=60|49=FIXIMULATOR|52=20171207-10:27:05.787|56=OMPInitiator|10=008|8=FIX.4.2|9=67|35=0|34=61|49=FIXIMULATOR|52=20171207-10:27:35.787|56=OMPInitiator|10=012|8=FIX.4.2|9=67|35=0|34=62|49=FIXIMULATOR|52=20171207-10:28:05.789|56=OMPInitiator|10=013|8=FIX.4.2|9=67|35=0|34=63|49=FIXIMULATOR|52=20171207-10:28:35.792|56=OMPInitiator|10=011|8=FIX.4.2|9=67|35=0|34=64|49=FIXIMULATOR|52=20171207-10:29:05.795|56=OMPInitiator|10=013|8=FIX.4.2|9=67|35=0|34=65|49=FIXIMULATOR|52=20171207-10:29:36.787|56=OMPInitiator|10=019|8=FIX.4.2|9=67|35=0|34=66|49=FIXIMULATOR|52=20171207-10:30:06.788|56=OMPInitiator|10=010|8=FIX.4.2|9=67|35=0|34=67|49=FIXIMULATOR|52=20171207-10:30:36.788|56=OMPInitiator|10=014|8=FIX.4.2|9=67|35=0|34=68|49=FIXIMULATOR|52=20171207-10:31:06.789|56=OMPInitiator|10=014|8=FIX.4.2|9=67|35=0|34=69|49=FIXIMULATOR|52=20171207-10:31:36.789|56=OMPInitiator|10=018|8=FIX.4.2|9=67|35=0|34=70|49=FIXIMULATOR|52=20171207-10:32:06.790|56=OMPInitiator|10=000|8=FIX.4.2|9=67|35=0|34=71|49=FIXIMULATOR|52=20171207-10:32:36.791|56=OMPInitiator|10=005|8=FIX.4.2|9=67|35=0|34=72|49=FIXIMULATOR|52=20171207-10:33:06.792|56=OMPInitiator|10=005|8=FIX.4.2|9=67|35=0|34=73|49=FIXIMULATOR|52=20171207-10:33:36.792|56=OMPInitiator|10=009|8=FIX.4.2|9=67|35=0|34=74|49=FIXIMULATOR|52=20171207-10:34:06.793|56=OMPInitiator|10=009|8=FIX.4.2|9=67|35=0|34=75|49=FIXIMULATOR|52=20171207-10:34:37.794|56=OMPInitiator|10=015|8=FIX.4.2|9=67|35=0|34=76|49=FIXIMULATOR|52=20171207-10:35:07.797|56=OMPInitiator|10=017|8=FIX.4.2|9=67|35=0|34=77|49=FIXIMULATOR|52=20171207-10:35:38.796|56=OMPInitiator|10=021|8=FIX.4.2|9=67|35=0|34=78|49=FIXIMULATOR|52=20171207-10:36:08.798|56=OMPInitiator|10=022|8=FIX.4.2|9=67|35=0|34=79|49=FIXIMULATOR|52=20171207-10:36:39.796|56=OMPInitiator|10=025|8=FIX.4.2|9=67|35=0|34=80|49=FIXIMULATOR|52=20171207-10:37:09.798|56=OMPInitiator|10=017|8=FIX.4.2|9=67|35=0|34=81|49=FIXIMULATOR|52=20171207-10:37:39.798|56=OMPInitiator|10=021|8=FIX.4.2|9=67|35=0|34=82|49=FIXIMULATOR|52=20171207-10:38:09.799|56=OMPInitiator|10=021|8=FIX.4.2|9=67|35=0|34=83|49=FIXIMULATOR|52=20171207-10:38:39.799|56=OMPInitiator|10=025|8=FIX.4.2|9=67|35=0|34=84|49=FIXIMULATOR|52=20171207-10:39:09.806|56=OMPInitiator|10=013|8=FIX.4.2|9=67|35=0|34=85|49=FIXIMULATOR|52=20171207-10:39:40.806|56=OMPInitiator|10=009|8=FIX.4.2|9=67|35=0|34=86|49=FIXIMULATOR|52=20171207-10:40:11.801|56=OMPInitiator|10=251|8=FIX.4.2|9=67|35=0|34=87|49=FIXIMULATOR|52=20171207-10:40:41.806|56=OMPInitiator|10=004|8=FIX.4.2|9=67|35=0|34=88|49=FIXIMULATOR|52=20171207-10:41:11.810|56=OMPInitiator|10=254|8=FIX.4.2|9=67|35=0|34=89|49=FIXIMULATOR|52=20171207-10:41:42.805|56=OMPInitiator|10=007|8=FIX.4.2|9=67|35=0|34=90|49=FIXIMULATOR|52=20171207-10:42:13.573|56=OMPInitiator|10=000|8=FIX.4.2|9=67|35=0|34=91|49=FIXIMULATOR|52=20171207-10:42:43.587|56=OMPInitiator|10=009|8=FIX.4.2|9=67|35=0|34=92|49=FIXIMULATOR|52=20171207-10:43:13.591|56=OMPInitiator|10=003|8=FIX.4.2|9=67|35=0|34=93|49=FIXIMULATOR|52=20171207-10:43:43.807|56=OMPInitiator|10=007|8=FIX.4.2|9=67|35=0|34=94|49=FIXIMULATOR|52=20171207-10:44:13.807|56=OMPInitiator|10=006|8=FIX.4.2|9=67|35=0|34=95|49=FIXIMULATOR|52=20171207-10:44:44.807|56=OMPInitiator|10=011|8=FIX.4.2|9=67|35=0|34=96|49=FIXIMULATOR|52=20171207-10:45:14.809|56=OMPInitiator|10=012|8=FIX.4.2|9=67|35=0|34=97|49=FIXIMULATOR|52=20171207-10:45:44.810|56=OMPInitiator|10=008|8=FIX.4.2|9=67|35=0|34=98|49=FIXIMULATOR|52=20171207-10:46:14.810|56=OMPInitiator|10=007|8=FIX.4.2|9=67|35=0|34=99|49=FIXIMULATOR|52=20171207-10:46:45.809|56=OMPInitiator|10=020|8=FIX.4.2|9=68|35=0|34=100|49=FIXIMULATOR|52=20171207-10:47:15.809|56=OMPInitiator|10=050|8=FIX.4.2|9=68|35=0|34=101|49=FIXIMULATOR|52=20171207-10:47:45.809|56=OMPInitiator|10=054|8=FIX.4.2|9=68|35=0|34=102|49=FIXIMULATOR|52=20171207-10:48:15.811|56=OMPInitiator|10=046|8=FIX.4.2|9=68|35=0|34=103|49=FIXIMULATOR|52=20171207-10:48:45.811|56=OMPInitiator|10=050|8=FIX.4.2|9=68|35=0|34=104|49=FIXIMULATOR|52=20171207-10:49:15.812|56=OMPInitiator|10=050|8=FIX.4.2|9=68|35=0|34=105|49=FIXIMULATOR|52=20171207-10:49:45.816|56=OMPInitiator|10=058|8=FIX.4.2|9=68|35=0|34=106|49=FIXIMULATOR|52=20171207-10:50:15.816|56=OMPInitiator|10=048|8=FIX.4.2|9=68|35=0|34=107|49=FIXIMULATOR|52=20171207-10:50:46.813|56=OMPInitiator|10=050|8=FIX.4.2|9=68|35=0|34=108|49=FIXIMULATOR|52=20171207-10:51:16.817|56=OMPInitiator|10=053|8=FIX.4.2|9=68|35=0|34=109|49=FIXIMULATOR|52=20171207-10:51:47.818|56=OMPInitiator|10=059|8=FIX.4.2|9=68|35=0|34=110|49=FIXIMULATOR|52=20171207-10:52:18.816|56=OMPInitiator|10=048|8=FIX.4.2|9=68|35=0|34=111|49=FIXIMULATOR|52=20171207-10:52:48.816|56=OMPInitiator|10=052|8=FIX.4.2|9=68|35=0|34=112|49=FIXIMULATOR|52=20171207-10:53:19.818|56=OMPInitiator|10=054|8=FIX.4.2|9=68|35=0|34=113|49=FIXIMULATOR|52=20171207-10:53:49.820|56=OMPInitiator|10=051|8=FIX.4.2|9=68|35=0|34=114|49=FIXIMULATOR|52=20171207-10:54:20.818|56=OMPInitiator|10=049|8=FIX.4.2|9=68|35=0|34=115|49=FIXIMULATOR|52=20171207-10:54:50.821|56=OMPInitiator|10=047|8=FIX.4.2|9=68|35=0|34=116|49=FIXIMULATOR|52=20171207-10:55:21.820|56=OMPInitiator|10=046|8=FIX.4.2|9=68|35=0|34=117|49=FIXIMULATOR|52=20171207-10:55:51.820|56=OMPInitiator|10=050|8=FIX.4.2|9=68|35=0|34=118|49=FIXIMULATOR|52=20171207-10:56:21.824|56=OMPInitiator|10=053|8=FIX.4.2|9=68|35=0|34=119|49=FIXIMULATOR|52=20171207-10:56:52.822|56=OMPInitiator|10=056|8=FIX.4.2|9=68|35=0|34=120|49=FIXIMULATOR|52=20171207-10:57:22.822|56=OMPInitiator|10=046|8=FIX.4.2|9=68|35=0|34=121|49=FIXIMULATOR|52=20171207-10:57:52.824|56=OMPInitiator|10=052|8=FIX.4.2|9=68|35=0|34=122|49=FIXIMULATOR|52=20171207-10:58:22.825|56=OMPInitiator|10=052|8=FIX.4.2|9=68|35=0|34=123|49=FIXIMULATOR|52=20171207-10:58:52.827|56=OMPInitiator|10=058|8=FIX.4.2|9=68|35=0|34=124|49=FIXIMULATOR|52=20171207-10:59:22.827|56=OMPInitiator|10=057|8=FIX.4.2|9=68|35=0|34=125|49=FIXIMULATOR|52=20171207-10:59:53.826|56=OMPInitiator|10=061|8=FIX.4.2|9=68|35=0|34=126|49=FIXIMULATOR|52=20171207-11:00:23.829|56=OMPInitiator|10=049|8=FIX.4.2|9=68|35=0|34=127|49=FIXIMULATOR|52=20171207-11:00:54.827|56=OMPInitiator|10=052|8=FIX.4.2|9=68|35=0|34=128|49=FIXIMULATOR|52=20171207-11:01:24.827|56=OMPInitiator|10=051|8=FIX.4.2|9=68|35=0|34=129|49=FIXIMULATOR|52=20171207-11:01:54.828|56=OMPInitiator|10=056|8=FIX.4.2|9=68|35=0|34=130|49=FIXIMULATOR|52=20171207-11:02:24.829|56=OMPInitiator|10=047|8=FIX.4.2|9=68|35=0|34=131|49=FIXIMULATOR|52=20171207-11:02:54.829|56=OMPInitiator|10=051|8=FIX.4.2|9=68|35=0|34=132|49=FIXIMULATOR|52=20171207-11:03:24.830|56=OMPInitiator|10=042|8=FIX.4.2|9=68|35=0|34=133|49=FIXIMULATOR|52=20171207-11:03:54.830|56=OMPInitiator|10=046|8=FIX.4.2|9=68|35=0|34=134|49=FIXIMULATOR|52=20171207-11:04:24.833|56=OMPInitiator|10=048|8=FIX.4.2|9=68|35=0|34=135|49=FIXIMULATOR|52=20171207-11:04:55.832|56=OMPInitiator|10=052|8=FIX.4.2|9=68|35=0|34=136|49=FIXIMULATOR|52=20171207-11:05:26.832|56=OMPInitiator|10=052|8=FIX.4.2|9=68|35=0|34=137|49=FIXIMULATOR|52=20171207-11:05:57.833|56=OMPInitiator|10=058|8=FIX.4.2|9=68|35=0|34=138|49=FIXIMULATOR|52=20171207-11:06:28.834|56=OMPInitiator|10=059|8=FIX.4.2|9=68|35=0|34=139|49=FIXIMULATOR|52=20171207-11:06:58.835|56=OMPInitiator|10=064|8=FIX.4.2|9=68|35=0|34=140|49=FIXIMULATOR|52=20171207-11:07:28.838|56=OMPInitiator|10=057|8=FIX.4.2|9=68|35=0|34=141|49=FIXIMULATOR|52=20171207-11:07:59.837|56=OMPInitiator|10=061|8=FIX.4.2|9=68|35=0|34=142|49=FIXIMULATOR|52=20171207-11:08:29.839|56=OMPInitiator|10=062|8=FIX.4.2|9=68|35=0|34=143|49=FIXIMULATOR|52=20171207-11:09:00.836|56=OMPInitiator|10=050|8=FIX.4.2|9=68|35=0|34=144|49=FIXIMULATOR|52=20171207-11:09:30.837|56=OMPInitiator|10=055|8=FIX.4.2|9=68|35=0|34=145|49=FIXIMULATOR|52=20171207-11:10:00.838|56=OMPInitiator|10=046|8=FIX.4.2|9=68|35=0|34=146|49=FIXIMULATOR|52=20171207-11:10:30.838|56=OMPInitiator|10=050|8=FIX.4.2|9=68|35=0|34=147|49=FIXIMULATOR|52=20171207-11:11:00.841|56=OMPInitiator|10=043|8=FIX.4.2|9=68|35=0|34=148|49=FIXIMULATOR|52=20171207-11:11:31.842|56=OMPInitiator|10=049|8=FIX.4.2|9=68|35=0|34=149|49=FIXIMULATOR|52=20171207-11:12:02.844|56=OMPInitiator|10=051|8=FIX.4.2|9=68|35=0|34=150|49=FIXIMULATOR|52=20171207-11:12:32.844|56=OMPInitiator|10=046|8=FIX.4.2|9=68|35=0|34=151|49=FIXIMULATOR|52=20171207-11:13:02.845|56=OMPInitiator|10=046|8=FIX.4.2|9=68|35=0|34=152|49=FIXIMULATOR|52=20171207-11:13:33.841|56=OMPInitiator|10=047|8=FIX.4.2|9=68|35=0|34=153|49=FIXIMULATOR|52=20171207-11:14:03.842|56=OMPInitiator|10=047|8=FIX.4.2|9=68|35=0|34=154|49=FIXIMULATOR|52=20171207-11:14:33.846|56=OMPInitiator|10=055|8=FIX.4.2|9=68|35=0|34=155|49=FIXIMULATOR|52=20171207-11:15:04.847|56=OMPInitiator|10=056|8=FIX.4.2|9=68|35=0|34=156|49=FIXIMULATOR|52=20171207-11:15:35.848|56=OMPInitiator|10=062|8=FIX.4.2|9=80|35=A|34=157|49=FIXIMULATOR|52=20171207-11:16:16.383|56=OMPInitiator|98=0|108=30|10=093|8=FIX.4.2|9=68|35=0|34=158|49=FIXIMULATOR|52=20171207-11:16:46.849|56=OMPInitiator|10=068|8=FIX.4.2|9=68|35=0|34=159|49=FIXIMULATOR|52=20171207-11:17:16.850|56=OMPInitiator|10=059|8=FIX.4.2|9=68|35=0|34=160|49=FIXIMULATOR|52=20171207-11:17:47.847|56=OMPInitiator|10=061|8=FIX.4.2|9=178|35=8|34=161|49=FIXIMULATOR|52=20171207-11:18:05.874|56=OMPInitiator|6=0|11=asf1235axaf|14=0|17=E1512645485876|20=0|31=0|32=0|37=O1512645397907|38=0|39=4|54=1|55=EBAY|150=4|151=0|10=068|8=FIX.4.2|9=68|35=0|34=162|49=FIXIMULATOR|52=20171207-11:18:36.848|56=OMPInitiator|10=063|8=FIX.4.2|9=68|35=0|34=163|49=FIXIMULATOR|52=20171207-11:19:06.850|56=OMPInitiator|10=055|8=FIX.4.2|9=80|35=A|34=164|49=FIXIMULATOR|52=20171207-11:19:25.542|56=OMPInitiator|98=0|108=30|10=091|8=FIX.4.2|9=68|35=0|34=165|49=FIXIMULATOR|52=20171207-11:19:55.852|56=OMPInitiator|10=063|8=FIX.4.2|9=68|35=0|34=166|49=FIXIMULATOR|52=20171207-11:20:26.850|56=OMPInitiator|10=052|8=FIX.4.2|9=180|35=8|34=167|49=FIXIMULATOR|52=20171207-11:20:43.667|56=OMPInitiator|6=0|11=asf1235axaf|14=0|17=E1512645643670|20=0|31=0|32=0|37=O1512645616636|38=10|39=0|54=1|55=EBAY|150=0|151=10|10=133|8=FIX.4.2|9=68|35=0|34=168|49=FIXIMULATOR|52=20171207-11:21:13.851|56=OMPInitiator|10=052|8=FIX.4.2|9=68|35=0|34=169|49=FIXIMULATOR|52=20171207-11:21:43.854|56=OMPInitiator|10=059|8=FIX.4.2|9=68|35=0|34=170|49=FIXIMULATOR|52=20171207-11:22:13.856|56=OMPInitiator|10=051|8=FIX.4.2|9=68|35=0|34=171|49=FIXIMULATOR|52=20171207-11:22:44.852|56=OMPInitiator|10=052|8=FIX.4.2|9=68|35=0|34=172|49=FIXIMULATOR|52=20171207-11:23:14.855|56=OMPInitiator|10=054|8=FIX.4.2|9=68|35=0|34=173|49=FIXIMULATOR|52=20171207-11:23:44.858|56=OMPInitiator|10=061|8=FIX.4.2|9=68|35=0|34=174|49=FIXIMULATOR|52=20171207-11:24:14.858|56=OMPInitiator|10=060|8=FIX.4.2|9=68|35=0|34=175|49=FIXIMULATOR|52=20171207-11:24:45.856|56=OMPInitiator|10=063|8=FIX.4.2|9=68|35=0|34=176|49=FIXIMULATOR|52=20171207-11:25:15.856|56=OMPInitiator|10=062|8=FIX.4.2|9=68|35=0|34=177|49=FIXIMULATOR|52=20171207-11:25:45.857|56=OMPInitiator|10=067|8=FIX.4.2|9=68|35=0|34=178|49=FIXIMULATOR|52=20171207-11:26:15.857|56=OMPInitiator|10=066|8=FIX.4.2|9=68|35=0|34=179|49=FIXIMULATOR|52=20171207-11:26:45.858|56=OMPInitiator|10=071|8=FIX.4.2|9=185|35=8|34=180|49=FIXIMULATOR|52=20171207-11:27:12.477|56=OMPInitiator|6=5.3|11=asf1235axaf|14=10|17=E1512646010533|20=0|31=5.3|32=10|37=O1512645616636|38=10|39=2|54=1|55=EBAY|150=2|151=0|10=123|8=FIX.4.2|9=68|35=0|34=181|49=FIXIMULATOR|52=20171207-11:27:42.859|56=OMPInitiator|10=063|8=FIX.4.2|9=68|35=0|34=182|49=FIXIMULATOR|52=20171207-11:28:12.860|56=OMPInitiator|10=054|8=FIX.4.2|9=68|35=0|34=183|49=FIXIMULATOR|52=20171207-11:28:43.861|56=OMPInitiator|10=060|8=FIX.4.2|9=68|35=0|34=184|49=FIXIMULATOR|52=20171207-11:29:13.862|56=OMPInitiator|10=060|8=FIX.4.2|9=68|35=0|34=185|49=FIXIMULATOR|52=20171207-11:29:43.862|56=OMPInitiator|10=064|8=FIX.4.2|9=68|35=0|34=186|49=FIXIMULATOR|52=20171207-11:30:13.862|56=OMPInitiator|10=054|8=FIX.4.2|9=68|35=0|34=187|49=FIXIMULATOR|52=20171207-11:30:43.866|56=OMPInitiator|10=062|8=FIX.4.2|9=68|35=0|34=188|49=FIXIMULATOR|52=20171207-11:31:13.867|56=OMPInitiator|10=062|8=FIX.4.2|9=178|35=8|34=189|49=FIXIMULATOR|52=20171207-11:31:30.174|56=OMPInitiator|6=0|11=asf1235axaf|14=0|17=E1512646290179|20=0|31=0|32=0|37=O1512640933477|38=0|39=3|54=1|55=EBAY|150=3|151=0|10=046|8=FIX.4.2|9=68|35=0|34=190|49=FIXIMULATOR|52=20171207-11:32:00.867|56=OMPInitiator|10=052|8=FIX.4.2|9=68|35=0|34=191|49=FIXIMULATOR|52=20171207-11:32:31.867|56=OMPInitiator|10=057|8=FIX.4.2|9=68|35=0|34=192|49=FIXIMULATOR|52=20171207-11:33:02.864|56=OMPInitiator|10=054|8=FIX.4.2|9=68|35=0|34=193|49=FIXIMULATOR|52=20171207-11:33:32.868|56=OMPInitiator|10=062|8=FIX.4.2|9=68|35=0|34=194|49=FIXIMULATOR|52=20171207-11:34:02.869|56=OMPInitiator|10=062|8=FIX.4.2|9=68|35=0|34=195|49=FIXIMULATOR|52=20171207-11:34:32.871|56=OMPInitiator|10=059|8=FIX.4.2|9=68|35=0|34=196|49=FIXIMULATOR|52=20171207-11:35:03.870|56=OMPInitiator|10=058|8=FIX.4.2|9=68|35=0|34=197|49=FIXIMULATOR|52=20171207-11:35:34.869|56=OMPInitiator|10=071|8=FIX.4.2|9=68|35=0|34=198|49=FIXIMULATOR|52=20171207-11:36:04.871|56=OMPInitiator|10=063|8=FIX.4.2|9=68|35=0|34=199|49=FIXIMULATOR|52=20171207-11:36:35.873|56=OMPInitiator|10=070|8=FIX.4.2|9=68|35=0|34=200|49=FIXIMULATOR|52=20171207-11:37:05.874|56=OMPInitiator|10=052|8=FIX.4.2|9=68|35=0|34=201|49=FIXIMULATOR|52=20171207-11:37:36.873|56=OMPInitiator|10=056|8=FIX.4.2|9=68|35=0|34=202|49=FIXIMULATOR|52=20171207-11:38:07.870|56=OMPInitiator|10=053|8=FIX.4.2|9=68|35=0|34=203|49=FIXIMULATOR|52=20171207-11:38:37.875|56=OMPInitiator|10=062|8=FIX.4.2|9=68|35=0|34=204|49=FIXIMULATOR|52=20171207-11:39:07.875|56=OMPInitiator|10=061|8=FIX.4.2|9=68|35=0|34=205|49=FIXIMULATOR|52=20171207-11:39:38.875|56=OMPInitiator|10=066|8=FIX.4.2|9=68|35=0|34=206|49=FIXIMULATOR|52=20171207-11:40:08.877|56=OMPInitiator|10=058|8=FIX.4.2|9=68|35=0|34=207|49=FIXIMULATOR|52=20171207-11:40:38.877|56=OMPInitiator|10=062|8=FIX.4.2|9=68|35=0|34=208|49=FIXIMULATOR|52=20171207-11:41:09.877|56=OMPInitiator|10=062|8=FIX.4.2|9=68|35=0|34=209|49=FIXIMULATOR|52=20171207-11:41:40.877|56=OMPInitiator|10=058|8=FIX.4.2|9=68|35=0|34=210|49=FIXIMULATOR|52=20171207-11:42:10.877|56=OMPInitiator|10=048|8=FIX.4.2|9=68|35=0|34=211|49=FIXIMULATOR|52=20171207-11:42:40.881|56=OMPInitiator|10=047|8=FIX.4.2|9=68|35=0|34=212|49=FIXIMULATOR|52=20171207-11:43:11.881|56=OMPInitiator|10=047|8=FIX.4.2|9=68|35=0|34=213|49=FIXIMULATOR|52=20171207-11:43:42.878|56=OMPInitiator|10=058|8=FIX.4.2|9=68|35=0|34=214|49=FIXIMULATOR|52=20171207-11:44:12.879|56=OMPInitiator|10=058|8=FIX.4.2|9=68|35=0|34=215|49=FIXIMULATOR|52=20171207-11:44:42.879|56=OMPInitiator|10=062|8=FIX.4.2|9=68|35=0|34=216|49=FIXIMULATOR|52=20171207-11:45:12.880|56=OMPInitiator|10=053|8=FIX.4.2|9=68|35=0|34=217|49=FIXIMULATOR|52=20171207-11:45:42.881|56=OMPInitiator|10=058|8=FIX.4.2|9=68|35=0|34=218|49=FIXIMULATOR|52=20171207-11:46:12.881|56=OMPInitiator|10=057|8=FIX.4.2|9=68|35=0|34=219|49=FIXIMULATOR|52=20171207-11:46:42.882|56=OMPInitiator|10=062|8=FIX.4.2|9=68|35=0|34=220|49=FIXIMULATOR|52=20171207-11:47:12.883|56=OMPInitiator|10=053|8=FIX.4.2|9=68|35=0|34=221|49=FIXIMULATOR|52=20171207-11:47:42.883|56=OMPInitiator|10=057|8=FIX.4.2|9=68|35=0|34=222|49=FIXIMULATOR|52=20171207-11:48:12.884|56=OMPInitiator|10=057|8=FIX.4.2|9=68|35=0|34=223|49=FIXIMULATOR|52=20171207-11:48:42.884|56=OMPInitiator|10=061|8=FIX.4.2|9=68|35=0|34=224|49=FIXIMULATOR|52=20171207-11:49:12.898|56=OMPInitiator|10=065|8=FIX.4.2|9=68|35=0|34=225|49=FIXIMULATOR|52=20171207-11:49:43.894|56=OMPInitiator|10=066|8=FIX.4.2|9=68|35=0|34=226|49=FIXIMULATOR|52=20171207-11:50:14.893|56=OMPInitiator|10=056|8=FIX.4.2|9=68|35=0|34=227|49=FIXIMULATOR|52=20171207-11:50:45.887|56=OMPInitiator|10=064|8=FIX.4.2|9=68|35=0|34=228|49=FIXIMULATOR|52=20171207-11:51:15.887|56=OMPInitiator|10=063|8=FIX.4.2|9=68|35=0|34=229|49=FIXIMULATOR|52=20171207-11:51:45.888|56=OMPInitiator|10=068|8=FIX.4.2|9=68|35=0|34=230|49=FIXIMULATOR|52=20171207-11:52:15.889|56=OMPInitiator|10=059|8=FIX.4.2|9=68|35=0|34=231|49=FIXIMULATOR|52=20171207-11:52:45.889|56=OMPInitiator|10=063|8=FIX.4.2|9=68|35=0|34=232|49=FIXIMULATOR|52=20171207-11:53:15.890|56=OMPInitiator|10=054|8=FIX.4.2|9=68|35=0|34=233|49=FIXIMULATOR|52=20171207-11:53:45.890|56=OMPInitiator|10=058|8=FIX.4.2|9=68|35=0|34=234|49=FIXIMULATOR|52=20171207-11:54:15.890|56=OMPInitiator|10=057|8=FIX.4.2|9=68|35=0|34=235|49=FIXIMULATOR|52=20171207-11:54:45.892|56=OMPInitiator|10=063|8=FIX.4.2|9=68|35=0|34=236|49=FIXIMULATOR|52=20171207-11:55:15.892|56=OMPInitiator|10=062|8=FIX.4.2|9=68|35=0|34=237|49=FIXIMULATOR|52=20171207-11:55:45.893|56=OMPInitiator|10=067|8=FIX.4.2|9=68|35=0|34=238|49=FIXIMULATOR|52=20171207-11:56:15.893|56=OMPInitiator|10=066|8=FIX.4.2|9=68|35=0|34=239|49=FIXIMULATOR|52=20171207-11:56:45.894|56=OMPInitiator|10=071|8=FIX.4.2|9=68|35=0|34=240|49=FIXIMULATOR|52=20171207-11:57:15.894|56=OMPInitiator|10=061|8=FIX.4.2|9=68|35=0|34=241|49=FIXIMULATOR|52=20171207-11:57:45.894|56=OMPInitiator|10=065|8=FIX.4.2|9=68|35=0|34=242|49=FIXIMULATOR|52=20171207-11:58:15.896|56=OMPInitiator|10=066|8=FIX.4.2|9=68|35=0|34=243|49=FIXIMULATOR|52=20171207-11:58:45.896|56=OMPInitiator|10=070|8=FIX.4.2|9=68|35=0|34=244|49=FIXIMULATOR|52=20171207-11:59:15.897|56=OMPInitiator|10=070|8=FIX.4.2|9=68|35=0|34=245|49=FIXIMULATOR|52=20171207-11:59:45.899|56=OMPInitiator|10=076|8=FIX.4.2|9=68|35=0|34=246|49=FIXIMULATOR|52=20171207-12:00:16.899|56=OMPInitiator|10=062|8=FIX.4.2|9=68|35=0|34=247|49=FIXIMULATOR|52=20171207-12:00:46.899|56=OMPInitiator|10=066|8=FIX.4.2|9=68|35=0|34=248|49=FIXIMULATOR|52=20171207-12:01:16.902|56=OMPInitiator|10=050|8=FIX.4.2|9=68|35=0|34=249|49=FIXIMULATOR|52=20171207-12:01:46.903|56=OMPInitiator|10=055|8=FIX.4.2|9=68|35=0|34=250|49=FIXIMULATOR|52=20171207-12:02:16.904|56=OMPInitiator|10=046|8=FIX.4.2|9=68|35=0|34=251|49=FIXIMULATOR|52=20171207-12:02:47.559|56=OMPInitiator|10=057|8=FIX.4.2|9=68|35=0|34=252|49=FIXIMULATOR|52=20171207-12:03:17.905|56=OMPInitiator|10=051|8=FIX.4.2|9=68|35=0|34=253|49=FIXIMULATOR|52=20171207-12:03:47.906|56=OMPInitiator|10=056|8=FIX.4.2|9=68|35=0|34=254|49=FIXIMULATOR|52=20171207-12:04:18.903|56=OMPInitiator|10=053|8=FIX.4.2|9=68|35=0|34=255|49=FIXIMULATOR|52=20171207-12:04:48.903|56=OMPInitiator|10=057|8=FIX.4.2|9=68|35=0|34=256|49=FIXIMULATOR|52=20171207-12:05:18.904|56=OMPInitiator|10=057|8=FIX.4.2|9=68|35=0|34=257|49=FIXIMULATOR|52=20171207-12:05:48.907|56=OMPInitiator|10=064|8=FIX.4.2|9=68|35=0|34=258|49=FIXIMULATOR|52=20171207-12:06:19.908|56=OMPInitiator|10=065|8=FIX.4.2|9=68|35=0|34=259|49=FIXIMULATOR|52=20171207-12:06:50.905|56=OMPInitiator|10=058|8=FIX.4.2|9=68|35=0|34=260|49=FIXIMULATOR|52=20171207-12:07:20.908|56=OMPInitiator|10=051|8=FIX.4.2|9=68|35=0|34=261|49=FIXIMULATOR|52=20171207-12:07:50.909|56=OMPInitiator|10=056|8=FIX.4.2|9=68|35=0|34=262|49=FIXIMULATOR|52=20171207-12:08:20.910|56=OMPInitiator|10=047|8=FIX.4.2|9=68|35=0|34=263|49=FIXIMULATOR|52=20171207-12:08:51.908|56=OMPInitiator|10=059|8=FIX.4.2|9=68|35=0|34=264|49=FIXIMULATOR|52=20171207-12:09:21.909|56=OMPInitiator|10=059|8=FIX.4.2|9=68|35=0|34=265|49=FIXIMULATOR|52=20171207-12:09:51.910|56=OMPInitiator|10=055|8=FIX.4.2|9=68|35=0|34=266|49=FIXIMULATOR|52=20171207-12:10:21.910|56=OMPInitiator|10=045|8=FIX.4.2|9=68|35=0|34=267|49=FIXIMULATOR|52=20171207-12:10:51.911|56=OMPInitiator|10=050|8=FIX.4.2|9=68|35=0|34=268|49=FIXIMULATOR|52=20171207-12:11:21.912|56=OMPInitiator|10=050|8=FIX.4.2|9=68|35=0|34=269|49=FIXIMULATOR|52=20171207-12:11:51.912|56=OMPInitiator|10=054|8=FIX.4.2|9=68|35=0|34=270|49=FIXIMULATOR|52=20171207-12:12:21.913|56=OMPInitiator|10=045|8=FIX.4.2|9=68|35=0|34=271|49=FIXIMULATOR|52=20171207-12:12:51.913|56=OMPInitiator|10=049|8=FIX.4.2|9=68|35=0|34=272|49=FIXIMULATOR|52=20171207-12:13:21.914|56=OMPInitiator|10=049|8=FIX.4.2|9=68|35=0|34=273|49=FIXIMULATOR|52=20171207-12:13:51.915|56=OMPInitiator|10=054|8=FIX.4.2|9=68|35=0|34=274|49=FIXIMULATOR|52=20171207-12:14:21.915|56=OMPInitiator|10=053|8=FIX.4.2|9=68|35=0|34=275|49=FIXIMULATOR|52=20171207-12:14:51.916|56=OMPInitiator|10=058|8=FIX.4.2|9=68|35=0|34=276|49=FIXIMULATOR|52=20171207-12:15:21.916|56=OMPInitiator|10=057|8=FIX.4.2|9=68|35=0|34=277|49=FIXIMULATOR|52=20171207-12:15:51.917|56=OMPInitiator|10=062|8=FIX.4.2|9=68|35=0|34=278|49=FIXIMULATOR|52=20171207-12:16:21.918|56=OMPInitiator|10=062|8=FIX.4.2|9=68|35=0|34=279|49=FIXIMULATOR|52=20171207-12:16:51.918|56=OMPInitiator|10=066|8=FIX.4.2|9=68|35=0|34=280|49=FIXIMULATOR|52=20171207-12:17:21.919|56=OMPInitiator|10=057|8=FIX.4.2|9=68|35=0|34=281|49=FIXIMULATOR|52=20171207-12:17:51.920|56=OMPInitiator|10=053|8=FIX.4.2|9=80|35=A|34=282|49=FIXIMULATOR|52=20171207-12:21:13.712|56=OMPInitiator|98=0|108=30|10=082|8=FIX.4.2|9=68|35=0|34=283|49=FIXIMULATOR|52=20171207-12:21:44.048|56=OMPInitiator|10=053|8=FIX.4.2|9=68|35=0|34=284|49=FIXIMULATOR|52=20171207-12:22:14.049|56=OMPInitiator|10=053|8=FIX.4.2|9=68|35=0|34=285|49=FIXIMULATOR|52=20171207-12:22:45.046|56=OMPInitiator|10=055|8=FIX.4.2|9=68|35=0|34=286|49=FIXIMULATOR|52=20171207-12:23:16.045|56=OMPInitiator|10=054|8=FIX.4.2|9=68|35=0|34=287|49=FIXIMULATOR|52=20171207-12:23:46.050|56=OMPInitiator|10=054|8=FIX.4.2|9=68|35=0|34=288|49=FIXIMULATOR|52=20171207-12:24:17.047|56=OMPInitiator|10=060|8=FIX.4.2|9=68|35=0|34=289|49=FIXIMULATOR|52=20171207-12:24:47.052|56=OMPInitiator|10=060|8=FIX.4.2|9=68|35=0|34=290|49=FIXIMULATOR|52=20171207-12:25:18.051|56=OMPInitiator|10=050|8=FIX.4.2|9=68|35=0|34=291|49=FIXIMULATOR|52=20171207-12:25:49.053|56=OMPInitiator|10=057|8=FIX.4.2|9=68|35=0|34=292|49=FIXIMULATOR|52=20171207-12:26:19.053|56=OMPInitiator|10=056|8=FIX.4.2|9=68|35=0|34=293|49=FIXIMULATOR|52=20171207-12:26:49.054|56=OMPInitiator|10=061|8=FIX.4.2|9=68|35=0|34=294|49=FIXIMULATOR|52=20171207-12:27:19.054|56=OMPInitiator|10=060|8=FIX.4.2|9=68|35=0|34=295|49=FIXIMULATOR|52=20171207-12:27:50.055|56=OMPInitiator|10=057|8=FIX.4.2|9=68|35=0|34=296|49=FIXIMULATOR|52=20171207-12:28:21.053|56=OMPInitiator|10=055|8=FIX.4.2|9=68|35=0|34=297|49=FIXIMULATOR|52=20171207-12:28:51.053|56=OMPInitiator|10=059|8=FIX.4.2|9=68|35=0|34=298|49=FIXIMULATOR|52=20171207-12:29:21.054|56=OMPInitiator|10=059|8=FIX.4.2|9=68|35=0|34=299|49=FIXIMULATOR|52=20171207-12:29:51.054|56=OMPInitiator|10=063|8=FIX.4.2|9=68|35=0|34=300|49=FIXIMULATOR|52=20171207-12:30:21.056|56=OMPInitiator|10=037|8=FIX.4.2|9=68|35=0|34=301|49=FIXIMULATOR|52=20171207-12:30:52.058|56=OMPInitiator|10=044|8=FIX.4.2|9=68|35=0|34=302|49=FIXIMULATOR|52=20171207-12:31:22.059|56=OMPInitiator|10=044|8=FIX.4.2|9=68|35=0|34=303|49=FIXIMULATOR|52=20171207-12:31:52.060|56=OMPInitiator|10=040|8=FIX.4.2|9=68|35=0|34=304|49=FIXIMULATOR|52=20171207-12:32:22.061|56=OMPInitiator|10=040|8=FIX.4.2|9=68|35=0|34=305|49=FIXIMULATOR|52=20171207-12:32:53.061|56=OMPInitiator|10=045|8=FIX.4.2|9=68|35=0|34=306|49=FIXIMULATOR|52=20171207-12:33:23.062|56=OMPInitiator|10=045|8=FIX.4.2|9=68|35=0|34=307|49=FIXIMULATOR|52=20171207-12:33:54.059|56=OMPInitiator|10=056|8=FIX.4.2|9=68|35=0|34=308|49=FIXIMULATOR|52=20171207-12:34:24.061|56=OMPInitiator|10=048|8=FIX.4.2|9=68|35=0|34=309|49=FIXIMULATOR|52=20171207-12:34:54.069|56=OMPInitiator|10=060|8=FIX.4.2|9=68|35=0|34=310|49=FIXIMULATOR|52=20171207-12:35:25.062|56=OMPInitiator|10=044|8=FIX.4.2|9=68|35=0|34=311|49=FIXIMULATOR|52=20171207-12:35:55.064|56=OMPInitiator|10=050|8=FIX.4.2|9=68|35=0|34=312|49=FIXIMULATOR|52=20171207-12:36:26.063|56=OMPInitiator|10=049|8=FIX.4.2|9=68|35=0|34=313|49=FIXIMULATOR|52=20171207-12:36:56.066|56=OMPInitiator|10=056|8=FIX.4.2|9=68|35=0|34=314|49=FIXIMULATOR|52=20171207-12:37:27.063|56=OMPInitiator|10=053|8=FIX.4.2|9=68|35=0|34=315|49=FIXIMULATOR|52=20171207-12:37:57.067|56=OMPInitiator|10=061|8=FIX.4.2|9=68|35=0|34=316|49=FIXIMULATOR|52=20171207-12:38:28.067|56=OMPInitiator|10=061|8=FIX.4.2|9=68|35=0|34=317|49=FIXIMULATOR|52=20171207-12:38:58.067|56=OMPInitiator|10=065|8=FIX.4.2|9=68|35=0|34=318|49=FIXIMULATOR|52=20171207-12:39:29.069|56=OMPInitiator|10=067|8=FIX.4.2|9=68|35=0|34=319|49=FIXIMULATOR|52=20171207-12:40:00.066|56=OMPInitiator|10=046|8=FIX.4.2|9=68|35=0|34=320|49=FIXIMULATOR|52=20171207-12:40:30.067|56=OMPInitiator|10=042|8=FIX.4.2|9=68|35=0|34=321|49=FIXIMULATOR|52=20171207-12:41:00.068|56=OMPInitiator|10=042|8=FIX.4.2|9=68|35=0|34=322|49=FIXIMULATOR|52=20171207-12:41:30.068|56=OMPInitiator|10=046|8=FIX.4.2|9=68|35=0|34=323|49=FIXIMULATOR|52=20171207-12:42:00.069|56=OMPInitiator|10=046|8=FIX.4.2|9=68|35=0|34=324|49=FIXIMULATOR|52=20171207-12:42:30.071|56=OMPInitiator|10=043|8=FIX.4.2|9=68|35=0|34=325|49=FIXIMULATOR|52=20171207-12:43:01.073|56=OMPInitiator|10=045|8=FIX.4.2|9=68|35=0|34=326|49=FIXIMULATOR|52=20171207-12:43:32.073|56=OMPInitiator|10=050|8=FIX.4.2|9=180|35=8|34=327|49=FIXIMULATOR|52=20171207-12:43:57.451|56=OMPInitiator|6=0|11=asf1235axaf|14=0|17=E1512650637457|20=0|31=0|32=0|37=O1512650598045|38=10|39=0|54=1|55=EBAY|150=0|151=10|10=134|8=FIX.4.2|9=68|35=0|34=328|49=FIXIMULATOR|52=20171207-12:44:28.071|56=OMPInitiator|10=056|8=FIX.4.2|9=183|35=8|34=329|49=FIXIMULATOR|52=20171207-12:44:57.940|56=OMPInitiator|6=20|11=asf1235axaf|14=10|17=E1512650688869|20=0|31=20|32=10|37=O1512650598045|38=10|39=2|54=1|55=EBAY|150=2|151=0|10=053|8=FIX.4.2|9=68|35=0|34=330|49=FIXIMULATOR|52=20171207-12:45:28.076|56=OMPInitiator|10=055|8=FIX.4.2|9=68|35=0|34=331|49=FIXIMULATOR|52=20171207-12:45:58.076|56=OMPInitiator|10=059|8=FIX.4.2|9=68|35=0|34=332|49=FIXIMULATOR|52=20171207-12:46:28.077|56=OMPInitiator|10=059|8=FIX.4.2|9=68|35=0|34=333|49=FIXIMULATOR|52=20171207-12:46:59.075|56=OMPInitiator|10=062|8=FIX.4.2|9=68|35=0|34=334|49=FIXIMULATOR|52=20171207-12:47:30.077|56=OMPInitiator|10=055|8=FIX.4.2|9=68|35=0|34=335|49=FIXIMULATOR|52=20171207-12:48:01.079|56=OMPInitiator|10=057|8=FIX.4.2|9=68|35=0|34=336|49=FIXIMULATOR|52=20171207-12:48:32.075|56=OMPInitiator|10=058|8=FIX.4.2|9=68|35=0|34=337|49=FIXIMULATOR|52=20171207-12:49:02.077|56=OMPInitiator|10=059|8=FIX.4.2|9=80|35=A|34=338|49=FIXIMULATOR|52=20171207-12:49:33.997|56=OMPInitiator|98=0|108=30|10=111|8=FIX.4.2|9=68|35=0|34=339|49=FIXIMULATOR|52=20171207-12:50:04.079|56=OMPInitiator|10=057|8=FIX.4.2|9=68|35=0|34=340|49=FIXIMULATOR|52=20171207-12:50:34.081|56=OMPInitiator|10=045|8=FIX.4.2|9=202|35=8|34=341|49=FIXIMULATOR|52=20171207-12:50:55.299|56=OMPInitiator|6=0|11=262e6b17-e5e0-6c05-5cc9-a3898587c7fa|14=0|17=E1512651055307|20=0|31=0|32=0|37=O1512651043937|38=0|39=4|54=1|55=BMW|150=4|151=0|10=144|8=FIX.4.2|9=68|35=0|34=342|49=FIXIMULATOR|52=20171207-12:51:26.078|56=OMPInitiator|10=055|8=FIX.4.2|9=68|35=0|34=343|49=FIXIMULATOR|52=20171207-12:51:56.082|56=OMPInitiator|10=054|8=FIX.4.2|9=68|35=0|34=344|49=FIXIMULATOR|52=20171207-12:52:27.081|56=OMPInitiator|10=053|8=FIX.4.2|9=68|35=0|34=345|49=FIXIMULATOR|52=20171207-12:52:57.082|56=OMPInitiator|10=058|8=FIX.4.2|9=68|35=0|34=346|49=FIXIMULATOR|52=20171207-12:53:27.082|56=OMPInitiator|10=057|8=FIX.4.2|9=68|35=0|34=347|49=FIXIMULATOR|52=20171207-12:53:57.082|56=OMPInitiator|10=061|8=FIX.4.2|9=68|35=0|34=348|49=FIXIMULATOR|52=20171207-12:54:27.084|56=OMPInitiator|10=062|8=FIX.4.2|9=68|35=0|34=349|49=FIXIMULATOR|52=20171207-12:54:57.084|56=OMPInitiator|10=066|8=FIX.4.2|9=68|35=0|34=350|49=FIXIMULATOR|52=20171207-12:55:27.085|56=OMPInitiator|10=057|8=FIX.4.2|9=68|35=0|34=351|49=FIXIMULATOR|52=20171207-12:55:57.085|56=OMPInitiator|10=061|8=FIX.4.2|9=68|35=0|34=352|49=FIXIMULATOR|52=20171207-12:56:27.092|56=OMPInitiator|10=058|8=FIX.4.2|9=68|35=0|34=353|49=FIXIMULATOR|52=20171207-12:56:58.087|56=OMPInitiator|10=067|8=FIX.4.2|9=68|35=0|34=354|49=FIXIMULATOR|52=20171207-12:57:28.090|56=OMPInitiator|10=060|8=FIX.4.2|9=68|35=0|34=355|49=FIXIMULATOR|52=20171207-12:57:59.088|56=OMPInitiator|10=072|8=FIX.4.2|9=68|35=0|34=356|49=FIXIMULATOR|52=20171207-12:58:29.091|56=OMPInitiator|10=065|8=FIX.4.2|9=68|35=0|34=357|49=FIXIMULATOR|52=20171207-12:58:59.092|56=OMPInitiator|10=070|8=FIX.4.2|9=68|35=0|34=358|49=FIXIMULATOR|52=20171207-12:59:29.096|56=OMPInitiator|10=073|8=FIX.4.2|9=68|35=0|34=359|49=FIXIMULATOR|52=20171207-12:59:59.270|56=OMPInitiator|10=071|8=FIX.4.2|9=68|35=0|34=360|49=FIXIMULATOR|52=20171207-13:00:30.271|56=OMPInitiator|10=040|8=FIX.4.2|9=68|35=0|34=361|49=FIXIMULATOR|52=20171207-13:01:01.264|56=OMPInitiator|10=042|8=FIX.4.2|9=68|35=0|34=362|49=FIXIMULATOR|52=20171207-13:01:31.265|56=OMPInitiator|10=047|8=FIX.4.2|9=68|35=0|34=363|49=FIXIMULATOR|52=20171207-13:02:01.265|56=OMPInitiator|10=046|8=FIX.4.2|9=68|35=0|34=364|49=FIXIMULATOR|52=20171207-13:02:31.266|56=OMPInitiator|10=051|8=FIX.4.2|9=77|35=1|34=365|49=FIXIMULATOR|52=20171207-13:03:10.216|56=OMPInitiator|112=TEST|10=064|8=FIX.4.2|9=68|35=0|34=366|49=FIXIMULATOR|52=20171207-13:03:41.095|56=OMPInitiator|10=055|8=FIX.4.2|9=68|35=0|34=367|49=FIXIMULATOR|52=20171207-13:04:11.096|56=OMPInitiator|10=055|8=FIX.4.2|9=68|35=0|34=368|49=FIXIMULATOR|52=20171207-13:04:41.207|56=OMPInitiator|10=053|8=FIX.4.2|9=68|35=0|34=369|49=FIXIMULATOR|52=20171207-13:05:11.211|56=OMPInitiator|10=047|8=FIX.4.2|9=68|35=0|34=370|49=FIXIMULATOR|52=20171207-13:05:42.210|56=OMPInitiator|10=042|8=FIX.4.2|9=68|35=0|34=371|49=FIXIMULATOR|52=20171207-13:06:12.210|56=OMPInitiator|10=041|8=FIX.4.2|9=68|35=0|34=372|49=FIXIMULATOR|52=20171207-13:06:42.211|56=OMPInitiator|10=046|8=FIX.4.2|9=68|35=0|34=373|49=FIXIMULATOR|52=20171207-13:07:12.212|56=OMPInitiator|10=046|8=FIX.4.2|9=68|35=0|34=374|49=FIXIMULATOR|52=20171207-13:07:42.213|56=OMPInitiator|10=051|8=FIX.4.2|9=68|35=0|34=375|49=FIXIMULATOR|52=20171207-13:08:12.216|56=OMPInitiator|10=053|8=FIX.4.2|9=68|35=0|34=376|49=FIXIMULATOR|52=20171207-13:08:43.214|56=OMPInitiator|10=056|8=FIX.4.2|9=68|35=0|34=377|49=FIXIMULATOR|52=20171207-13:09:13.217|56=OMPInitiator|10=058|8=FIX.4.2|9=68|35=0|34=378|49=FIXIMULATOR|52=20171207-13:09:44.218|56=OMPInitiator|10=064|8=FIX.4.2|9=68|35=0|34=379|49=FIXIMULATOR|52=20171207-13:10:14.219|56=OMPInitiator|10=055|8=FIX.4.2|9=68|35=0|34=380|49=FIXIMULATOR|52=20171207-13:10:44.220|56=OMPInitiator|10=042|8=FIX.4.2|9=68|35=0|34=381|49=FIXIMULATOR|52=20171207-13:11:15.216|56=OMPInitiator|10=047|8=FIX.4.2|9=68|35=0|34=382|49=FIXIMULATOR|52=20171207-13:11:45.217|56=OMPInitiator|10=052|8=FIX.4.2|9=68|35=0|34=383|49=FIXIMULATOR|52=20171207-13:12:15.217|56=OMPInitiator|10=051|8=FIX.4.2|9=68|35=0|34=384|49=FIXIMULATOR|52=20171207-13:12:45.219|56=OMPInitiator|10=057|8=FIX.4.2|9=68|35=0|34=385|49=FIXIMULATOR|52=20171207-13:13:16.219|56=OMPInitiator|10=057|8=FIX.4.2|9=202|35=8|34=386|49=FIXIMULATOR|52=20171207-13:13:23.887|56=OMPInitiator|6=0|11=262e6b17-e5e0-6c05-5cc9-a3898587c7fa|14=0|17=E1512652403895|20=0|31=0|32=0|37=O1512651043937|38=0|39=0|54=1|55=BMW|150=0|151=0|10=153|8=FIX.4.2|9=68|35=0|34=387|49=FIXIMULATOR|52=20171207-13:13:54.220|56=OMPInitiator|10=053|8=FIX.4.2|9=178|35=8|34=388|49=FIXIMULATOR|52=20171207-13:14:17.013|56=OMPInitiator|6=0|11=asf1235axaf|14=0|17=E1512652457023|20=0|31=0|32=0|37=O1512652448969|38=0|39=0|54=1|55=EBAY|150=0|151=0|10=041|8=FIX.4.2|9=68|35=0|34=389|49=FIXIMULATOR|52=20171207-13:14:47.224|56=OMPInitiator|10=062|8=FIX.4.2|9=179|35=8|34=390|49=FIXIMULATOR|52=20171207-13:15:14.067|56=OMPInitiator|6=?|11=asf1235axaf|14=0|17=E1512652501621|20=0|31=23|32=0|37=O1512652448969|38=0|39=2|54=1|55=EBAY|150=2|151=0|10=042|8=FIX.4.2|9=77|35=0|34=391|49=FIXIMULATOR|52=20171207-13:15:33.107|56=OMPInitiator|112=TEST|10=069|8=FIX.4.2|9=68|35=0|34=392|49=FIXIMULATOR|52=20171207-13:16:03.225|56=OMPInitiator|10=051|8=FIX.4.2|9=68|35=0|34=393|49=FIXIMULATOR|52=20171207-13:16:34.107|56=OMPInitiator|10=055|8=FIX.4.2|9=68|35=0|34=394|49=FIXIMULATOR|52=20171207-13:17:04.107|56=OMPInitiator|10=054|8=FIX.4.2|9=68|35=0|34=395|49=FIXIMULATOR|52=20171207-13:17:34.111|56=OMPInitiator|10=053|8=FIX.4.2|9=68|35=0|34=396|49=FIXIMULATOR|52=20171207-13:18:04.226|56=OMPInitiator|10=059|8=FIX.4.2|9=68|35=0|34=397|49=FIXIMULATOR|52=20171207-13:18:35.226|56=OMPInitiator|10=064|8=FIX.4.2|9=68|35=0|34=398|49=FIXIMULATOR|52=20171207-13:19:05.229|56=OMPInitiator|10=066|8=FIX.4.2|9=68|35=0|34=399|49=FIXIMULATOR|52=20171207-13:19:35.229|56=OMPInitiator|10=070|8=FIX.4.2|9=68|35=0|34=400|49=FIXIMULATOR|52=20171207-13:20:05.231|56=OMPInitiator|10=035|8=FIX.4.2|9=68|35=0|34=401|49=FIXIMULATOR|52=20171207-13:20:36.228|56=OMPInitiator|10=046|8=FIX.4.2|9=68|35=0|34=402|49=FIXIMULATOR|52=20171207-13:21:06.229|56=OMPInitiator|10=046|8=FIX.4.2|9=68|35=0|34=403|49=FIXIMULATOR|52=20171207-13:21:36.228|56=OMPInitiator|10=049|8=FIX.4.2|9=68|35=0|34=404|49=FIXIMULATOR|52=20171207-13:22:06.230|56=OMPInitiator|10=041|8=FIX.4.2|9=68|35=0|34=405|49=FIXIMULATOR|52=20171207-13:22:36.230|56=OMPInitiator|10=045|8=FIX.4.2|9=68|35=0|34=406|49=FIXIMULATOR|52=20171207-13:23:06.231|56=OMPInitiator|10=045|8=FIX.4.2|9=68|35=0|34=407|49=FIXIMULATOR|52=20171207-13:23:36.231|56=OMPInitiator|10=049|8=FIX.4.2|9=68|35=0|34=408|49=FIXIMULATOR|52=20171207-13:24:06.232|56=OMPInitiator|10=049|8=FIX.4.2|9=68|35=0|34=409|49=FIXIMULATOR|52=20171207-13:24:36.234|56=OMPInitiator|10=055|8=FIX.4.2|9=68|35=0|34=410|49=FIXIMULATOR|52=20171207-13:25:06.235|56=OMPInitiator|10=046|8=FIX.4.2|9=68|35=0|34=411|49=FIXIMULATOR|52=20171207-13:25:37.233|56=OMPInitiator|10=049|8=FIX.4.2|9=68|35=0|34=412|49=FIXIMULATOR|52=20171207-13:26:07.235|56=OMPInitiator|10=050|8=FIX.4.2|9=68|35=0|34=413|49=FIXIMULATOR|52=20171207-13:26:37.235|56=OMPInitiator|10=054|8=FIX.4.2|9=68|35=0|34=414|49=FIXIMULATOR|52=20171207-13:27:07.239|56=OMPInitiator|10=057|8=FIX.4.2|9=68|35=0|34=415|49=FIXIMULATOR|52=20171207-13:27:37.239|56=OMPInitiator|10=061|8=FIX.4.2|9=68|35=0|34=416|49=FIXIMULATOR|52=20171207-13:28:07.240|56=OMPInitiator|10=052|8=FIX.4.2|9=68|35=0|34=417|49=FIXIMULATOR|52=20171207-13:28:37.240|56=OMPInitiator|10=056|8=FIX.4.2|9=68|35=0|34=418|49=FIXIMULATOR|52=20171207-13:29:07.241|56=OMPInitiator|10=056|8=FIX.4.2|9=68|35=0|34=419|49=FIXIMULATOR|52=20171207-13:29:37.242|56=OMPInitiator|10=061|8=FIX.4.2|9=68|35=0|34=420|49=FIXIMULATOR|52=20171207-13:30:08.242|56=OMPInitiator|10=043|8=FIX.4.2|9=68|35=0|34=421|49=FIXIMULATOR|52=20171207-13:30:38.243|56=OMPInitiator|10=048|8=FIX.4.2|9=68|35=0|34=422|49=FIXIMULATOR|52=20171207-13:31:08.662|56=OMPInitiator|10=052|8=FIX.4.2|9=68|35=0|34=423|49=FIXIMULATOR|52=20171207-13:31:38.663|56=OMPInitiator|10=057|8=FIX.4.2|9=68|35=0|34=424|49=FIXIMULATOR|52=20171207-13:32:08.663|56=OMPInitiator|10=056|8=FIX.4.2|9=68|35=0|34=425|49=FIXIMULATOR|52=20171207-13:32:38.664|56=OMPInitiator|10=061|8=FIX.4.2|9=68|35=0|34=426|49=FIXIMULATOR|52=20171207-13:33:08.665|56=OMPInitiator|10=061|8=FIX.4.2|9=68|35=0|34=427|49=FIXIMULATOR|52=20171207-13:33:38.665|56=OMPInitiator|10=065|8=FIX.4.2|9=68|35=0|34=428|49=FIXIMULATOR|52=20171207-13:34:08.666|56=OMPInitiator|10=065|8=FIX.4.2|9=68|35=0|34=429|49=FIXIMULATOR|52=20171207-13:34:39.663|56=OMPInitiator|10=067|8=FIX.4.2|9=68|35=0|34=430|49=FIXIMULATOR|52=20171207-13:35:09.664|56=OMPInitiator|10=058|8=FIX.4.2|9=68|35=0|34=431|49=FIXIMULATOR|52=20171207-13:35:39.665|56=OMPInitiator|10=063|8=FIX.4.2|9=68|35=0|34=432|49=FIXIMULATOR|52=20171207-13:36:09.665|56=OMPInitiator|10=062|8=FIX.4.2|9=68|35=0|34=433|49=FIXIMULATOR|52=20171207-13:36:39.666|56=OMPInitiator|10=067|8=FIX.4.2|9=68|35=0|34=434|49=FIXIMULATOR|52=20171207-13:37:09.666|56=OMPInitiator|10=066|8=FIX.4.2|9=80|35=A|34=435|49=FIXIMULATOR|52=20171207-13:43:04.523|56=OMPInitiator|98=0|108=30|10=087|8=FIX.4.2|9=68|35=0|34=436|49=FIXIMULATOR|52=20171207-13:43:34.931|56=OMPInitiator|10=058|8=FIX.4.2|9=68|35=0|34=437|49=FIXIMULATOR|52=20171207-13:44:04.931|56=OMPInitiator|10=057|8=FIX.4.2|9=68|35=0|34=438|49=FIXIMULATOR|52=20171207-13:44:34.933|56=OMPInitiator|10=063|8=FIX.4.2|9=68|35=0|34=439|49=FIXIMULATOR|52=20171207-13:45:05.934|56=OMPInitiator|10=064|8=FIX.4.2|9=68|35=0|34=440|49=FIXIMULATOR|52=20171207-13:45:35.935|56=OMPInitiator|10=060|8=FIX.4.2|9=68|35=0|34=441|49=FIXIMULATOR|52=20171207-13:46:05.935|56=OMPInitiator|10=059|8=FIX.4.2|9=68|35=0|34=442|49=FIXIMULATOR|52=20171207-13:46:35.935|56=OMPInitiator|10=063|8=FIX.4.2|9=68|35=0|34=443|49=FIXIMULATOR|52=20171207-13:47:06.936|56=OMPInitiator|10=064|8=FIX.4.2|9=68|35=0|34=444|49=FIXIMULATOR|52=20171207-13:47:37.937|56=OMPInitiator|10=070|8=FIX.4.2|9=68|35=0|34=445|49=FIXIMULATOR|52=20171207-13:48:08.938|56=OMPInitiator|10=071|8=FIX.4.2|9=68|35=0|34=446|49=FIXIMULATOR|52=20171207-13:48:39.935|56=OMPInitiator|10=073|8=FIX.4.2|9=68|35=0|34=447|49=FIXIMULATOR|52=20171207-13:49:09.936|56=OMPInitiator|10=073|8=FIX.4.2|9=68|35=0|34=448|49=FIXIMULATOR|52=20171207-13:49:39.939|56=OMPInitiator|10=080|8=FIX.4.2|9=68|35=0|34=449|49=FIXIMULATOR|52=20171207-13:50:10.940|56=OMPInitiator|10=054|8=FIX.4.2|9=68|35=0|34=450|49=FIXIMULATOR|52=20171207-13:50:40.940|56=OMPInitiator|10=049|8=FIX.4.2|9=68|35=0|34=451|49=FIXIMULATOR|52=20171207-13:51:10.940|56=OMPInitiator|10=048|8=FIX.4.2|9=68|35=0|34=452|49=FIXIMULATOR|52=20171207-13:51:41.941|56=OMPInitiator|10=054|8=FIX.4.2|9=68|35=0|34=453|49=FIXIMULATOR|52=20171207-13:52:11.943|56=OMPInitiator|10=055|8=FIX.4.2|9=68|35=0|34=454|49=FIXIMULATOR|52=20171207-13:52:42.940|56=OMPInitiator|10=057|8=FIX.4.2|9=80|35=A|34=455|49=FIXIMULATOR|52=20171207-14:01:26.346|56=OMPInitiator|98=0|108=30|10=091|8=FIX.4.2|9=68|35=0|34=456|49=FIXIMULATOR|52=20171207-14:01:56.438|56=OMPInitiator|10=061|8=FIX.4.2|9=80|35=A|34=457|49=FIXIMULATOR|52=20171207-14:04:15.829|56=OMPInitiator|98=0|108=30|10=100|8=FIX.4.2|9=68|35=0|34=458|49=FIXIMULATOR|52=20171207-14:04:46.710|56=OMPInitiator|10=058|8=FIX.4.2|9=68|35=0|34=459|49=FIXIMULATOR|52=20171207-14:05:16.723|56=OMPInitiator|10=061|8=FIX.4.2|9=68|35=0|34=460|49=FIXIMULATOR|52=20171207-14:05:46.785|56=OMPInitiator|10=064|8=FIX.4.2|9=68|35=0|34=461|49=FIXIMULATOR|52=20171207-14:06:16.785|56=OMPInitiator|10=063|8=FIX.4.2|9=68|35=0|34=462|49=FIXIMULATOR|52=20171207-14:06:46.787|56=OMPInitiator|10=069|8=FIX.4.2|9=68|35=0|34=463|49=FIXIMULATOR|52=20171207-14:07:17.786|56=OMPInitiator|10=068|8=FIX.4.2|9=68|35=0|34=464|49=FIXIMULATOR|52=20171207-14:07:47.788|56=OMPInitiator|10=074|8=FIX.4.2|9=68|35=0|34=465|49=FIXIMULATOR|52=20171207-14:08:17.791|56=OMPInitiator|10=067|8=FIX.4.2|9=68|35=0|34=466|49=FIXIMULATOR|52=20171207-14:08:48.792|56=OMPInitiator|10=073|8=FIX.4.2|9=68|35=0|34=467|49=FIXIMULATOR|52=20171207-14:09:19.791|56=OMPInitiator|10=072|8=FIX.4.2|9=68|35=0|34=468|49=FIXIMULATOR|52=20171207-14:09:49.791|56=OMPInitiator|10=076|8=FIX.4.2|9=68|35=0|34=469|49=FIXIMULATOR|52=20171207-14:10:19.794|56=OMPInitiator|10=069|8=FIX.4.2|9=68|35=0|34=470|49=FIXIMULATOR|52=20171207-14:10:49.795|56=OMPInitiator|10=065|8=FIX.4.2|9=68|35=0|34=471|49=FIXIMULATOR|52=20171207-14:11:20.791|56=OMPInitiator|10=052|8=FIX.4.2|9=68|35=0|34=472|49=FIXIMULATOR|52=20171207-14:11:50.793|56=OMPInitiator|10=058|8=FIX.4.2|9=68|35=0|34=473|49=FIXIMULATOR|52=20171207-14:12:20.793|56=OMPInitiator|10=057|8=FIX.4.2|9=68|35=0|34=474|49=FIXIMULATOR|52=20171207-14:12:50.794|56=OMPInitiator|10=062|8=FIX.4.2|9=68|35=0|34=475|49=FIXIMULATOR|52=20171207-14:13:20.794|56=OMPInitiator|10=061|8=FIX.4.2|9=68|35=0|34=476|49=FIXIMULATOR|52=20171207-14:13:50.795|56=OMPInitiator|10=066|8=FIX.4.2|9=68|35=0|34=477|49=FIXIMULATOR|52=20171207-14:14:20.796|56=OMPInitiator|10=066|8=FIX.4.2|9=68|35=0|34=478|49=FIXIMULATOR|52=20171207-14:14:50.796|56=OMPInitiator|10=070|8=FIX.4.2|9=68|35=0|34=479|49=FIXIMULATOR|52=20171207-14:15:20.797|56=OMPInitiator|10=070|8=FIX.4.2|9=68|35=0|34=480|49=FIXIMULATOR|52=20171207-14:15:50.798|56=OMPInitiator|10=066|8=FIX.4.2|9=68|35=0|34=481|49=FIXIMULATOR|52=20171207-14:16:20.798|56=OMPInitiator|10=065|8=FIX.4.2|9=68|35=0|34=482|49=FIXIMULATOR|52=20171207-14:16:50.799|56=OMPInitiator|10=070|8=FIX.4.2|9=68|35=0|34=483|49=FIXIMULATOR|52=20171207-14:17:20.799|56=OMPInitiator|10=069|8=FIX.4.2|9=68|35=0|34=484|49=FIXIMULATOR|52=20171207-14:17:50.799|56=OMPInitiator|10=073|8=FIX.4.2|9=68|35=0|34=485|49=FIXIMULATOR|52=20171207-14:18:20.801|56=OMPInitiator|10=056|8=FIX.4.2|9=68|35=0|34=486|49=FIXIMULATOR|52=20171207-14:18:50.802|56=OMPInitiator|10=061|8=FIX.4.2|9=68|35=0|34=487|49=FIXIMULATOR|52=20171207-14:19:20.802|56=OMPInitiator|10=060|8=FIX.4.2|9=68|35=0|34=488|49=FIXIMULATOR|52=20171207-14:19:50.802|56=OMPInitiator|10=064|8=FIX.4.2|9=68|35=0|34=489|49=FIXIMULATOR|52=20171207-14:20:20.803|56=OMPInitiator|10=055|8=FIX.4.2|9=68|35=0|34=490|49=FIXIMULATOR|52=20171207-14:20:50.804|56=OMPInitiator|10=051|8=FIX.4.2|9=68|35=0|34=491|49=FIXIMULATOR|52=20171207-14:21:20.807|56=OMPInitiator|10=053|8=FIX.4.2|9=68|35=0|34=492|49=FIXIMULATOR|52=20171207-14:21:51.807|56=OMPInitiator|10=058|8=FIX.4.2|9=68|35=0|34=493|49=FIXIMULATOR|52=20171207-14:22:22.610|56=OMPInitiator|10=050|8=FIX.4.2|9=68|35=0|34=494|49=FIXIMULATOR|52=20171207-14:22:52.615|56=OMPInitiator|10=059|8=FIX.4.2|9=68|35=0|34=495|49=FIXIMULATOR|52=20171207-14:23:22.625|56=OMPInitiator|10=059|8=FIX.4.2|9=68|35=0|34=496|49=FIXIMULATOR|52=20171207-14:23:52.633|56=OMPInitiator|10=062|8=FIX.4.2|9=68|35=0|34=497|49=FIXIMULATOR|52=20171207-14:24:22.638|56=OMPInitiator|10=066|8=FIX.4.2|9=68|35=0|34=498|49=FIXIMULATOR|52=20171207-14:24:52.647|56=OMPInitiator|10=070|8=FIX.4.2|9=68|35=0|34=499|49=FIXIMULATOR|52=20171207-14:25:22.655|56=OMPInitiator|10=068|8=FIX.4.2|9=80|35=A|34=500|49=FIXIMULATOR|52=20171207-14:28:02.288|56=OMPInitiator|98=0|108=30|10=090|8=FIX.4.2|9=68|35=0|34=501|49=FIXIMULATOR|52=20171207-14:28:32.880|56=OMPInitiator|10=056|8=FIX.4.2|9=68|35=0|34=502|49=FIXIMULATOR|52=20171207-14:29:02.887|56=OMPInitiator|10=062|8=FIX.4.2|9=68|35=0|34=503|49=FIXIMULATOR|52=20171207-14:29:32.894|56=OMPInitiator|10=064|8=FIX.4.2|9=68|35=0|34=504|49=FIXIMULATOR|52=20171207-14:30:02.904|56=OMPInitiator|10=046|8=FIX.4.2|9=68|35=0|34=505|49=FIXIMULATOR|52=20171207-14:30:33.003|56=OMPInitiator|10=041|8=FIX.4.2|9=68|35=0|34=506|49=FIXIMULATOR|52=20171207-14:31:03.014|56=OMPInitiator|10=042|8=FIX.4.2|9=68|35=0|34=507|49=FIXIMULATOR|52=20171207-14:31:33.017|56=OMPInitiator|10=049|8=FIX.4.2|9=68|35=0|34=508|49=FIXIMULATOR|52=20171207-14:32:03.025|56=OMPInitiator|10=047|8=FIX.4.2|9=68|35=0|34=509|49=FIXIMULATOR|52=20171207-14:32:33.033|56=OMPInitiator|10=050|8=FIX.4.2|9=68|35=0|34=510|49=FIXIMULATOR|52=20171207-14:33:03.045|56=OMPInitiator|10=043|8=FIX.4.2|9=68|35=0|34=511|49=FIXIMULATOR|52=20171207-14:33:33.053|56=OMPInitiator|10=046|8=FIX.4.2|9=68|35=0|34=512|49=FIXIMULATOR|52=20171207-14:34:03.057|56=OMPInitiator|10=049|8=FIX.4.2|9=68|35=0|34=513|49=FIXIMULATOR|52=20171207-14:34:33.068|56=OMPInitiator|10=055|8=FIX.4.2|9=68|35=0|34=514|49=FIXIMULATOR|52=20171207-14:35:03.076|56=OMPInitiator|10=053|8=FIX.4.2|9=68|35=0|34=515|49=FIXIMULATOR|52=20171207-14:35:33.081|56=OMPInitiator|10=053|8=FIX.4.2|9=68|35=0|34=516|49=FIXIMULATOR|52=20171207-14:36:03.091|56=OMPInitiator|10=053|8=FIX.4.2|9=68|35=0|34=517|49=FIXIMULATOR|52=20171207-14:36:33.099|56=OMPInitiator|10=065|8=FIX.4.2|9=68|35=0|34=518|49=FIXIMULATOR|52=20171207-14:37:03.107|56=OMPInitiator|10=054|8=FIX.4.2|9=68|35=0|34=519|49=FIXIMULATOR|52=20171207-14:37:33.112|56=OMPInitiator|10=054|8=FIX.4.2|9=68|35=0|34=520|49=FIXIMULATOR|52=20171207-14:38:03.119|56=OMPInitiator|10=051|8=FIX.4.2|9=68|35=0|34=521|49=FIXIMULATOR|52=20171207-14:38:33.130|56=OMPInitiator|10=048|8=FIX.4.2|9=68|35=0|34=522|49=FIXIMULATOR|52=20171207-14:39:03.138|56=OMPInitiator|10=055|8=FIX.4.2|9=68|35=0|34=523|49=FIXIMULATOR|52=20171207-14:39:33.144|56=OMPInitiator|10=056|8=FIX.4.2|9=68|35=0|34=524|49=FIXIMULATOR|52=20171207-14:40:03.149|56=OMPInitiator|10=051|8=FIX.4.2|9=68|35=0|34=525|49=FIXIMULATOR|52=20171207-14:40:33.155|56=OMPInitiator|10=052|8=FIX.4.2|9=68|35=0|34=526|49=FIXIMULATOR|52=20171207-14:41:03.162|56=OMPInitiator|10=049|8=FIX.4.2|9=68|35=0|34=527|49=FIXIMULATOR|52=20171207-14:41:33.171|56=OMPInitiator|10=053|8=FIX.4.2|9=68|35=0|34=528|49=FIXIMULATOR|52=20171207-14:42:03.178|56=OMPInitiator|10=059|8=FIX.4.2|9=68|35=0|34=529|49=FIXIMULATOR|52=20171207-14:42:33.186|56=OMPInitiator|10=062|8=FIX.4.2|9=68|35=0|34=530|49=FIXIMULATOR|52=20171207-14:43:03.192|56=OMPInitiator|10=049|8=FIX.4.2|9=68|35=0|34=531|49=FIXIMULATOR|52=20171207-14:43:33.197|56=OMPInitiator|10=058|8=FIX.4.2|9=68|35=0|34=532|49=FIXIMULATOR|52=20171207-14:44:03.205|56=OMPInitiator|10=047|8=FIX.4.2|9=68|35=0|34=533|49=FIXIMULATOR|52=20171207-14:44:33.211|56=OMPInitiator|10=048|8=FIX.4.2|9=68|35=0|34=534|49=FIXIMULATOR|52=20171207-14:45:03.220|56=OMPInitiator|10=047|8=FIX.4.2|9=68|35=0|34=535|49=FIXIMULATOR|52=20171207-14:45:33.226|56=OMPInitiator|10=057|8=FIX.4.2|9=68|35=0|34=536|49=FIXIMULATOR|52=20171207-14:46:03.232|56=OMPInitiator|10=053|8=FIX.4.2|9=68|35=0|34=537|49=FIXIMULATOR|52=20171207-14:46:33.240|56=OMPInitiator|10=056|8=FIX.4.2|9=68|35=0|34=538|49=FIXIMULATOR|52=20171207-14:47:03.248|56=OMPInitiator|10=063|8=FIX.4.2|9=68|35=0|34=539|49=FIXIMULATOR|52=20171207-14:47:33.252|56=OMPInitiator|10=062|8=FIX.4.2|9=68|35=0|34=540|49=FIXIMULATOR|52=20171207-14:48:03.258|56=OMPInitiator|10=058|8=FIX.4.2|9=68|35=0|34=541|49=FIXIMULATOR|52=20171207-14:48:33.268|56=OMPInitiator|10=063|8=FIX.4.2|9=68|35=0|34=542|49=FIXIMULATOR|52=20171207-14:49:03.275|56=OMPInitiator|10=060|8=FIX.4.2|9=68|35=0|34=543|49=FIXIMULATOR|52=20171207-14:49:33.279|56=OMPInitiator|10=068|8=FIX.4.2|9=68|35=0|34=544|49=FIXIMULATOR|52=20171207-14:50:03.287|56=OMPInitiator|10=057|8=FIX.4.2|9=68|35=0|34=545|49=FIXIMULATOR|52=20171207-14:50:33.294|56=OMPInitiator|10=059|8=FIX.4.2|9=68|35=0|34=546|49=FIXIMULATOR|52=20171207-14:51:03.300|56=OMPInitiator|10=046|8=FIX.4.2|9=68|35=0|34=547|49=FIXIMULATOR|52=20171207-14:51:33.306|56=OMPInitiator|10=056|8=FIX.4.2|9=68|35=0|34=548|49=FIXIMULATOR|52=20171207-14:52:03.315|56=OMPInitiator|10=055|8=FIX.4.2|9=68|35=0|34=549|49=FIXIMULATOR|52=20171207-14:52:33.323|56=OMPInitiator|10=058|8=FIX.4.2|9=68|35=0|34=550|49=FIXIMULATOR|52=20171207-14:53:03.328|56=OMPInitiator|10=053|8=FIX.4.2|9=68|35=0|34=551|49=FIXIMULATOR|52=20171207-14:53:33.336|56=OMPInitiator|10=056|8=FIX.4.2|9=68|35=0|34=552|49=FIXIMULATOR|52=20171207-14:54:03.345|56=OMPInitiator|10=055|8=FIX.4.2|9=68|35=0|34=553|49=FIXIMULATOR|52=20171207-14:54:33.349|56=OMPInitiator|10=063|8=FIX.4.2|9=68|35=0|34=554|49=FIXIMULATOR|52=20171207-14:55:03.358|56=OMPInitiator|10=062|8=FIX.4.2|9=68|35=0|34=555|49=FIXIMULATOR|52=20171207-14:55:33.366|56=OMPInitiator|10=065|8=FIX.4.2|9=68|35=0|34=556|49=FIXIMULATOR|52=20171207-14:56:03.370|56=OMPInitiator|10=059|8=FIX.4.2|9=68|35=0|34=557|49=FIXIMULATOR|52=20171207-14:56:33.376|56=OMPInitiator|10=069|8=FIX.4.2|9=68|35=0|34=558|49=FIXIMULATOR|52=20171207-14:57:03.386|56=OMPInitiator|10=069|8=FIX.4.2|9=68|35=0|34=559|49=FIXIMULATOR|52=20171207-14:57:33.394|56=OMPInitiator|10=072|8=FIX.4.2|9=68|35=0|34=560|49=FIXIMULATOR|52=20171207-14:58:03.397|56=OMPInitiator|10=065|8=FIX.4.2|9=68|35=0|34=561|49=FIXIMULATOR|52=20171207-14:58:33.407|56=OMPInitiator|10=061|8=FIX.4.2|9=68|35=0|34=562|49=FIXIMULATOR|52=20171207-14:59:03.414|56=OMPInitiator|10=058|8=FIX.4.2|9=68|35=0|34=563|49=FIXIMULATOR|52=20171207-14:59:33.422|56=OMPInitiator|10=061|8=FIX.4.2|9=68|35=0|34=564|49=FIXIMULATOR|52=20171207-15:00:03.429|56=OMPInitiator|10=053|8=FIX.4.2|9=68|35=0|34=565|49=FIXIMULATOR|52=20171207-15:00:33.436|56=OMPInitiator|10=055|8=FIX.4.2|9=68|35=0|34=566|49=FIXIMULATOR|52=20171207-15:01:03.443|56=OMPInitiator|10=052|8=FIX.4.2|9=68|35=0|34=567|49=FIXIMULATOR|52=20171207-15:01:33.447|56=OMPInitiator|10=060|8=FIX.4.2|9=68|35=0|34=568|49=FIXIMULATOR|52=20171207-15:02:03.456|56=OMPInitiator|10=059|8=FIX.4.2|9=68|35=0|34=569|49=FIXIMULATOR|52=20171207-15:02:33.459|56=OMPInitiator|10=066|8=FIX.4.2|9=68|35=0|34=570|49=FIXIMULATOR|52=20171207-15:03:03.467|56=OMPInitiator|10=055|8=FIX.4.2|9=68|35=0|34=571|49=FIXIMULATOR|52=20171207-15:03:33.477|56=OMPInitiator|10=060|8=FIX.4.2|9=68|35=0|34=572|49=FIXIMULATOR|52=20171207-15:04:03.485|56=OMPInitiator|10=058|8=FIX.4.2|9=68|35=0|34=573|49=FIXIMULATOR|52=20171207-15:04:33.492|56=OMPInitiator|10=060|8=FIX.4.2|9=68|35=0|34=574|49=FIXIMULATOR|52=20171207-15:05:03.496|56=OMPInitiator|10=063|8=FIX.4.2|9=68|35=0|34=575|49=FIXIMULATOR|52=20171207-15:05:33.506|56=OMPInitiator|10=059|8=FIX.4.2|9=68|35=0|34=576|49=FIXIMULATOR|52=20171207-15:06:03.514|56=OMPInitiator|10=057|8=FIX.4.2|9=68|35=0|34=577|49=FIXIMULATOR|52=20171207-15:06:33.520|56=OMPInitiator|10=058|8=FIX.4.2|9=68|35=0|34=578|49=FIXIMULATOR|52=20171207-15:07:03.526|56=OMPInitiator|10=063|8=FIX.4.2|9=68|35=0|34=579|49=FIXIMULATOR|52=20171207-15:07:33.533|56=OMPInitiator|10=065|8=FIX.4.2|9=68|35=0|34=580|49=FIXIMULATOR|52=20171207-15:08:03.539|56=OMPInitiator|10=061|8=FIX.4.2|9=68|35=0|34=581|49=FIXIMULATOR|52=20171207-15:08:33.546|56=OMPInitiator|10=063|8=FIX.4.2|9=68|35=0|34=582|49=FIXIMULATOR|52=20171207-15:09:03.556|56=OMPInitiator|10=063|8=FIX.4.2|9=68|35=0|34=583|49=FIXIMULATOR|52=20171207-15:09:33.562|56=OMPInitiator|10=064|8=FIX.4.2|9=68|35=0|34=584|49=FIXIMULATOR|52=20171207-15:10:03.571|56=OMPInitiator|10=054|8=FIX.4.2|9=68|35=0|34=585|49=FIXIMULATOR|52=20171207-15:10:33.575|56=OMPInitiator|10=062|8=FIX.4.2|9=68|35=0|34=586|49=FIXIMULATOR|52=20171207-15:11:03.584|56=OMPInitiator|10=061|8=FIX.4.2|9=68|35=0|34=587|49=FIXIMULATOR|52=20171207-15:11:33.589|56=OMPInitiator|10=070|8=FIX.4.2|9=68|35=0|34=588|49=FIXIMULATOR|52=20171207-15:12:03.595|56=OMPInitiator|10=066|8=FIX.4.2|9=68|35=0|34=589|49=FIXIMULATOR|52=20171207-15:12:33.605|56=OMPInitiator|10=062|8=FIX.4.2|9=68|35=0|34=590|49=FIXIMULATOR|52=20171207-15:13:03.613|56=OMPInitiator|10=051|8=FIX.4.2|9=68|35=0|34=591|49=FIXIMULATOR|52=20171207-15:13:34.061|56=OMPInitiator|10=053|8=FIX.4.2|9=68|35=0|34=592|49=FIXIMULATOR|52=20171207-15:14:04.066|56=OMPInitiator|10=057|8=FIX.4.2|9=68|35=0|34=593|49=FIXIMULATOR|52=20171207-15:14:34.074|56=OMPInitiator|10=060|8=FIX.4.2|9=68|35=0|34=594|49=FIXIMULATOR|52=20171207-15:15:04.085|56=OMPInitiator|10=061|8=FIX.4.2|9=68|35=0|34=595|49=FIXIMULATOR|52=20171207-15:15:34.090|56=OMPInitiator|10=061|8=FIX.4.2|9=68|35=0|34=596|49=FIXIMULATOR|52=20171207-15:16:04.096|56=OMPInitiator|10=066|8=FIX.4.2|9=68|35=0|34=597|49=FIXIMULATOR|52=20171207-15:16:34.104|56=OMPInitiator|10=060|8=FIX.4.2|9=68|35=0|34=598|49=FIXIMULATOR|52=20171207-15:17:04.113|56=OMPInitiator|10=059|8=FIX.4.2|9=68|35=0|34=599|49=FIXIMULATOR|52=20171207-15:17:34.121|56=OMPInitiator|10=062|8=FIX.4.2|9=68|35=0|34=600|49=FIXIMULATOR|52=20171207-15:18:04.132|56=OMPInitiator|10=045|8=FIX.4.2|9=68|35=0|34=601|49=FIXIMULATOR|52=20171207-15:18:34.137|56=OMPInitiator|10=054|8=FIX.4.2|9=68|35=0|34=602|49=FIXIMULATOR|52=20171207-15:19:04.144|56=OMPInitiator|10=051|8=FIX.4.2|9=68|35=0|34=603|49=FIXIMULATOR|52=20171207-15:19:34.156|56=OMPInitiator|10=058|8=FIX.4.2|9=68|35=0|34=604|49=FIXIMULATOR|52=20171207-15:20:04.161|56=OMPInitiator|10=044|8=FIX.4.2|9=68|35=0|34=605|49=FIXIMULATOR|52=20171207-15:20:34.169|56=OMPInitiator|10=056|8=FIX.4.2|9=68|35=0|34=606|49=FIXIMULATOR|52=20171207-15:21:04.176|56=OMPInitiator|10=053|8=FIX.4.2|9=68|35=0|34=607|49=FIXIMULATOR|52=20171207-15:21:34.185|56=OMPInitiator|10=057|8=FIX.4.2|9=68|35=0|34=608|49=FIXIMULATOR|52=20171207-15:22:04.193|56=OMPInitiator|10=055|8=FIX.4.2|9=68|35=0|34=609|49=FIXIMULATOR|52=20171207-15:22:34.203|56=OMPInitiator|10=051|8=FIX.4.2|9=68|35=0|34=610|49=FIXIMULATOR|52=20171207-15:23:04.205|56=OMPInitiator|10=043|8=FIX.4.2|9=68|35=0|34=611|49=FIXIMULATOR|52=20171207-15:23:34.218|56=OMPInitiator|10=051|8=FIX.4.2|9=68|35=0|34=612|49=FIXIMULATOR|52=20171207-15:24:04.226|56=OMPInitiator|10=049|8=FIX.4.2|9=178|35=8|34=613|49=FIXIMULATOR|52=20171207-15:24:31.181|56=OMPInitiator|6=0|11=asf1235axaf|14=0|17=E1512660271193|20=0|31=0|32=0|37=O1512645397907|38=0|39=8|54=1|55=EBAY|150=8|151=0|10=051|8=FIX.4.2|9=68|35=0|34=614|49=FIXIMULATOR|52=20171207-15:25:01.238|56=OMPInitiator|10=052|8=FIX.4.2|9=68|35=0|34=615|49=FIXIMULATOR|52=20171207-15:25:31.244|56=OMPInitiator|10=053|8=FIX.4.2|9=68|35=0|34=616|49=FIXIMULATOR|52=20171207-15:26:01.255|56=OMPInitiator|10=054|8=FIX.4.2|9=68|35=0|34=617|49=FIXIMULATOR|52=20171207-15:26:31.261|56=OMPInitiator|10=055|8=FIX.4.2|9=68|35=0|34=618|49=FIXIMULATOR|52=20171207-15:27:01.272|56=OMPInitiator|10=056|8=FIX.4.2|9=68|35=0|34=619|49=FIXIMULATOR|52=20171207-15:27:31.280|56=OMPInitiator|10=059|8=FIX.4.2|9=68|35=0|34=620|49=FIXIMULATOR|52=20171207-15:28:01.284|56=OMPInitiator|10=053|8=FIX.4.2|9=68|35=0|34=621|49=FIXIMULATOR|52=20171207-15:28:31.294|56=OMPInitiator|10=058|8=FIX.4.2|9=68|35=0|34=622|49=FIXIMULATOR|52=20171207-15:29:01.304|56=OMPInitiator|10=049|8=FIX.4.2|9=68|35=0|34=623|49=FIXIMULATOR|52=20171207-15:29:31.308|56=OMPInitiator|10=057|8=FIX.4.2|9=68|35=0|34=624|49=FIXIMULATOR|52=20171207-15:30:01.315|56=OMPInitiator|10=045|8=FIX.4.2|9=68|35=0|34=625|49=FIXIMULATOR|52=20171207-15:30:31.325|56=OMPInitiator|10=050|8=FIX.4.2|9=68|35=0|34=626|49=FIXIMULATOR|52=20171207-15:31:01.331|56=OMPInitiator|10=046|8=FIX.4.2|9=68|35=0|34=627|49=FIXIMULATOR|52=20171207-15:31:31.338|56=OMPInitiator|10=057|8=FIX.4.2|9=68|35=0|34=628|49=FIXIMULATOR|52=20171207-15:32:01.348|56=OMPInitiator|10=057|8=FIX.4.2|9=68|35=0|34=629|49=FIXIMULATOR|52=20171207-15:32:31.353|56=OMPInitiator|10=057|8=FIX.4.2|9=68|35=0|34=630|49=FIXIMULATOR|52=20171207-15:33:01.362|56=OMPInitiator|10=047|8=FIX.4.2|9=68|35=0|34=631|49=FIXIMULATOR|52=20171207-15:33:31.370|56=OMPInitiator|10=050|8=FIX.4.2|9=68|35=0|34=632|49=FIXIMULATOR|52=20171207-15:34:01.381|56=OMPInitiator|10=051|8=FIX.4.2|9=68|35=0|34=633|49=FIXIMULATOR|52=20171207-15:34:31.386|56=OMPInitiator|10=060|8=FIX.4.2|9=68|35=0|34=634|49=FIXIMULATOR|52=20171207-15:35:01.395|56=OMPInitiator|10=059|8=FIX.4.2|9=68|35=0|34=635|49=FIXIMULATOR|52=20171207-15:35:31.405|56=OMPInitiator|10=055|8=FIX.4.2|9=68|35=0|34=636|49=FIXIMULATOR|52=20171207-15:36:01.413|56=OMPInitiator|10=053|8=FIX.4.2|9=68|35=0|34=637|49=FIXIMULATOR|52=20171207-15:36:31.417|56=OMPInitiator|10=061|8=FIX.4.2|9=68|35=0|34=638|49=FIXIMULATOR|52=20171207-15:37:01.428|56=OMPInitiator|10=062|8=FIX.4.2|9=68|35=0|34=639|49=FIXIMULATOR|52=20171207-15:37:31.434|56=OMPInitiator|10=063|8=FIX.4.2|9=68|35=0|34=640|49=FIXIMULATOR|52=20171207-15:38:01.440|56=OMPInitiator|10=050|8=FIX.4.2|9=68|35=0|34=641|49=FIXIMULATOR|52=20171207-15:38:31.451|56=OMPInitiator|10=056|8=FIX.4.2|9=68|35=0|34=642|49=FIXIMULATOR|52=20171207-15:39:01.460|56=OMPInitiator|10=055|8=FIX.4.2|9=68|35=0|34=643|49=FIXIMULATOR|52=20171207-15:39:31.467|56=OMPInitiator|10=066|8=FIX.4.2|9=68|35=0|34=644|49=FIXIMULATOR|52=20171207-15:40:01.472|56=OMPInitiator|10=052|8=FIX.4.2|9=68|35=0|34=645|49=FIXIMULATOR|52=20171207-15:40:31.480|56=OMPInitiator|10=055|8=FIX.4.2|9=68|35=0|34=646|49=FIXIMULATOR|52=20171207-15:41:01.491|56=OMPInitiator|10=056|8=FIX.4.2|9=68|35=0|34=647|49=FIXIMULATOR|52=20171207-15:41:31.495|56=OMPInitiator|10=064|8=FIX.4.2|9=68|35=0|34=648|49=FIXIMULATOR|52=20171207-15:42:01.503|56=OMPInitiator|10=053|8=FIX.4.2|9=68|35=0|34=649|49=FIXIMULATOR|52=20171207-15:42:31.514|56=OMPInitiator|10=059|8=FIX.4.2|9=68|35=0|34=650|49=FIXIMULATOR|52=20171207-15:43:02.088|56=OMPInitiator|10=056|8=FIX.4.2|9=68|35=0|34=651|49=FIXIMULATOR|52=20171207-15:43:32.089|56=OMPInitiator|10=061|8=FIX.4.2|9=68|35=0|34=652|49=FIXIMULATOR|52=20171207-15:44:02.089|56=OMPInitiator|10=060|8=FIX.4.2|9=68|35=0|34=653|49=FIXIMULATOR|52=20171207-15:44:32.089|56=OMPInitiator|10=064|8=FIX.4.2|9=68|35=0|34=654|49=FIXIMULATOR|52=20171207-15:45:02.090|56=OMPInitiator|10=055|8=FIX.4.2|9=68|35=0|34=655|49=FIXIMULATOR|52=20171207-15:45:32.091|56=OMPInitiator|10=060|8=FIX.4.2|9=68|35=0|34=656|49=FIXIMULATOR|52=20171207-15:46:02.092|56=OMPInitiator|10=060|8=FIX.4.2|9=68|35=0|34=657|49=FIXIMULATOR|52=20171207-15:46:32.092|56=OMPInitiator|10=064|8=FIX.4.2|9=68|35=0|34=658|49=FIXIMULATOR|52=20171207-15:47:02.093|56=OMPInitiator|10=064|8=FIX.4.2|9=68|35=0|34=659|49=FIXIMULATOR|52=20171207-15:47:32.093|56=OMPInitiator|10=068|8=FIX.4.2|9=68|35=0|34=660|49=FIXIMULATOR|52=20171207-15:48:02.096|56=OMPInitiator|10=061|8=FIX.4.2|9=68|35=0|34=661|49=FIXIMULATOR|52=20171207-15:48:32.979|56=OMPInitiator|10=075|8=FIX.4.2|9=68|35=0|34=662|49=FIXIMULATOR|52=20171207-15:49:03.096|56=OMPInitiator|10=065|8=FIX.4.2|9=68|35=0|34=663|49=FIXIMULATOR|52=20171207-15:49:33.096|56=OMPInitiator|10=069|8=FIX.4.2|9=68|35=0|34=664|49=FIXIMULATOR|52=20171207-15:50:03.100|56=OMPInitiator|10=045|8=FIX.4.2|9=68|35=0|34=665|49=FIXIMULATOR|52=20171207-15:50:33.101|56=OMPInitiator|10=050|8=FIX.4.2|9=68|35=0|34=666|49=FIXIMULATOR|52=20171207-15:51:04.101|56=OMPInitiator|10=050|8=FIX.4.2|9=68|35=0|34=667|49=FIXIMULATOR|52=20171207-15:51:34.102|56=OMPInitiator|10=055|8=FIX.4.2|9=68|35=0|34=668|49=FIXIMULATOR|52=20171207-15:52:05.100|56=OMPInitiator|10=053|8=FIX.4.2|9=68|35=0|34=669|49=FIXIMULATOR|52=20171207-15:52:35.100|56=OMPInitiator|10=057|8=FIX.4.2|9=68|35=0|34=670|49=FIXIMULATOR|52=20171207-15:53:05.100|56=OMPInitiator|10=047|8=FIX.4.2|9=68|35=0|34=671|49=FIXIMULATOR|52=20171207-15:53:35.101|56=OMPInitiator|10=052|8=FIX.4.2|9=68|35=0|34=672|49=FIXIMULATOR|52=20171207-15:54:05.102|56=OMPInitiator|10=052|8=FIX.4.2|9=68|35=0|34=673|49=FIXIMULATOR|52=20171207-15:54:35.102|56=OMPInitiator|10=056|8=FIX.4.2|9=68|35=0|34=674|49=FIXIMULATOR|52=20171207-15:55:05.102|56=OMPInitiator|10=055|8=FIX.4.2|9=68|35=0|34=675|49=FIXIMULATOR|52=20171207-15:55:35.107|56=OMPInitiator|10=064|8=FIX.4.2|9=68|35=0|34=676|49=FIXIMULATOR|52=20171207-15:56:06.107|56=OMPInitiator|10=064|8=FIX.4.2|9=68|35=0|34=677|49=FIXIMULATOR|52=20171207-15:56:37.108|56=OMPInitiator|10=070|8=FIX.4.2|9=68|35=0|34=678|49=FIXIMULATOR|52=20171207-15:57:07.109|56=OMPInitiator|10=070|8=FIX.4.2|9=68|35=0|34=679|49=FIXIMULATOR|52=20171207-15:57:38.106|56=OMPInitiator|10=072|8=FIX.4.2|9=68|35=0|34=680|49=FIXIMULATOR|52=20171207-15:58:08.107|56=OMPInitiator|10=063|8=FIX.4.2|9=68|35=0|34=681|49=FIXIMULATOR|52=20171207-15:58:38.107|56=OMPInitiator|10=067|8=FIX.4.2|9=68|35=0|34=682|49=FIXIMULATOR|52=20171207-15:59:08.108|56=OMPInitiator|10=067|8=FIX.4.2|9=68|35=0|34=683|49=FIXIMULATOR|52=20171207-15:59:38.109|56=OMPInitiator|10=072|8=FIX.4.2|9=68|35=0|34=684|49=FIXIMULATOR|52=20171207-16:00:08.109|56=OMPInitiator|10=057|8=FIX.4.2|9=68|35=0|34=685|49=FIXIMULATOR|52=20171207-16:00:38.110|56=OMPInitiator|10=053|8=FIX.4.2|9=68|35=0|34=686|49=FIXIMULATOR|52=20171207-16:01:08.110|56=OMPInitiator|10=052|8=FIX.4.2|9=68|35=0|34=687|49=FIXIMULATOR|52=20171207-16:01:38.114|56=OMPInitiator|10=060|8=FIX.4.2|9=68|35=0|34=688|49=FIXIMULATOR|52=20171207-16:02:09.113|56=OMPInitiator|10=059|8=FIX.4.2|9=68|35=0|34=689|49=FIXIMULATOR|52=20171207-16:02:39.116|56=OMPInitiator|10=066|8=FIX.4.2|9=68|35=0|34=690|49=FIXIMULATOR|52=20171207-16:03:10.113|56=OMPInitiator|10=045|8=FIX.4.2|9=68|35=0|34=691|49=FIXIMULATOR|52=20171207-16:03:40.114|56=OMPInitiator|10=050|8=FIX.4.2|9=68|35=0|34=692|49=FIXIMULATOR|52=20171207-16:04:11.114|56=OMPInitiator|10=050|8=FIX.4.2|9=68|35=0|34=693|49=FIXIMULATOR|52=20171207-16:04:41.117|56=OMPInitiator|10=057|8=FIX.4.2|9=68|35=0|34=694|49=FIXIMULATOR|52=20171207-16:05:11.118|56=OMPInitiator|10=057|8=FIX.4.2|9=68|35=0|34=695|49=FIXIMULATOR|52=20171207-16:05:42.116|56=OMPInitiator|10=060|8=FIX.4.2|9=68|35=0|34=696|49=FIXIMULATOR|52=20171207-16:06:12.116|56=OMPInitiator|10=059|8=FIX.4.2|9=68|35=0|34=697|49=FIXIMULATOR|52=20171207-16:06:42.117|56=OMPInitiator|10=064|8=FIX.4.2|9=68|35=0|34=698|49=FIXIMULATOR|52=20171207-16:07:12.121|56=OMPInitiator|10=058|8=FIX.4.2|9=68|35=0|34=699|49=FIXIMULATOR|52=20171207-16:07:42.121|56=OMPInitiator|10=062|8=FIX.4.2|9=68|35=0|34=700|49=FIXIMULATOR|52=20171207-16:08:12.122|56=OMPInitiator|10=044|8=FIX.4.2|9=68|35=0|34=701|49=FIXIMULATOR|52=20171207-16:08:42.123|56=OMPInitiator|10=049|8=FIX.4.2|9=68|35=0|34=702|49=FIXIMULATOR|52=20171207-16:09:12.124|56=OMPInitiator|10=049|8=FIX.4.2|9=68|35=0|34=703|49=FIXIMULATOR|52=20171207-16:09:43.120|56=OMPInitiator|10=050|8=FIX.4.2|9=68|35=0|34=704|49=FIXIMULATOR|52=20171207-16:10:13.123|56=OMPInitiator|10=043|8=FIX.4.2|9=68|35=0|34=705|49=FIXIMULATOR|52=20171207-16:10:43.126|56=OMPInitiator|10=050|8=FIX.4.2|9=68|35=0|34=706|49=FIXIMULATOR|52=20171207-16:11:14.123|56=OMPInitiator|10=047|8=FIX.4.2|9=68|35=0|34=707|49=FIXIMULATOR|52=20171207-16:11:44.127|56=OMPInitiator|10=055|8=FIX.4.2|9=68|35=0|34=708|49=FIXIMULATOR|52=20171207-16:12:15.128|56=OMPInitiator|10=056|8=FIX.4.2|9=68|35=0|34=709|49=FIXIMULATOR|52=20171207-16:12:46.125|56=OMPInitiator|10=058|8=FIX.4.2|9=68|35=0|34=710|49=FIXIMULATOR|52=20171207-16:13:16.125|56=OMPInitiator|10=048|8=FIX.4.2|9=68|35=0|34=711|49=FIXIMULATOR|52=20171207-16:13:46.130|56=OMPInitiator|10=048|8=FIX.4.2|9=68|35=0|34=712|49=FIXIMULATOR|52=20171207-16:14:17.128|56=OMPInitiator|10=055|8=FIX.4.2|9=68|35=0|34=713|49=FIXIMULATOR|52=20171207-16:14:47.131|56=OMPInitiator|10=053|8=FIX.4.2|9=68|35=0|34=714|49=FIXIMULATOR|52=20171207-16:15:18.131|56=OMPInitiator|10=053|8=FIX.4.2|9=68|35=0|34=715|49=FIXIMULATOR|52=20171207-16:15:49.128|56=OMPInitiator|10=064|8=FIX.4.2|9=68|35=0|34=716|49=FIXIMULATOR|52=20171207-16:16:19.132|56=OMPInitiator|10=058|8=FIX.4.2|9=68|35=0|34=717|49=FIXIMULATOR|52=20171207-16:16:50.130|56=OMPInitiator|10=052|8=FIX.4.2|9=68|35=0|34=718|49=FIXIMULATOR|52=20171207-16:17:20.131|56=OMPInitiator|10=052|8=FIX.4.2|9=68|35=0|34=719|49=FIXIMULATOR|52=20171207-16:17:50.133|56=OMPInitiator|10=058|8=FIX.4.2|9=68|35=0|34=720|49=FIXIMULATOR|52=20171207-16:18:21.131|56=OMPInitiator|10=047|8=FIX.4.2|9=68|35=0|34=721|49=FIXIMULATOR|52=20171207-16:18:51.133|56=OMPInitiator|10=053|8=FIX.4.2|9=68|35=0|34=722|49=FIXIMULATOR|52=20171207-16:19:21.134|56=OMPInitiator|10=053|8=FIX.4.2|9=68|35=0|34=723|49=FIXIMULATOR|52=20171207-16:19:51.135|56=OMPInitiator|10=058|8=FIX.4.2|9=68|35=0|34=724|49=FIXIMULATOR|52=20171207-16:20:21.137|56=OMPInitiator|10=050|8=FIX.4.2|9=68|35=0|34=725|49=FIXIMULATOR|52=20171207-16:20:51.138|56=OMPInitiator|10=055|8=FIX.4.2|9=68|35=0|34=726|49=FIXIMULATOR|52=20171207-16:21:22.137|56=OMPInitiator|10=054|8=FIX.4.2|9=68|35=0|34=727|49=FIXIMULATOR|52=20171207-16:21:53.139|56=OMPInitiator|10=061|8=FIX.4.2|9=68|35=0|34=728|49=FIXIMULATOR|52=20171207-16:22:24.140|56=OMPInitiator|10=053|8=FIX.4.2|9=68|35=0|34=729|49=FIXIMULATOR|52=20171207-16:22:55.139|56=OMPInitiator|10=066|8=FIX.4.2|9=68|35=0|34=730|49=FIXIMULATOR|52=20171207-16:23:25.140|56=OMPInitiator|10=048|8=FIX.4.2|9=68|35=0|34=731|49=FIXIMULATOR|52=20171207-16:23:55.142|56=OMPInitiator|10=054|8=FIX.4.2|9=68|35=0|34=732|49=FIXIMULATOR|52=20171207-16:24:26.139|56=OMPInitiator|10=060|8=FIX.4.2|9=68|35=0|34=733|49=FIXIMULATOR|52=20171207-16:24:56.140|56=OMPInitiator|10=056|8=FIX.4.2|9=68|35=0|34=734|49=FIXIMULATOR|52=20171207-16:25:26.141|56=OMPInitiator|10=056|8=FIX.4.2|9=68|35=0|34=735|49=FIXIMULATOR|52=20171207-16:25:56.141|56=OMPInitiator|10=060|8=FIX.4.2|9=68|35=0|34=736|49=FIXIMULATOR|52=20171207-16:26:26.142|56=OMPInitiator|10=060|8=FIX.4.2|9=68|35=0|34=737|49=FIXIMULATOR|52=20171207-16:26:56.144|56=OMPInitiator|10=066|8=FIX.4.2|9=68|35=0|34=738|49=FIXIMULATOR|52=20171207-16:27:26.145|56=OMPInitiator|10=066|8=FIX.4.2|9=68|35=0|34=739|49=FIXIMULATOR|52=20171207-16:27:57.147|56=OMPInitiator|10=073|8=FIX.4.2|9=68|35=0|34=740|49=FIXIMULATOR|52=20171207-16:28:28.148|56=OMPInitiator|10=065|8=FIX.4.2|9=68|35=0|34=741|49=FIXIMULATOR|52=20171207-16:28:59.145|56=OMPInitiator|10=067|8=FIX.4.2|9=68|35=0|34=742|49=FIXIMULATOR|52=20171207-16:29:29.149|56=OMPInitiator|10=070|8=FIX.4.2|9=68|35=0|34=743|49=FIXIMULATOR|52=20171207-16:30:00.145|56=OMPInitiator|10=048|8=FIX.4.2|9=68|35=0|34=744|49=FIXIMULATOR|52=20171207-16:30:30.145|56=OMPInitiator|10=052|8=FIX.4.2|9=68|35=0|34=745|49=FIXIMULATOR|52=20171207-16:31:00.146|56=OMPInitiator|10=052|8=FIX.4.2|9=68|35=0|34=746|49=FIXIMULATOR|52=20171207-16:31:30.147|56=OMPInitiator|10=057|